:020000040800F2
:10000000C84300208D780008F1030008F3030008BE
:10001000F5030008F7030008F903000800000000DA
:10002000000000000000000000000000FB030008CA
:10003000FD03000800000000439F0008FF030008C4
:10004000A7780008A7780008A7780008A778000814
:10005000A7780008A7780008CF070008FD07000868
:100060000F08000821080008330800086708000886
:10007000A7780008A7780008A7780008A7780008E4
:10008000A7780008A778000845080008270400089A
:10009000290400082B0400082D040008BF060008EE
:1000A000A7780008A7780008A77800082B050008A3
:1000B00063050008D70500084B060008A77800086C
:1000C000A7780008A7780008A7780008250400088A
:1000D00023040008FF040008230500082705000882
:1000E00035070008A7780008A7780008A778000857
:1000F000A7780008A7780008A7780008A778000864
:10010000A7780008A7780008A7780008A778000853
:10011000A7780008A7780008A7780008A778000843
:10012000A7780008A7780008A7780008A778000833
:10013000DFF80CD00CF032FD004800473F03000808
:10014000C84300207047704708F00DBC70477047E7
:1001500070478F4A10B51068401C10600A2819D1EA
:10016000002010605068401C6421B0FBF1F3506027
:1001700001FB130010B99068401C906007F0B2FCBE
:1001800009F0ECF90024204601F05AF9641CE4B2AD
:10019000032CF8D310BD7E49496808448142FDDB39
:1001A000704710B500F014FF01F00EFFBDE81040DD
:1001B00005F0BFB910B5807830B101280ED0022803
:1001C00009D003280AD102E0FFF7EBFF06E0002088
:1001D00000F0BAFE02E0002000F0D8FE002010BDC2
:1001E00010B56C4A00216C4C1170C07820706B48BF
:1001F00000684078092809D00D280AD001F049FD8F
:1002000010B1207801F054FD002010BD01F096FCE3
:10021000F6E701F0E6FCF3E708B520208DF80000D2
:1002200000208DF80100684607F0A5FE08BD10B556
:1002300005F06DFD042007F014FE08F00DF901F043
:100240003BFA01F0EFFD09F0E8FB30B154A340F2B6
:100250006D1257A1002007F0EDFD00F02AFC00F020
:10026000A3FD00F03BFE00F0A0FE002000F0A9FE80
:1002700000F05EFE00F088FE07F022FE514801F01B
:1002800021FE01F0CAFF05F059F908F053FB4FF6C3
:10029000FF74234664220221002007F0F2FB23466C
:1002A0001E220221012007F0ECFBBDE810400120D6
:1002B00000F054BE10B5807808B9FFF7B8FF0020F1
:1002C00010BD0020704710B500210A2007F0F5FC92
:1002D000002805D000218170BDE8104007F004BD62
:1002E00010BD0178C91E09290DD2DFE801F005060D
:1002F0000C0C0C0C0A0809005CE701F0A3B9D9E763
:100300006EE701F02FBE00207047EAE708B508F05D
:10031000ADFAAFF209034FF400722B49032007F046
:100320000EFD6A4629A103200AF05FFDFFF7CBFF0F
:1003300000226423114610460AF0C1FEF8E700B51A
:1003400087B009F031FE00214FF0006007F07AFA23
:100350004FF4A06007F042FA09F0C3FE1E480DF109
:10036000040C0323002280218CE80F0006200346A2
:1003700000901A4A00211A480AF0DFFB05AA19A1C9
:1003800006200AF032FD09F0AFFF07B0002000BDE3
:100390000000002021000020220000206CDF000867
:1003A000496E697420534E56204572726F72000078
:1003B000536F757263655C4150505C6170702E6361
:1003C0000000000020A10700180400204D61696EA4
:1003D0002D5461736B000000180C0020140E0020D7
:1003E0000D030008526F6F742D5461736B00000091
:1003F0007047FEE7FEE7FEE7FEE77047704710B57F
:1004000009F07EFDF649097819B1F6490A78521CBF
:100410000A7009F079FD09F07AFFBDE8104009F093
:10042000F3BE704770477047704770477047F8B524
:10043000054600EB051000EBC511EB4800EB81040D
:1004400040F22551D4F8140207F098F950B1D4F8CD
:10045000140207F02CF98DF80000E8B20122694679
:1004600000F00DFF40F227773946D4F8140207F068
:1004700085F940F2266620B3B4F80012B4F80202FF
:10048000814204D100223946D4F8140217E0015DFC
:10049000D4F8140207F007F994F80202401C00F0A7
:1004A0007F00A4F8020294F82012002926D1B4F8A3
:1004B0000012814209D101223146D4F8140207F01A
:1004C000A6F894F82002002818D13146D4F8140276
:1004D00007F054F9002811D0B4F80002B4F8021261
:1004E00088420BD1E8B2002100F015FE3146D4F865
:1004F0001402BDE8F840002207F089B8F8BD10B535
:10050000BA4C40F22551204607F038F9002807D0B0
:10051000204607F0CCF8BDE81040C0B201F003B9A6
:1005200010BD012083E7022081E710B5B04C022105
:10053000204606F02FFA002812D00221204606F0AD
:1005400035FA204606F00FFA00F57A7081B220469F
:1005500006F0F8F90221BDE81040032008F05FBF63
:1005600010BD10B501218C07204606F013FA38B1F2
:100570000121204606F01AFA0121002008F04FFF61
:100580000221204606F006FA38B10221204606F084
:100590000DFA0221002008F042FF0421204606F057
:1005A000F9F938B10421204606F000FA04210020B0
:1005B00008F035FF0821204606F0ECF9002809D0A4
:1005C0000821204606F0F2F90821BDE8104000207D
:1005D00008F025BF10BD10B5864C0121204606F05D
:1005E000D9F938B10121204606F0E0F90121084689
:1005F00008F015FF0221204606F0CCF938B102219F
:10060000204606F0D3F90221012008F008FF04215A
:10061000204606F0BFF938B10421204606F0C6F99D
:100620000421012008F0FBFE0821204606F0B2F963
:10063000002809D00821204606F0B8F90821BDE8B5
:100640001040012008F0EBBE10BD10B56A4C01212E
:10065000204606F09FF938B10121204606F0A6F9A0
:100660000121022008F0DBFE0221204606F092F96B
:1006700038B10221204606F099F90221084608F017
:10068000CEFE0421204606F085F938B1042120462B
:1006900006F08CF90421022008F0C1FE0821204652
:1006A00006F078F9002809D00821204606F07EF9E6
:1006B0000821BDE81040022008F0B1BE10BD10B501
:1006C000202005F04BF828B1202005F055F8052032
:1006D00007F08DFE402005F041F828B1402005F0DC
:1006E0004BF8062007F083FE802005F037F828B18C
:1006F000802005F041F8072007F079FE4FF4807460
:10070000204605F02BF828B1204605F035F80820E2
:1007100007F06DFE4FF40074204605F01FF8002826
:1007200007D0204605F028F8BDE81040092007F062
:100730005EBE10BD10B54FF48064204605F00EF883
:1007400028B1204605F018F80A2007F050FE4FF4B3
:100750000064204605F002F828B1204605F00CF8A8
:100760000B2007F044FE4FF48054204604F0F6FFBF
:1007700028B1204605F000F80C2007F038FE4FF4B1
:100780000054204604F0EAFF28B1204604F0F4FFAC
:100790000D2007F02CFE4FF48044204604F0DEFFCD
:1007A00028B1204604F0E8FF0E2007F020FE4FF4A9
:1007B0000044204604F0D2FF002807D0204604F071
:1007C000DBFFBDE810400F2007F011BE10BD10B5D3
:1007D000012004F0D1FFBDE81040002007F007BE63
:1007E000DD020020D8020020F01200200038014075
:1007F000002C0140000400400008004010B5022019
:1008000004F0BAFFBDE81040012007F0F0BD10B5BC
:10081000042004F0B1FFBDE81040022007F0E7BD5E
:1008200010B5082004F0A8FFBDE81040032007F031
:10083000DEBD10B5102004F09FFFBDE8104004207D
:1008400007F0D5BD70B53B4D4FF4087421462846DE
:1008500006F014FD002805D021462846BDE870406A
:1008600006F01ABD70BD344810B5012141608168A1
:1008700021F00101816000212E4806F0C9FB01F042
:1008800049FB0021092007F018FA002805D00021B3
:10089000C170BDE8104007F027BA10BD50F804BB86
:1008A00050F804AB50F8089B90E8F00050F8048C26
:1008B00022A00CF011FA594626A00CF00DFA514670
:1008C00027A00CF009FA494628A00CF005FA414689
:1008D00029A00CF001FA21462AA00CF0FDF92946C6
:1008E0002BA00CF0F9F931462CA00CF0F5F93946A3
:1008F0002DA00CF0F1F92F4801682FA00CF0ECF9B5
:100900002C48103801682FA00CF0E6F929480C3863
:1009100001682FA00CF0E0F92648083801682FA0E4
:100920000CF0DAF92348001D01682FA00CF0D4F96F
:10093000FEE7000000240140000002405B486172B5
:1009400064206661756C742068616E646C65725DAC
:100950000A0000005230203D2025780A00000000E7
:100960005231203D2025780A000000005232203DFF
:100970002025780A000000005233203D2025780A07
:1009800000000000523132203D2025780A0000008E
:100990004C52203D2025780A000000005043203DA5
:1009A0002025780A00000000505352203D20257871
:1009B0000A00000038ED00E042464152203D20256B
:1009C000780A000043465352203D2025780A000053
:1009D00048465352203D2025780A00004446535291
:1009E000203D2025780A000041465352203D202515
:1009F000780A0000D648704710B5044609F017F889
:100A0000202C02D1D34A0121117010BD09F07DB80C
:100A1000D148008870472DE9F04116460F4605463B
:100A200009F06EFA804606F07CF8284606F0B3F826
:100A3000002406E03959284606F051F9241DA4B2D5
:100A40002D1DB442F6D306F078F8404609F05CFA62
:100A50000020BDE8F0812DE9F041054607F083FF55
:100A6000BE4C2F684FF4207844F8227F6E68666091
:100A7000287ABB4D207242462946BA480BF07EFBCD
:100A8000B8488030076046602189018107F06BFF1C
:100A90004246B4492846FFF7BEFF0920D9E7AF49CF
:100AA00051F8222F02604A684260097A01720920D7
:100AB000704710B52221A9480BF079FBA64A022104
:100AC000212009F022F810B1A34900200880A34A90
:100AD0001021A02009F019F818B1A3A19F480BF02C
:100AE0009DFB9E4A102111321446A12009F00DF8F9
:100AF00018B19FA120460BF091FB974A0221921C4E
:100B0000202009F002F89649944880310A6840F89C
:100B1000222F4A6842600989018110BD70B5964B49
:100B20001C6822701D6809246C701C68A07018680D
:100B3000C01C0BF023FB91480078BDE8704001F029
:100B4000B7B810B5C11C182286480BF017FB192046
:100B500010BD844950F8032F80310A6042684A6012
:100B6000008908810B20704700210160192070471F
:100B7000802101600B2070472DE9F0471D46144687
:100B80008946074607F0EFFE754E4FF4207842463F
:100B9000314674480BF0F2FAB87820B1012809D038
:100BA000FF20BDE8F08749463846FFF7CAFF0246F6
:100BB000002006E0002249463846FFF7CAFF0246F9
:100BC000802000212170D021617066490144E01C21
:100BD0000BF0D4FA07F0C7FE424662493046FFF7F1
:100BE0001AFFA07808B900F0D1FA287821780844D3
:100BF000801C28700020D4E770B580781D4614460C
:100C000018B1012804D0FF2070BD0021192201E095
:100C100080210B22A070501C207010206070504862
:100C2000521E0144E01C0BF0A9FA287821780844F0
:100C3000801C2870002070BD10B5091FCAB210F8C2
:100C4000021F21B94378811C184600F006FB0020E2
:100C500010BD4C494A48086070471CB5C279847879
:100C60008179CDE9001243790279C17804F26C7080
:100C700007F0F8FE1CBD70B51D46144608F0ADF82F
:100C800006202070C12060703F480179A1F26C718C
:100C9000A1708179E170C179217101786171417828
:100CA000A1718078E07128780830287070BD70B527
:100CB000841C1D46807808F09AF82A4901200870A3
:100CC000C2204870207888702878C01C287070BDB9
:100CD00070B5447800251646D12C15D008DCC02C00
:100CE0001DD0C12C20D0C22C23D0D02C2DD106E079
:100CF000F02C27D0F12C21D0FD2C26D10AE00A4679
:100D00003146FFF739FF03E00A463146FFF774FF2B
:100D100005461AE00A463146FFF78EFFF8E70A4615
:100D20003146FFF79AFF10E00A463146FFF7A3FF6E
:100D30000BE00A463146FFF7BAFF06E0012000F05B
:100D400027F902E0012000F009F9284670BDBFE74D
:100D5000D8DE0008280000200C0000201812002017
:100D600000F40108180E002041444D494E000000D7
:100D7000383630383630000070DF0008220000209E
:100D80000400FA050CED00E0642400200B0051493A
:100D90000246A1F10500895C805C01D111B10021FE
:100DA00007F006BA0121FBE72DE9F041494E002486
:100DB000494D761F4FF40478305D414607F0CCF979
:100DC00005EB4410074620210BF0F1F9E0B20021B9
:100DD000FFF7DCFF3C70641C052CEDDBBDE8F08107
:100DE00010B504463B48401F005D07F0D4F908B138
:100DF000012100E000213748005D814201D101203E
:100E000010BD002010BD3349491F085C07F0DFB951
:100E100010B5044600780021FFF7B8FFE06900280C
:100E200002D0BDE81040004710BD7CB50D462A49F0
:100E300001EB40140121E261FFF7A8FF201DAFF292
:100E40002F03CDE900402A460021104608F04FFB51
:100E50007CBD10B504460078FFF7D5FFE069002897
:100E600002D0BDE81040004710BD7CB50D001A4906
:100E70004FF0000201EB4014E2610DD00121FFF7B9
:100E800085FF201DAFF23503CDE900402A46012140
:100E9000104608F02CFB7CBD0021FFF777FF201DDA
:100EA000BDE87C4008F0F3BA10B5002400212046CC
:100EB000FFF76CFF641CE4B2052CF7D310BD10B52E
:100EC000002401212046FFF761FF641CE4B2052CD9
:100ED000F7D310BDF0DE00084412002070B50121E8
:100EE000114804F033FD01214FF0C05004F0EAFE38
:100EF000012004F087FD002004F076FE002004F0BD
:100F000081FD0A4D00244FF41276285D314607F02A
:100F100023F9641C012CF8DB70BD044910B5085C92
:100F200007F039F9C0B210BD00043000F5DE00084A
:100F300010B54FF404710F2007F00EF90121BDE840
:100F400010400F2007F034B908B1002100E0012162
:100F50000F2007F02DB90F2007F039B910B50400A4
:100F60000ED00120FFF7F0FF642044430A20B4FBB9
:100F7000F0F200230121BDE81040032006F081BDFE
:100F8000BDE810400020DFE77047704770477047AA
:100F9000002809D0642148430A21B0FBF1F2002364
:100FA0000121022006F06DBD704710B54FF40471A9
:100FB0000E2007F0D1F80121BDE810400E2007F007
:100FC000F7B808B1002100E001210E2007F0F0B8C9
:100FD0000E2007F0FCB8000038B500EB001202EB61
:100FE000C012FC4800EB820494F8112291EA02003E
:100FF0000DD084F81112800709D5900708D5D4F8D0
:101000004002002803D06A46012109F0DFFB38BD09
:101010008807FCD5D4F840020028F8D109F0EDFA91
:10102000C4F840020028F2D194F8110220F0020026
:1010300084F8110238BDF0B5054600EB051000EB51
:10104000C511E44885B000EB8104D4F834120029BE
:101050005FD028468847D4F81402002859D094F865
:1010600018028DF810000F208DF8110000268DF861
:10107000126001278DF8137004A804F5057406F0BA
:10108000B2FB20690090207DD34931F81000ADF803
:101090000400607D091D31F81000ADF80600A07D48
:1010A000891D31F81000ADF808000C20ADF80C6077
:1010B000ADF80A00207A694608F078FA2068012223
:1010C00040F22551A4F5057406F0A1FAC1480C3888
:1010D00050F8251051B994F8111240F8257084F891
:1010E00011722846C4F84062FFF776FF94F82B028D
:1010F000A4F8080294F8200200280AD194F83002DB
:101100004FF4447107F028F894F83002002107F0FA
:101110004FF805B0F0BD70B50D4600EB001101EBC6
:10112000C011AC4800EB810494F8200200280DD1D6
:1011300094F830020DB1012100E0002107F038F8E9
:1011400084F810520AF03EF8C4F80C0270BD70B575
:1011500004460E4600EB041000EBC4119D4800EB62
:10116000810595F8200200280FD195F8100200287B
:101170000BD00AF027F8D5F80C12401AB04204D36D
:101180002046BDE870400021C5E770BD10B50024C1
:10119000E0B2FFF750FF641C032CF9DB10BD2DE912
:1011A000F04115460F460246032819D202EB021001
:1011B00000EBC211874800EB8104B4F80202B4F8D6
:1011C0000012884201D1802007E0401A8030C11708
:1011D00000EB516121F07F01401A80B2A84202D297
:1011E0000020BDE8F081B5B301211046FFF793FF61
:1011F00008F086FE0646B4F80002B4F802128842EF
:1012000003D3C0F18002AA420ADD20442A463946AF
:101210000AF0B4FFB4F800022844A4F8000210E079
:10122000204439460AF0AAFFB4F80002C0F1800059
:10123000C119281A85B220462A460AF09FFFA4F851
:101240000052304608F060FE012240F22771D4F8C7
:10125000140206F0DCF90120C3E730B45F4B01242F
:1012600018705C7030BC9AE700EB001202EBC01003
:10127000584A002102EB8000A0F80A1270472DE9BD
:10128000F041064600EB0610524B00EBC61003EB94
:1012900080041546D4F83CC20F46BCF1000F03D0C1
:1012A0003046E04701209CE7B4F80622B4F8040277
:1012B0004FF4C071824207D0A2EB000C0CF5C07C49
:1012C0009CFBF1FE01FB1EC189B2A94201D20020A4
:1012D00087E706EB06114FF0800C01EBC6110CEB13
:1012E0008101904203D3C0F5C072AA420BDD1844BD
:1012F00008442A4639460AF041FFB4F8040228445B
:10130000A4F8040212E01844084439460AF036FFF3
:10131000B4F80402C0F5C070C119281A85B204F1EE
:1013200080002A460AF02AFFA4F804523046FFF74C
:101330009BFFB7E700EB001202EBC012254800EB61
:101340008200A0F808120021A0F80A12704700EBF2
:10135000001101EBC0111F4800EB810090F82B1227
:10136000A0F808120021A0F80A1270472DE9F047F2
:10137000064600EB0610174F00EBC61007EB800483
:101380008946B4F80602B4F80412C0F5C0701546D8
:1013900001444FF4C07891FBF8F208FB121080B2C0
:1013A000854200D30546EDB308F0AAFD8246B4F8A5
:1013B0000602B4F80422802106EB061303EBC613E1
:1013C00001EB830190420BD2384401442A4648463F
:1013D0001AE00000F0120020F6DE000818000020DD
:1013E000C0F5C072AA42EFDC3844014448460AF016
:1013F000C5FEB4F80602C0F5C070291A0A04120C22
:1014000004D004F1800148440AF0B8FEB4F80602A2
:101410004119B1FBF8F208FB1210A4F80602B4F867
:10142000041200E009E0884204D10020A4F804027C
:10143000A4F80602504608F067FD2846BDE8F0878C
:101440007FB5064600EB061000EBC6118E4800EB98
:101450008104B4F80602B4F80422904229D0B4F80A
:101460000A12491C89B2A4F80A12B4F80832994247
:101470001FD3C0F5C07010444FF4C07190FBF1F25F
:1014800001FB120085B294F81102800712D50020EA
:1014900000900190029003906946D4F8400209F050
:1014A00038FA9DF80C0028B10221D4F8400209F066
:1014B000C8F97FBD2946042006F0FFFB0400F8D0E0
:1014C0002A4604F108013046FFF750FFA670E58078
:1014D00004B02046BDE8704006F006BC70B500EBD5
:1014E000001100F1100301EBC011674800EB81040B
:1014F00004F509752A460C21184608F006FB20B1B0
:101500002846FF220C210AF04BFED4F82402B0F545
:10151000E13F03D94FF41650C4F8240294F828127E
:101520000020022901D384F8280294F82912032903
:1015300001D384F8290294F82A12032901D384F8EC
:101540002A0294F82B020221FA2801D8022801D29B
:1015500084F82B1270BD00EB001101EBC0104A495A
:1015600001EB800090F81102704700EB001101EBD5
:10157000C011454800EB8100B0F80612B0F8040233
:10158000814201D10120704700207047F8B5044620
:101590000F4600EB041000EBC4113B48164600EB6D
:1015A000810595F81102012810D08BB12046FFF774
:1015B000DCFF68B16A461946D5F8400209F0A4F884
:1015C000324639462046FFF7D1FEF8BD0020F8BD6F
:1015D000324639462046BDE8F840C7E600EB001227
:1015E00002EBC0122848002100EB8200A0F806128E
:1015F000A0F80412A0F80A12704710B5044600EBD8
:101600000410214900EBC41001EB8000D0F8140253
:1016100005F050FF2046BDE810400CE500EB00113E
:1016200001EBC011184800EB8100B0F80212B0F8CD
:101630000002081A8030C11700EB516121F07F01D0
:10164000401A704710B5114C817823788B420CD129
:10165000627852B1827900F10801184600F0A8F8CA
:1016600000206070FF2020700CE003290AD201EBFB
:10167000011202EBC112044901EB8201D1F83812C8
:1016800001B18847002010BDF01200201800002092
:1016900010B50C46480702D0002000F02BFBE006F6
:1016A00009D565480078C10701D1800703D5BDE899
:1016B000104007F0D5BF10BD10B586B000244FF420
:1016C000E1300090ADF808400C20ADF80440ADF8D2
:1016D0000A00ADF80640ADF80C406946204607F018
:1016E00065FF25208DF810000F208DF811008DF872
:1016F000124001208DF8130004A806F074F80122AE
:1017000040F225514D4805F082FF4FF402714C48DC
:101710000AF04DFDAFF287004949C1F8040200F01C
:1017200070FB06B010BD464991F80022885491F82C
:101730000002401C81F80002D1F80422042100209C
:10174000104710B53D4C0146204605F0ACFF402146
:10175000204606F009F80028F9D010BD70B50D46F6
:101760000646002404E0305DFFF7EBFF641CE4B2A2
:10177000AC42F8D332481021D0F80422BDE87040C2
:101780000020104770B5BF2A11D82E4B1C6822705C
:101790001D6809246C701C68A0701868C01C0AF0D1
:1017A000EDFC29480078BDE8704000F081BA70BDBA
:1017B0004030C0B2E6E710B514460A4608B1002032
:1017C00010BDE1B21046FFF7C9FF204610BD78B941
:1017D0001B4A92F8003292F80102834208D0105C52
:1017E000087092F80102401C82F801020120704743
:1017F0000020704710B504460AF0EEFC2146C2B244
:10180000BDE810403020BDE70FB4104900B50968AD
:1018100091B0884207DC14AA684613990BF088FA45
:101820006846FFF7E7FF11B05DF814FB052801D209
:101830000649086070470000280000200038014079
:10184000BC19002070DF0008220000201C000020CE
:101850002DE9FE4F1C468946022A3FD301784129D3
:101860003CD141785429FBD14FF0000A00F802A086
:10187000921E12F0FF0600F1020530D028780D28E4
:101880002DD00A282BD08CA083460AF0A5FCC7B225
:10189000DFF83082BE4205D33A46294658460AF060
:1018A000C6FC30B388A083460AF096FCC7B2BE429D
:1018B00006D33A46294658460AF0B9FC00286ED0AD
:1018C00083A738460AF088FCC4B2A642C5D3224694
:1018D000294638460AF0ABFC002873D0E3E04F21DC
:1018E00089F800104B2189F801102078801C1870AD
:1018F000E0E0E81901AB02AA3D2106F03CFE002819
:10190000ECD00025744F08E007EB8600C168029810
:101910000AF069FC40B16D1CEDB205EB850637F8A5
:1019200026000028F0D1BEE0019801783F290BD0B5
:1019300005EB850107EB8105297A012930D00229C1
:1019400033D0042936D038E005EB850007EB80055D
:1019500098F80000A97A814258D8687A10B1012815
:1019600014D0A7E02A7A684669680AF007FC287A4A
:10197000012805D0022806D0009B58A1EA6808E09B
:101980009DF80030F9E7BDF80030F6E76B68EA68CB
:1019900054A1484672E02178084420708AE03BE078
:1019A0000AF054FC8DF8000007E00AF04FFCADF897
:1019B000000002E00AF04AFC0090687A18B10128A1
:1019C00007D010E062E02A7A694668680AF0D6FB20
:1019D00009E001980AF000FC297A884203D8686877
:1019E00001990AF01BFCA97A98F8000081420DD8F1
:1019F000297A37F826006A46FEF7FEFF2969044671
:101A000009B1684688472046BDE8FE8F37A14846A1
:101A1000EA680BF071F9BEE729A0019028A03D44C7
:101A200000902621284606F053FD28460AF0D4FBF4
:101A300028B1284601950AF0CFFB05446D1C2846C5
:101A40000AF0CAFB18B1284600950AF0C5FB01A8A8
:101A500006F06FFD684606F06CFD2A4801990AF011
:101A6000C2FB28B92748009911300AF0BCFB40B1ED
:101A700088F800A024A1DDE9003248460BF03CF9CB
:101A800089E7012188F8001024A1F4E7281901ABA7
:101A90006A463D2106F06FFD28B1082224A1009876
:101AA0000AF0C5FB08B1FF20AEE701980AF0CEFBB3
:101AB00006F0D7F90020A7E72B434F4E4649473D94
:101AC00000000000200000202B4C4F473D0000008C
:101AD0002B4442473D00000008DF000825733A25EB
:101AE0007500000025733A2573000000636F6E6671
:101AF00069672025733A20756E617574686F726925
:101B00007A656400181200204C4F47202573262563
:101B1000733A204661696C65640000004C4F4720B1
:101B200025732625733A2053756363656564000049
:101B30004442474C4556454C00000000F8B5B54CB2
:101B400001238DF80030B44E206800257279817829
:101B5000D01E212943D005DC39B3012927D0202903
:101B600004D129E0222930D0502938D0D4E90010FE
:101B7000001D0AF003FB9DF8000071790844C01EA7
:101B80008DF80000012561689DF80000087020684C
:101B900061684078487020686168807840F0800013
:101BA00088706068C5700120F8BDF371EBE707F03D
:101BB00020FF0220F071E6E7C2B2D4E900016B46D3
:101BC000C01C091DFFF744FE07E0C2B2D4E90001C2
:101BD0006B46C01C091DFFF7BAF80546D3E7002085
:101BE000F8BD70B58B4D0124002628688078072841
:101BF0000CD006DC042809D0052817D0062804D10B
:101C000029E0202839D021283CD0012668680470BA
:101C1000286869684078487028686968807840F06A
:101C2000800088706868C670012070BD68680C21EB
:101C30000171401D07F071FD784968680A88120A31
:101C400042740978817468680822754913300AF073
:101C500095FA1824DAE7FEF7CDFE0AF0BDFA6968B6
:101C600004460871FEF7C6FE014668682246401D1C
:101C70000AF084FAA41CE4B2C8E72868C01CFEF786
:101C8000EAFEC3E76868001DFEF709FF401CC4B206
:101C9000BCE760480122114643681A7042684368F5
:101CA000927842F080029A704068C17001207047BB
:101CB00070B5584E0546002370681C4619460078DA
:101CC000C01CC2B203E0405C4340491CC9B270680A
:101CD0009142F8D3835450487368921C817803F87A
:101CE000011CFE21817071682846491EFFF763FDC3
:101CF000204670BDF8B505460024474E3DE0B17959
:101D000031B101290CD0022916D0032935D126E0A2
:101D10009DF80000FE2801D0FD282ED101201CE0F6
:101D20009DF80000BF2801D9B47126E00221B171ED
:101D30003471F470C01C7071F1789DF8000041405E
:101D4000F17034493279096888543079401CC0B246
:101D500030717179884210D10320B0710DE0B471F7
:101D6000F0789DF80010884207D100210B2005F083
:101D7000A4FF10B1C57005F0B7FF012269462846DF
:101D8000FFF725FD0028BAD1F8BD70B50025224C1B
:101D90002FE010F8012BA37933B1012B08D0022BCF
:101DA00010D0032B25D11EE0FE2A22D1012218E0FB
:101DB000BF2A01D9A5711CE00223A3712571E5702A
:101DC000D31C6371E3785340E370124B26791B6890
:101DD0009A552279521CD2B2227163799A4208D163
:101DE0000322A27105E0A571E378934201D101209D
:101DF00070BD491E89B2CCD2002070BD06498870E2
:101E00007047054800218171C17101704170FE2148
:101E1000817070476CDF0008210000200E00002058
:101E20001000002009490AA00AF056BF70B5094DFC
:101E30000446C1B2284605F036FC4021284605F08C
:101E400093FC0028F9D0204670BD000074DF000824
:101E5000257300000038014008B50B208DF8000004
:101E60000F208DF8010000208DF8020001208DF870
:101E70000300684605F0B7FC08BD414810B52821AD
:101E8000C16040494161816841F0010181603E4C7F
:101E90000121204605F0BCF80121204605F0EDF8AF
:101EA000002010BD394910B5B1FBF0F1002007F05A
:101EB0003CF90023AFF23D02BDE810400121184675
:101EC00007F081BA1CB504460121112003F0F1FE90
:101ED00000218DF807108DF806101F21ADF80410B1
:101EE00001A92B4803F0A7FCFFF7B6FF4FF44040D1
:101EF00003F073FE0320009005230A2228212148C5
:101F000007F07CFE2046FFF7CDFF01211E4805F0BB
:101F1000B4F81CBD30B500201A4A0146503242F8D0
:101F20002010401C0528FAD3164B0020002101EB9D
:101F3000810403EB440452F8205034F81040491C4B
:101F40002C4442F820400829F1D3401C0528EDD349
:101F500030BD052801D3002070470A49503151F89F
:101F60002000704700B50B4B0022D0B2FFF7F1FF05
:101F700003EB8201521C0864052AF6DB002000BD39
:101F8000000002404C1D00200024014040420F0090
:101F900000100140B01D002070B5C44E054600245D
:101FA000A54203D0305D012106F002F9641C022C29
:101FB000F6DB705DBDE87040002106F0F9B8BB4962
:101FC000085C012106F0F4B870477CB5044607F0C0
:101FD00088FF002214231146104609F070F80123EF
:101FE00001AA2021204607F0F7FE9DF8040000F02A
:101FF0000F00092808D0AEA36322B2A100200094EC
:1020000005F018FF01207CBDB44804EBC4010D1895
:10201000002115F8282F204607F033FFEA78012128
:10202000204607F02EFFAA790221204607F029FF5B
:10203000ABA36C22A3A10420009405F0FBFE0020BA
:102040007CBD2DE9FC41064642F010008DF80400ED
:1020500041F010001C468DF805000227089D01ABD9
:10206000102200213046009707F0BEFE8DF8045084
:102070008DF8054001AB082201213046009707F09A
:10208000B3FEBDE8FC811CB500218DF804100321CE
:1020900000910DF105031822012107F07CFE9DF847
:1020A00005009DF80610000440EA01209DF8071085
:1020B00008431CBD38B5894B03EB800254688C4241
:1020C00010D051604022009200EBC0021A4401EB94
:1020D00041031A44C9B292F8293092F82820C0B2BC
:1020E000FFF7AFFF38BD70470321F8B590FBF1F261
:1020F00090FBF1F401FB120631462046FFF7DAFFB0
:10210000282006F0EBFB754D0120E860E868002808
:10211000FCD14FF4967006F0C2FB04EBC4002844D7
:1021200006EB4601084490F82A104907090E009171
:1021300090F8293090F82820F1B2E0B2FFF781FF43
:10214000E0B207F073FE10B14FF0FF30F8BDE0B21F
:10215000BDE8F84097E76B4A10B5106880F00300BF
:102160001060694B0A21186890FBF1F401FB14011F
:1021700041B9116881F0C001116064490A6882F4B4
:1021800080720A605F49091F0968490604D55349EE
:10219000CA680AB10022CA60401C1860002010BD45
:1021A000F8B50146012006F0C0FF0023AFF2590246
:1021B0000121084607F007F901210C2003F079FD01
:1021C0000324504EADF8004010258DF803500C3E0E
:1021D0008DF802406946304603F02DFBC020ADF873
:1021E00000008DF803508DF802406946304603F038
:1021F00022FB2E01ADF8006044488DF803508DF8A5
:10220000024069460C3803F016FB3E49C320091D05
:1022100008603E48001D0660F8BDF8B554212F48FF
:1022200009F0C5FF214D00244FF44476285D314666
:1022300005F092FF285D012105F0BAFF641C022C15
:10224000F4DB26480221012200F8281F14214170E6
:1022500082700023C370017142718371C171027277
:1022600043728172C272037341738273C3730174C8
:102270004274184607F03EFD0020FFF7A6FE01203D
:10228000FFF7A3FE002240241223114610460094BB
:10229000FFF7D7FE12230022022101200094FFF74E
:1022A000D0FEBDE8F8404FF4AF6079E7A8DF000842
:1022B00061732063686C3A2578206661696C0D0A49
:1022C00000000000536F757263655C4150505C44C0
:1022D0006973706C61792E6300000000B01D0020EE
:1022E000496E697469616C697A6520616437373950
:1022F000392063686C3A257820737563636565647B
:102300000D0A00000C0C01402C0000200C080140BC
:1023100010B5FF4C002104EB410334F811205B8819
:1023200090420FDC98420DDD101A00EB8000400057
:10233000D21AB0FBF2F001EB810100EB41003C3816
:1023400080B210BD491C89B26B29E4D340F2E93058
:1023500010BD70B5414347F6F872101A91FBF0F4C6
:1023600047F68A70844202D90020014624E040F2F8
:10237000A72084424FF0000001D2E6491CE0E64964
:102380000BF0FCFB05460E4620460AF0CAF90BF09E
:10239000F5FBE24AE24B0AF02EF82A4633460AF0F1
:1023A000CBF802460B460020DE490AF03DF94FF01B
:1023B0006632DD4B0AF0C0F80022DC4B0AF0C2F8AE
:1023C000BDE870400AF0CEB9414347F6F872101AE2
:1023D00091FBF0F000B580B247F68A71884201D9CE
:1023E000D34800BD40F2A721884202D24FF47A7050
:1023F00000BDFFF78DFFB0F5AA7F01DD001F00BD16
:10240000B0F5A57FFBDD801E00BD01230022114633
:10241000104608F054BE002203461146104608F04C
:102420004EBEF0B50646002004464AF201050EE015
:10243000325D002382EA0007FF0702D085EA5000E0
:1024400000E0400852085B1C082BF3DB641C8C4244
:10245000EEDBF0BD401CC0B2FEF7A1BE30B50C46AD
:102460000546FFF7DEFF010A29552919487030BDDE
:1024700070B5054600EB051000EBC511AD4800EB4B
:10248000810440F21121204609F091FE012084F8D8
:102490001102002684F82062A749C4F814122621EC
:1024A000C4E9861084F83002284604F50574FFF765
:1024B00015F84FF41650206126756675A67570BD27
:1024C00001B501216846FFF749F908BD0AF004BCCF
:1024D0009A49B0FBF1F201FB120142F21072B1FB1A
:1024E000F2F38B4930335C394B73B0FBF2F302FBF0
:1024F00013034FF47A72B3FBF2F330338B73B0FBF8
:10250000F2F302FB13036422B3FBF2F33033CB7319
:10251000B0FBF2F302FB13030A22B3FBF2F33033F6
:102520000B74B0FBF2F302FB1300303048747047B9
:1025300042F21071B0FBF1F201FB12014FF47A721A
:10254000B1FBF2F3724930335C394B73B0FBF2F3F9
:1025500002FB13036422B3FBF2F330338B73B0FB43
:10256000F2F302FB13030A22B3FBF2F33033CB7313
:10257000B0FBF2F302FB13003030087420204874E3
:10258000704710B50D20FFF79BFFBDE810400A20F3
:1025900096E710B55E4C5C3C607BFFF791FFA07B3B
:1025A000FFF78EFFE07BFFF78BFF207CFFF788FFB4
:1025B000607CFFF785FFBDE81040E2E7544B10B5A3
:1025C0005C3B64220A21002803DA401CC04380B22D
:1025D00001E080B20CB12D2400E020245C73B0FB3C
:1025E000F2F402FB1402B2FBF1F230329A73B0FB48
:1025F000F1F201FB12003030D87310BD10B5444C1D
:102600005C3C607BFFF75CFFA07BFFF759FF2E204F
:10261000FFF756FFE07BFFF753FFBDE81040B0E740
:10262000464970B5B0FBF1F201FB120242F21071A3
:10263000B0FBF1F3B2FBF1F201FB13034FF47A713B
:10264000B3FBF1F4B0FBF1F301FB13036421B3FB23
:10265000F1F5B0FBF1F301FB13000A21B0FBF1F639
:102660003032D0B2FFF72CFF3034E0B2FFF728FF52
:102670002E20FFF725FF3035E8B2FFF721FF303677
:10268000F0B2BDE870401BE770B5064620480D4625
:102690005C38C078002873D0294C2088FFF718FFD9
:1026A00028A00AF019FBFFF774FF6088FFF710FFFE
:1026B00026A00AF011FBFFF76CFFA088FFF708FFC8
:1026C00024A00AF009FBFFF764FFE088FFF700FF92
:1026D00022A00AF001FBFFF75CFF2089FFF7F8FE5C
:1026E00020A00AF0F9FAFFF754FF6089FFF7F0FE27
:1026F0001EA00AF0F1FAFFF74CFF1EA00AF0ECFA58
:10270000B4F85000FFF78CFF1CA00AF0E5FA38E09F
:102710008C000020000059400088C34082E2ACAF2A
:102720008CB92A400020AF4066127140000024405E
:1027300018FCFFFFF012002000440040A0860100BA
:102740000E1E002043314856523D00004331484898
:102750003D0000004331484C3D00000043314C48EF
:102760003D00000043314C4C3D00000043314C56CD
:10277000523D00005254313D000000006B0000004B
:1027800052E1FFF7FEFEB4F90C00FFF717FFF6A0C9
:102790000AF0A2FAFFF732FFE089FFF7C9FEF5A0C1
:1027A0000AF09AFAFFF7F5FE208AFFF791FEF4A0EF
:1027B0000AF092FAFFF7EDFE608AFFF789FEF2A0B9
:1027C0000AF08AFAFFF7E5FEA08AFFF781FEF0A083
:1027D0000AF082FAFFF7DDFEE08AFFF779FEEEA04D
:1027E0000AF07AFAFFF7D5FE208BFFF771FEECA016
:1027F0000AF072FAFFF7CDFE608BFFF769FEEAA0E0
:102800000AF06AFAFFF7C5FEE9A00AF065FAB4F823
:102810005200FFF705FFAFF29C000AF05DFAFFF7E8
:10282000B0FEB4F91C00FFF7C9FEE3A00AF054FAA9
:10283000FFF7E4FEE08BFFF77BFEE2A00AF04CFA24
:10284000FFF7A7FE208CFFF743FEE1A00AF044FA51
:10285000FFF79FFE608CFFF73BFEDFA00AF03CFA1B
:10286000FFF797FEA08CFFF733FEDDA00AF034FAE5
:10287000FFF78FFEE08CFFF72BFEDBA00AF02CFAAF
:10288000FFF787FE208DFFF723FED9A00AF024FA78
:10289000FFF77FFE608DFFF71BFED7A00AF01CFA42
:1028A000FFF777FED6A00AF017FAB4F85400FFF746
:1028B000B7FEAFF238100AF00FFAFFF762FEB4F974
:1028C0002C00FFF77BFED0A00AF006FAFFF796FE79
:1028D000E08DFFF72DFECFA00AF0FEF9FFF759FEBD
:1028E000208EFFF7F5FDCEA00AF0F6F9FFF751FEB6
:1028F000608EFFF7EDFDCCA00AF0EEF9FFF749FE80
:10290000A08EFFF7E5FDCAA00AF0E6F9FFF741FE49
:10291000E08EFFF7DDFDC8A00AF0DEF9FFF739FE13
:10292000208FFFF7D5FDC6A00AF0D6F9FFF731FEDC
:10293000608FFFF7CDFDC4A00AF0CEF9FFF729FEA6
:10294000C3A00AF0C9F9B4F85600FFF769FEAFF268
:10295000D4100AF0C1F9FFF714FEB4F93C00FFF7F8
:102960002DFEBDA00AF0B8F9FFF748FEE08FFFF793
:10297000DFFDBCA00AF0B0F9FFF70BFEB4F8400091
:10298000FFF7A6FDBAA00AF0A7F9FFF702FEB4F818
:102990004200FFF79DFDB8A00AF09EF9FFF7F9FD90
:1029A000B4F84400FFF794FDB5A00AF095F9FFF7DD
:1029B000F0FDB4F84600FFF78BFDB3A00AF08CF9E8
:1029C000FFF7E7FDB4F84800FFF782FDB0A00AF07A
:1029D00083F9FFF7DEFDB4F84A00FFF779FDAEA0FA
:1029E0000AF07AF9FFF7D5FDADA00AF075F9B4F851
:1029F0005800FFF715FEAFF27C200AF06DF9FFF7E3
:102A0000C0FDB4F84C00FFF7D9FDA7A00AF064F9A7
:102A1000FFF7F4FDB4F84E00FFF78AFDA5A00AF019
:102A20005BF9BDE87040B4E5002404E0305DFFF7D9
:102A300047FD641CE4B2AC42F8D370BD00B5084455
:102A40001146FFF7EEFC9E49888200BD00B50844A0
:102A50001146FFF7E6FC9A49888200BD994A10B5F5
:102A60005318525C5B7803EB022294B20A4601468B
:102A70009448FFF7EBFF9248408A844201D101203D
:102A800010BD002010BD8F4810B5C17880784FF080
:102A9000000201EB002081B2894811F0FF0F1DD127
:102AA0000B1201210A2B19D2DFE803F018050709E0
:102AB0000B180E111416817010BD262205E0272276
:102AC00003E06021417110BD29224270F3E70D211E
:102AD000017010BDC17010BDC27010BD027110BD7B
:102AE0002DE9F0417748764C48F28767C1788078C5
:102AF000002301EB002081B2CA1B01250526607866
:102B0000B94228D017DC48F28107A1EB0702B9428D
:102B100022D007DC032920D03F2004291ED005291C
:102B20001DD128E1A2F50072023A19D0A2F5007277
:102B3000023A14D1E8E040F20667A2F20661BA4216
:102B40000FD00FDCA2F50072023A0CD0A2F5007291
:102B5000023A04D1F5E0E1E0C3E007E108E1BCE0BE
:102B6000C8E0F8E0B0E0E3E054314F6666736574A6
:102B70003D0000004331436F6E73743D0000000060
:102B800043324856523D0000433248483D00000061
:102B90004332484C3D00000043324C483D000000A9
:102BA00043324C4C3D00000043324C56523D000035
:102BB0005254323D0000000054324F666673657413
:102BC0003D0000004332436F6E73743D000000000F
:102BD00043334856523D0000433348483D0000000F
:102BE0004333484C3D00000043334C483D00000057
:102BF00043334C4C3D00000043334C56523D0000E3
:102C00005254333D0000000054334F6666736574C0
:102C10003D0000004333436F6E73743D00000000BD
:102C200043344856523D0000433448483D000000BC
:102C30004334484C3D00000043344C483D00000004
:102C400043344C4C3D00000043344C56523D000090
:102C50005254343D0000000054344F66667365746E
:102C60003D0000004334436F6E73743D000000006C
:102C700043354856523D0000433548483D0000006A
:102C80004335484C3D00000043354C483D000000B2
:102C900043354C4C3D00000043354C56523D00003E
:102CA0005254353D0000000054354F66667365741C
:102CB0003D0000004335436F6E73743D000000001B
:102CC00030000020041E0020A1F50071023944D01C
:102CD000A1F24221B1F5804F41D02371A571BDE829
:102CE000F081012804D001210020FEF74FF8657023
:102CF0000E2039E0022805D001210020FEF746F819
:102D0000022060700F202FE0032805D00121002051
:102D1000FEF73CF803206070102025E0042805D061
:102D200000210846FEF732F80420607011201BE0F5
:102D3000052804D000210846FEF728F86670122006
:102D400012E0062805D000210846FEF71FF80620ED
:102D50006070132008E0142006E0152004E020280D
:102D600001D02020607016202070B8E72670B6E7EA
:102D700020702573B3E720702373B0E730B5F848AF
:102D8000F74D2524C17880780A3501EB002081B207
:102D9000F3480123A1F68D4142790079B1F5004154
:102DA00002EB0020EF4A07D0A1F50071023905D0EF
:102DB00000201071937130BDA88100E0E88154704B
:102DC000937030BD70B5E648E64C49F29766C1781D
:102DD0008078002501EB002081B28A1B01236078F6
:102DE000B14252D017DC49F29106A1EB0602B14282
:102DF0002DD007DC0E2973D040200F2972D0102966
:102E000022D172E0A2F50072023A2AD0A2F5007235
:102E1000023A19D12FE040F20666A2F20661B242F0
:102E200051D008DCA2F50072023A38D0A2F5007247
:102E3000023A09D13DE0A1F50071023945D001F611
:102E4000CC31B1F5804F42D02571A37170BD0728F8
:102E500005D001210846FDF799FF07206070182072
:102E60003AE0082805D001210846FDF78FFF082029
:102E70006070192030E0092805D001210846FDF7CF
:102E800085FF092060701A2026E00A2805D000215D
:102E90000120FDF77BFF0A2060701B201CE00B283F
:102EA00005D000210120FDF771FF0B2060701C2070
:102EB00012E00C2805D000210120FDF767FF0C204F
:102EC00060701D2008E01E2006E01F2004E021287D
:102ED00001D0212060702020207070BD00E001E052
:102EE0000620F9E720702373F7E720702573F4E7D5
:102EF00030B59B489A4D2524C17880780A3501EB7E
:102F0000002081B29648012301F2633142790079B1
:102F1000B1F5204102EB0020924A07D0A1F50071E3
:102F2000023905D000201071937130BDA88300E0F4
:102F3000E8835470937030BD2DE9F0418848894C86
:102F40004AF2A767C1788078002301EB002081B2A4
:102F5000CA1B012622256078B94252D017DC4AF2FA
:102F6000A107A1EB0702B9422DD007DC192972D0C5
:102F700041201A2971D01B2922D171E0A2F50072DB
:102F8000023A2AD0A2F50072023A19D12FE040F29B
:102F90000667A2F20661BA4251D008DCA2F50072BF
:102FA000023A38D0A2F50072023A09D13DE0A1F50B
:102FB0000071023945D0A1F22661B1F5005F42D01F
:102FC0002371A6718BE60D2805D001210220FDF7A3
:102FD000DDFE0D206070257081E60E2805D00121F0
:102FE0000220FDF7D3FE0E20607023202FE00F2873
:102FF00005D001210220FDF7C9FE0F2060702420BA
:1030000025E0102805D000210220FDF7BFFE10208A
:10301000607025201BE0112805D000210220FDF75B
:10302000B5FE11206070262011E0122805D0002185
:103030000220FDF7ABFE12206070272007E0282059
:1030400005E0292003E0222800D065702A202070A6
:1030500045E600E001E00720F9E7207026733EE630
:10306000207023733BE630B53D483D4D2524C178A3
:1030700080780A3501EB002081B239480123A1F69E
:10308000AD4142790079B1F5204102EB0020354A8B
:1030900007D0A1F50071023905D00020107193719D
:1030A00030BDA88500E0E8855470937030BD70B5E0
:1030B0002B482C4C4BF2B766C1788078002501EB89
:1030C000002081B28A1B01236078B14256D017DC00
:1030D0004BF2B106A1EB0602B1422DD007DC21294B
:1030E00077D04220222976D0232922D176E0A2F57A
:1030F0000072023A2AD0A2F50072023A19D133E0E6
:1031000040F20666A2F20661B24255D008DCA2F592
:103110000072023A3CD0A2F50072023A09D141E0B5
:10312000A1F50071023949D001F5FD61B1F5005FEB
:1031300046D02571A371D0E6132805D001210320C4
:10314000FDF724FE132060702C203EE0142805D0EB
:1031500001210320FDF71AFE142060702D2034E0B9
:10316000041E002030000020152805D00121032076
:10317000FDF70CFE152060702E2026E0162805D0E5
:1031800000210320FDF702FE162060702F201CE0B6
:10319000172805D000210320FDF7F8FD17206070E7
:1031A000302012E0182805D000210320FDF7EEFDA5
:1031B00018206070312008E0322006E0332004E05F
:1031C000232801D0232060703420207085E600E0A1
:1031D00001E00820F9E7207023737EE62070257354
:1031E0007BE630B5FE48FE4D2524C17880780A354F
:1031F00001EB002081B2FA48012301F24331427908
:103200000079B1F5404102EB0020F64A07D0A1F564
:103210000071023905D000201071937130BDA8876C
:1032200000E0E8875470937030BD70B5EC48ED4C09
:103230004CF2C766C1788078002501EB002081B28E
:103240008A1B01236078B14251D017DC4CF2C106D1
:10325000A1EB0602B1422CD007DC2C2972D043200E
:103260002D2971D02E2921D171E0A2F50072023AE8
:1032700029D0A2F50072023A18D12EE040F206667B
:10328000A2F20661B24250D008DCA2F50072023A06
:1032900037D0A2F50072023A08D13CE0A1F50071E6
:1032A000023944D0A1F520610A3942D02571A371B9
:1032B00013E6192805D001210420FDF767FD192028
:1032C000607036203AE01A2805D001210420FDF76D
:1032D0005DFD1A206070372030E01B2805D00121E9
:1032E0000420FDF753FD1B206070382026E01C28C9
:1032F00005D000210420FDF749FD1C206070392015
:103300001CE01D2805D000210420FDF73FFD1D20F5
:1033100060703A2012E01E2805D000210420FDF73D
:1033200035FD1E2060703B2008E03C2006E03D207B
:1033300004E0242801D0242060703E202070CCE5D9
:1033400000E001E00920F9E720702373C5E5207053
:103350002573C2E530B5A248A14D2524C1788078F7
:103360000A3501EB002081B29D480123A1F6CD4131
:1033700042790079B1F5404102EB0020994A80B2D0
:1033800007D0A1F50071023906D0002010719371A9
:1033900030BDA5F84C0001E0A5F84E0054709370C4
:1033A00030BD0A4601460020FFF754B847F6F871D1
:1033B000091A42F210725143B1FBF0F080B270472B
:1033C00010B50020FEF790FEC0F30F2010BD10B521
:1033D0000120FEF789FEC0F30F2010BD10B50220BA
:1033E000FEF782FEC0F30F2010BD10B50320FEF7DC
:1033F0007BFEC0F30F2010BD10B50420FEF774FE55
:10340000C0F30F2010BD10B5531A42F2107463437D
:1034100093FBF1F189B24143101A91FBF0F080B2B5
:1034200010BD42F21072B0FBF2F302FB13024FF434
:103430007A7370B5B0FBF3F4B2FBF3F203FB140440
:103440006423B4FBF3F4E6B2B0FBF3F403FB14041F
:103450000A23B4FBF3F5B0FBF3F403FB1404D2B27C
:10346000D1B101291BD0022927D003292FD1303215
:10347000D0B2FFF725F83036F0B2FFF721F830353B
:10348000E8B2FFF71DF82E20FFF71AF83034E0B24B
:10349000BDE87040FFF714B83032D0B204E03032EB
:1034A000D0B2FFF70DF82E20FFF70AF83036F0B251
:1034B000FFF706F83035E8B2E6E73032D0B2FEF773
:1034C000FFFF3036F0B2FEF7FBFF2E20F0E704E5F9
:1034D0004FF47A71B0FBF1F201FB12026421B0FBF0
:1034E000F1F3B2FBF1F270B501FB13030A21B3FB58
:1034F000F1F4B0FBF1F301FB13053032D0B2FEF76B
:10350000DFFF3034E0B2FEF7DBFF2E20FEF7D8FFFE
:103510003035E8B2BDE87040FEF7D2BF2DE9F0418A
:103520000646314FDFF8BC8009F054F90C460546D9
:10353000BE4234DA2D4A2E4B09F004F806460F46F7
:10354000284621462B4A2C4B08F0FCFF2A462346EE
:1035500008F0F8FF32463B4608F0EEFF274A284BBA
:1035600008F049FF09F049F9C8F8540028462146F7
:10357000244A254B08F0E6FF06460F46284621461A
:10358000224A234B08F0DEFF2A46234608F0DAFFE2
:1035900032463B4608F02FFF1E4A1F4B99E01F485A
:1035A0008642284661DA1E4A1E4B08F0CBFF0746CA
:1035B0000E46284621461C4A1C4B08F0C3FF2A46EB
:1035C000234608F0BFFF3A46334608F0B5FF184AD5
:1035D000184B08F010FF09F010F9C8F854002BE060
:1035E000041E0020300000200000A041B84082E20C
:1035F000C798AB3F89B5F81400E3493F2B8716D92C
:10360000CEF7FD3F1361C3D32B65493FF5824F735E
:10361000F222033F744694F6065F883F0000204282
:10362000FB5C6DC5FEB29B3F2D431CEBE236EA3ED0
:103630006F1283C0CAA1F93F28462146FC4AFD4BC0
:1036400008F080FF06460F4628462146FA4AFB4B03
:1036500008F078FF2A46234608F074FF32463B46BE
:1036600008F06AFFF64AF74B33E0F74AF74B08F0E9
:1036700069FF06460F4628462146F54AF54B08F0F5
:1036800061FF2A46234608F05DFF32463B4608F0BC
:1036900053FFF14AF14B08F0AEFE09F0AEF8C8F85E
:1036A000540028462146EE4AEE4B08F04BFF0646F2
:1036B0000F4628462146EC4AEC4B08F043FF2A46C9
:1036C000234608F03FFF32463B4608F035FFE84A04
:1036D000E84B08F090FE09F090F8C8F8580071E443
:1036E000F0B5E5484FF0C10C0221036C0622C2245C
:1036F00083F800C059709A70436CC325C4261C70AF
:1037000059709A70836CC5271D7059709A70C36C7C
:103710001E7059709A70036D1F7059709A70C36A49
:1037200003210A2283F800C059709A70036B1C7041
:1037300059709A70436B1D7059709A70836B1E702C
:1037400059709A70C06B077041708270F0BDFEF7BF
:1037500000BC70B5C84CE078002844D0C7A009F080
:10376000BBFAC74DC749D5F8030088420EDA09F005
:1037700031F8C54AC54B08F03EFE0022C44B08F0A4
:10378000E1FE09F00EF880B203210CE0C149884245
:103790000DDA09F01FF80022BF4B08F02CFE09F0EB
:1037A00000F880B20021FFF73CFEBCA00CE0BE494F
:1037B00008F059FDBD4908F0E0FD08F0BFFF80B2F8
:1037C0000221FFF72EFEBAA009F086FABAA009F08E
:1037D00083FAB5F80700FFF77BFEB8A009F07CFA82
:1037E000FEF7CFFE18E0206CC1788279C27081713B
:1037F0000179427902714171C179027AC271017213
:1038000009220021FFF71AF9A18A206C0A0A4272E4
:1038100081720B21FFF7C5FD002020710120A071EE
:1038200089E42DE9F84F0020FFF791FF924E308494
:10383000FFF7C6FD924CF082633C708CB4F85210D6
:10384000FEF787FDA18B8E4D084404F16F01974F61
:10385000A1F80700A5F80700F079DFF86892DFF813
:1038600068A2DFF868B2E8B322886188F08AFFF7BF
:10387000CAFD0090A846B5F8070008F04DFF39468C
:1038800008F07BFD494608F040FD08F0A3FF5246D2
:103890005B4608F057FE00228D4B08F0ACFD054654
:1038A0000F46009808F038FF8146E08908F034FFA1
:1038B000884908F062FD494608F05FFD08F08AFF7C
:1038C0000022854B08F03EFE2A463B4608F0ACFE3F
:1038D00008F093FFC8F80300A088F18A643088429A
:1038E0004FD200E005E000210846FDF74FFA002026
:1038F00041E062892189F08AFFF785FD0090A846A2
:10390000B5F8070008F008FF394608F036FD4946CB
:1039100008F0FBFC08F05EFF52465B4608F012FE22
:1039200000226B4B08F067FD05460F46009808F033
:10393000F3FE8146E08908F0EFFE664908F01DFDC0
:10394000494608F01AFD08F045FF0022634B08F0D5
:10395000F9FD2A463B4608F067FE08F04EFFC8F81E
:103960000300E088F18A643888420ADD01210020E2
:10397000FDF70CFA0120F071BDE8F84FC820FEF702
:103980004ABDBDE8F88F70B53B4CE07800284DD0BB
:1039900053A009F0A1F93A4D0C35D5F80300B0F168
:1039A000804F11DA08F016FF4E4A4F4B08F023FD06
:1039B00000224E4B08F0C6FD08F0F3FE80B2012154
:1039C000FFF72FFD4AA022E04D4988420EDA08F0A9
:1039D00001FF3D4A4B4B08F00EFD00224A4B08F018
:1039E000B1FD08F0DEFE80B202210DE008F0F2FE2B
:1039F000254A264B08F0FFFC0022254B08F0A2FDCB
:103A000008F0CFFE80B20321FFF70BFD23A009F0E1
:103A100063F93EA009F060F9B5F80700FFF758FD1B
:103A200026A009F059F9FEF7ACFD8AE070E000002D
:103A30000FD6FF39CC97173FFC6D4F90D8EE0E3F55
:103A4000014D840D4FAF943F22FDF675E09C613F20
:103A500043C5387F130A11BF1F85EB51B81EED3FD8
:103A6000091B9E5E29CB603F54F0CAE48A41163F91
:103A7000C976BE9F1A2FAD3F3000002043313D0074
:103A8000711E0020000048439A9999999999A93F7D
:103A9000000024400000FA440000E03FEFBFBDEF0B
:103AA000BFBD532F636D20000000A04000002041E7
:103AB0006D532F636D20200054313D00EFBFBDEFEB
:103AC000BFBD00000000C8417B14AE47E17A943FBF
:103AD0000000F03F00007A4484D79741D012634140
:103AE00043323D00FCA9F1D24D62403F00408F407F
:103AF000EFBFBDEFBFBD532F636D2020000000005E
:103B00000000A041E17A743F0000594054323D006A
:103B1000606CC1788279C2708171017942790271D9
:103B20004171C179027AC271017209220021FEF746
:103B300085FFA18A606C0A0A427281720B21FFF72D
:103B400030FC002020710120A071C0E42DE9F84F65
:103B50000120FFF7FCFDFC4E7084FFF738FCFB4CA6
:103B60003083708CB4F85210FEF7F3FBA18B04F194
:103B70006F050844A5F80700307AF54FDFF8D493B5
:103B8000DFF8D4A3DFF8D4B3F0B3228A618A308B94
:103B9000FFF739FC0090A846B5F8070008F0BCFD17
:103BA000394608F0EAFB494608F0AFFB08F012FE80
:103BB00052465B4608F0C6FC0022E94B08F01BFCAD
:103BC00005460F46009808F0A7FD8146E08B08F0F7
:103BD000A3FDE44908F0D1FB494608F0CEFB08F00C
:103BE000F9FD0022E04B08F0ADFC2A463B4608F008
:103BF0001BFD08F002FEC8F80300A08A318B643078
:103C000088424FD2002100E004E00120FDF7BEF819
:103C1000002041E0628B218B308BFFF7F4FB00909A
:103C2000A846B5F8070008F077FD394608F0A5FB6F
:103C3000494608F06AFB08F0CDFD52465B4608F0A5
:103C400081FC0022C64B08F0D6FB05460F460098C3
:103C500008F062FD8146E08B08F05EFDC14908F086
:103C60008CFB494608F089FB08F0B4FD0022BF4BED
:103C700008F068FC2A463B4608F0D6FC08F0BDFD7B
:103C8000C8F80300E08A318B643888420ADD0121DC
:103C90000846FDF77BF801203072BDE8F84FC820D8
:103CA000FEF7B9BB6DE670B5A74CE078002839D0B7
:103CB000AFA009F011F8A54D7B35D5F80300B0F1A0
:103CC000804F0EDA08F086FDAA4AAB4B08F093FB52
:103CD0000022AA4B08F036FC08F063FD80B20121F7
:103CE0000DE008F077FD9C4AA54B08F084FB00220C
:103CF000A44B08F027FC08F054FD80B20221FFF726
:103D000090FBA1A008F0E8FFA2A008F0E5FFB5F83D
:103D10000700FFF7DDFBAFF25C2008F0DDFFFEF7E8
:103D200030FC18E0A06CC1788279C2708171017991
:103D3000427902714171C179027AC271017209221C
:103D40000021FEF77BFEA18AA06C0A0A42728172F2
:103D50000B21FFF726FB002020710120A0715FE5F9
:103D60002DE9FC5F0220FFF7F2FC774CA084FFF7FF
:103D700035FB764D6083A08CB5F85410FEF7E9FA58
:103D8000A98D05F17B06084480B2A6F8070008F06B
:103D9000C3FC6F4908F0F1FAFFF7C0FB607ADFF867
:103DA000F891DFF8F8A1DFF8B8B1E8B32A8C698C94
:103DB000608BFFF728FB0090A06D08F00BFD074615
:103DC0008846E88D08F0A8FC0190009808F0A4FC53
:103DD000019908F0A0FA08F0FDFC02460B4600200D
:103DE0006F4908F021FC3A46434608F0A5FB074618
:103DF0008846606D08F0EEFC3A46434608F0A2FBA8
:103E00004A46534608F0F7FA02460B460020594648
:103E100008F00AFC08F0F1FCC6F80300A88C618BDE
:103E2000643088424FD200E005E000210220FCF718
:103E3000ADFF002041E06A8D298D608BFFF7E3FA2A
:103E40000090A06D08F0C6FC07468846E88D08F093
:103E500063FC0190009808F05FFC019908F05BFAA0
:103E600008F0B8FC02460B4600203F4908F0DCFB96
:103E70003A46434608F060FB07468846606D08F006
:103E8000A9FC3A46434608F05DFB4A46534608F013
:103E9000B2FA02460B460020594608F0C5FB08F06E
:103EA000ACFCC6F80300E88C618B643888420ADDFC
:103EB00001210220FCF76AFF01206072BDE8FC5F6F
:103EC000C820FEF7A8BABDE8FC9F70B51E4CE0788C
:103ED00000286CD033A008F0FFFE1C4D8735D5F8C4
:103EE0000300B0F1804F0EDA08F074FC214A224B37
:103EF00008F081FA0022214B08F024FB08F051FC65
:103F000080B201210DE008F065FC134A1C4B08F05B
:103F100072FA00221B4B08F015FB08F042FC80B23D
:103F20000221FFF77EFA18A008F0D6FE1EA008F0C6
:103F3000D3FEB5F80700FFF7CBFAAFF2804008F0E8
:103F4000CBFEFEF71EFB4BE0300000200E1E0020D3
:103F5000000020410000C8417B14AE47E17A943F45
:103F60000000F03F00007A4480842E41006AF8404F
:103F700043333D00FCA9F1D24D62403F00408F40E9
:103F8000E17A743F000059404DEFBFBDEFBFBD2A3D
:103F9000636D200054333D00535C55F65D11AC3F1A
:103FA000D012634143343D0054343D00FFE7E06CE0
:103FB000C1788279C270817101794279027141714F
:103FC000C179027AC271017209220021FEF736FD21
:103FD000A18AE06C0A0A427281720B21FFF7E1F9B3
:103FE000002020710120A0711AE42DE9FC5F03205C
:103FF000FFF7ADFBFE4CE084FFF7F7F9FD4DA08322
:10400000E08CB5F85610FEF7A4F9A98F05F18706E4
:10401000084480B2A6F8070008F07EFBF64908F0D5
:10402000ACF9FFF77BFAA07ADFF8D093DFF8D0A3E2
:10403000DFF8D0B3F0B32A8E698EA08BFFF7E3F9D7
:104040000090A06D08F0C6FB07468846E88F08F090
:1040500063FB0190009808F05FFB019908F05BF9A1
:1040600008F0B8FB02460B460020E74908F0DCFAEE
:104070003A46434608F060FA07468846606D08F005
:10408000A9FB3A46434608F05DFA4A46534608F013
:10409000B2F902460B460020594608F0C5FA08F06E
:1040A000ACFBC6F80300A88EA18B643088424FD2C7
:1040B000002100E004E00320FCF768FE002041E05E
:1040C0006A8F298FA08BFFF79EF90090A06D08F0F2
:1040D00081FB07468846E88F08F01EFB0190009898
:1040E00008F01AFB019908F016F908F073FB024674
:1040F0000B460020C54908F097FA3A46434608F0B7
:104100001BFA07468846606D08F064FB3A46434652
:1041100008F018FA4A46534608F06DF902460B4675
:104120000020594608F080FA08F067FBC6F8030043
:10413000E88EA18B643888420ADD01210320FCF758
:1041400025FE0120A072BDE8FC5FC820FEF763B920
:10415000B9E670B5A64CE078002839D0ACA008F0DC
:10416000BBFDA44D9335D5F80300B0F1804F0EDAB6
:1041700008F030FBA74AA84B08F03DF90022A74BF6
:1041800008F0E0F908F00DFB80B201210DE008F025
:1041900021FBA34AA34B08F02EF90022A24B08F002
:1041A000D1F908F0FEFA80B20221FFF73AF99FA098
:1041B00008F092FDA1A008F08FFDB5F80700FFF709
:1041C00087F9AFF2087008F087FDFEF7DAF918E01A
:1041D000206DC1788279C270817101794279027152
:1041E0004171C179027AC271017209220021FEF780
:1041F00025FCA18A206D0A0A427281720B21FFF709
:10420000D0F8002020710120A0719EE42DE9FC5F10
:104210000420FFF79CFA764C2085FFF7EDF8754DEA
:10422000E083208DB5F85810FEF793F8B5F84C10E0
:1042300005F19306084480B2A6F8070008F06CFA6E
:104240006D4908F09AF8FFF769F9E07ADFF8AC9168
:10425000DFF8ACA1DFF8ACB1F0B335F8402FE08B5C
:104260006988FFF7D0F80090A06D08F0B3FA074610
:104270008846E88908F050FA0190009808F04CFA56
:10428000019908F048F808F0A5FA02460B4600200C
:104290005D4908F0C9F93A46434608F04DF907462A
:1042A0008846606D08F096FA3A46434608F04AF9A7
:1042B0004A46534608F09FF802460B4600205946EE
:1042C00008F0B2F908F099FAC6F80300A888E18B63
:1042D0006430884252D200E005E000210420FCF75F
:1042E00055FD002044E0B5F84A20B5F84810E08BB1
:1042F0004635FFF788F80090A06D08F06BFA074686
:104300008846288908F008FA0190009808F004FA15
:10431000019908F000F808F05DFA02460B4600200B
:104320003A4908F081F93A46434608F005F907464C
:104330008846606D08F04EFA3A46434608F002F9A6
:104340004A46534608F057F802460B4600205946A5
:1043500008F06AF908F051FAC6F803002888E18BE2
:10436000643888420ADD01210420FCF70FFD01209A
:10437000E072BDE8FC5FC820FEF74DB8A3E510B5BC
:104380001B4C0D220021E06AFEF758FBA18AE06A6F
:104390000A0A42738173BDE810400F21FFF701B88C
:1043A0002DE9F84F0020FFF7D2F9114E3084FFF7C6
:1043B00007F8104DF082308CB5F85010FDF7C9FFAA
:1043C000A98905F19F040844A4F80B00F08AA4F819
:1043D0000700317B084E1A4FDFF84480DFF8649005
:1043E000DFF820A0DFF860B081B32A8869882EE06A
:1043F000300000200E1E002000002041535C55F6C6
:104400005D11AC3F0000F03FD012634180842E412B
:1044100043353D00FCA9F1D24D62403F00408F4042
:104420007B14AE47E17A743F000059404DEFBFBDA9
:10443000EFBFBD2A636D20200000000054353D0011
:104440000000C841E17A943F00007A442AE0FEF778
:10445000DAFF0090B4F80B0008F05EF9314607F07F
:104460008CFF394607F051FF08F0B4F942464B463D
:1044700008F068F80022534607F0BDFF06460F46D5
:10448000009808F049F98046E88908F045F959464E
:1044900007F073FF414607F070FF08F09BF9002218
:1044A000FE4B2BE06A892989FEF7ADFF0090B4F836
:1044B0000B0008F031F9314607F05FFF394607F08D
:1044C00024FF08F087F942464B4608F03BF80022EB
:1044D000534607F090FF06460F46009808F01CF977
:1044E0008046E88908F018F9594607F046FF41462A
:1044F00007F043FF08F06EF90022E94B08F022F8BC
:1045000032463B4608F090F808F077F9C4F803000B
:104510000098A4F80900BDE8F88F10B5E14C0D2211
:104520000021206BFEF78AFAA18A206B0A0A4273E7
:104530008173BDE810400F21FEF733BF2DE9F84F1E
:104540000120FFF704F9D74E7084FEF740FFD64DE7
:104550003083708CB5F85210FDF7FBFEA98B05F186
:10456000AF040844A4F80B00308BA4F80700317B9B
:10457000CE4ECF4FDFF83C83DFF83C93DFF83CA30F
:10458000DFF83CB361B32A8A698AFEF73CFF0090EA
:10459000B4F80B0008F0C0F8314607F0EEFE3946DB
:1045A00007F0B3FE08F016F942464B4607F0CAFF83
:1045B0000022534607F01FFF06460F46009808F0FA
:1045C000ABF88046E88B08F0A7F8594607F0D5FE0F
:1045D000414607F0D2FE08F0FDF80022B94B2BE06F
:1045E0006A8B298BFEF70FFF0090B4F80B0008F0E0
:1045F00093F8314607F0C1FE394607F086FE08F011
:10460000E9F842464B4607F09DFF0022534607F06B
:10461000F2FE06460F46009808F07EF88046E88BCA
:1046200008F07AF8594607F0A8FE414607F0A5FEC3
:1046300008F0D0F80022A44B07F084FF32463B4636
:1046400007F0F2FF08F0D9F8C4F803000098A4F8C6
:10465000090060E710B5934C0D220021606BFEF756
:10466000EDF9A18A606B0A0A42738173BDE81040BC
:104670000F21FEF796BE2DE9F84F0220FFF767F8ED
:10468000884CA084FEF7AAFE874E6083A08CB6F803
:104690005410FDF75EFEB18D06F1BF05084480B2EF
:1046A000A5F80B0008F038F8804907F066FEFEF721
:1046B00035FF608BA5F80700217BDFF81092DFF84B
:1046C00010A2DFF8F8B1E1B1328C718CA046FEF790
:1046D0009AFE0090D8F8580008F07CF804460F467F
:1046E000F08D08F019F80646009808F015F83146E4
:1046F00007F011FE08F06EF802460B4600206849EC
:104700001BE0728D318DA046FEF77DFE0090D8F83B
:10471000580008F05FF804460F46F08D07F0FCFFE4
:104720000646009807F0F8FF314607F0F4FD08F060
:1047300051F802460B460020624907F075FF2246F9
:104740003B4607F0F9FE04460E46D8F8540008F040
:1047500041F82246334607F0F5FE4A46534607F035
:104760004AFE02460B460020594607F05DFF08F05E
:1047700044F8C5F803000098A5F80900CBE610B589
:10478000484C0D220021A06BFEF758F9A18AA06BBE
:104790000A0A42738173BDE810400F21FEF701BE83
:1047A0002DE9F84F0320FEF7D2FF3E4CE084FEF7E0
:1047B0001CFE3D4EA083E08CB6F85610FDF7C9FDF7
:1047C000B18F06F1CF05084480B2A5F80B0007F0C1
:1047D000A3FF364907F0D1FDFEF7A0FEA08BA5F898
:1047E0000700217BDFF8E490DFF8E4A0DFF8CCB02D
:1047F000E1B1328E718EA046FEF705FE0090D8F82A
:10480000580007F0E7FF04460F46F08F07F084FFDB
:104810000646009807F080FF314607F07CFD07F060
:10482000D9FF02460B4600201D491BE0728F318FD5
:10483000A046FEF7E8FD0090D8F8580007F0CAFF40
:1048400004460F46F08F07F067FF0646009807F012
:1048500063FF314607F05FFD07F0BCFF02460B46E1
:104860000020184907F0E0FE22463B4607F064FEB0
:1048700004460E46D8F8540007F0ACFF22463346F3
:1048800007F060FE4A46534607F0B5FD02460B4668
:104890000020594607F0C8FE1CE0000084D797416D
:1048A000D0126341300000200E1E00200000204185
:1048B0000000C8417B14AE47E17A943F0000F03F0E
:1048C00000007A4480842E41006AF840535C55F61B
:1048D0005D11AC3F07F091FFC5F803000098A5F803
:1048E000090018E610B5F94C0D220021E06BFEF727
:1048F000A5F8A18AE06B0A0A42738173BDE81040F3
:104900000F21FEF74EBD2DE9F84F0320FEF71FFFE4
:10491000EE4C2085FEF770FDED4EE083208DB6F85D
:104920005810FDF716FDB6F84C1006F1DF050844E7
:1049300080B2A5F80B0007F0EFFEE64907F01DFD79
:10494000FEF7ECFDE08BA5F80700217BDFF88893EC
:10495000DFF888A3DFF888B3E9B136F8402FA04626
:104960007188FEF750FD0090D8F8580007F032FF2C
:1049700004460F46F08907F0CFFE0646009807F080
:10498000CBFE314607F0C7FC07F024FF02460B467A
:104990000020D4491EE0B6F84A20B6F84810A046D8
:1049A0003E36FEF730FD0090D8F8580007F012FFB1
:1049B00004460F46308807F0AFFE0646009807F021
:1049C000ABFE314607F0A7FC07F004FF02460B469A
:1049D0000020C54907F028FE22463B4607F0ACFD03
:1049E00004460E46D8F8540007F0F4FE224633463B
:1049F00007F0A8FD4A46534607F0FDFC02460B4669
:104A00000020594607F010FE07F0F7FEC5F8030036
:104A10000098A5F809007EE513460A461946FBF7FB
:104A2000EBBF10B5AA4A5A21B020FBF7EFFF5A217D
:104A3000BDE81040A64AB120FBF7DEBF10B5A44A7E
:104A40005A21B120FBF7E2FF002806D15A21BDE828
:104A500010409F4AB020FBF7CFBF10BD70B59B48F8
:104A6000C17879B14078262803D0272803D09FA0A9
:104A700002E09FA000E0A0A008F02EF9BDE8704081
:104A8000FDF77FBD924D00240A3D285DFDF718FD1E
:104A9000641CE4B2082CF8D370BD2DE9F0438C4BB4
:104AA000C121C222C326C427884D4FF0C50903F196
:104AB0005A04152861D2DFE800F0600B0E111417BC
:104AC0001B222930373F4245484B4E5154575C001A
:104AD0002170E88A51E02270288B4EE02670688BA6
:104AE0004BE02770A88B48E084F80090E88B44E006
:104AF0002170288CFEF75AFCA3F850003DE022708C
:104B0000688CFEF753FCA3F8520036E02670A88CA0
:104B1000FEF74CFCA3F854002FE02770E88CFEF75A
:104B200045FCA3F8560028E084F80090288DFEF795
:104B30003DFCA3F8580020E02170D8891DE02170C9
:104B400098891AE02270D88B17E02270988B14E0B5
:104B50002670D88D11E02670988D0EE02770D88FC2
:104B60000BE02770988F08E084F80090B3F84E00AF
:104B700003E084F80090B3F84C0002216170A1704A
:104B8000010AE17020715248052200215A30FDF7D8
:104B900055FFA88A010A6171A071BDE8F08370B564
:104BA0004A4CE178002971D0494D2E2821D2DFE806
:104BB00000F02017192326292C2F3134373A3D4392
:104BC00046494C4F52585B5E6164676E71747679EA
:104BD0007C82ADB6C0CAD4D9DEE3E8F2F7FCEEEDD4
:104BE000474801E04648083008F076F8E08AFDF7CB
:104BF0006FFCFDF7CEFC0BE141481030F4E7404874
:104C00001830F1E73E482030EEE73D482830EBE72A
:104C10003C480DE03B4808300AE03A48103007E0D5
:104C20003848183004E03748203001E03548283053
:104C300008F052F8208BDAE7324850300DE0314866
:104C400058300AE02F48603007E02E48683004E012
:104C50002C48703001E02B48783008F03DF8608B2C
:104C6000C5E72848A0300DE02648A8300AE02548CE
:104C7000B03007E02348B83004E02248C03001E0FB
:104C80002048C83008F028F8A08BB0E79EE01D4807
:104C9000F0300CE01B48F83009E01B4807E01A48E8
:104CA000083004E01848103001E01748183008F0C8
:104CB00013F8E08B9BE71248303008F00DF8208C99
:104CC000FEF774FBA5F8500091E7000030000020CB
:104CD0000E1E002000002041535C55F65D11AC3FD4
:104CE0000000F03FD012634180842E41454E5400B5
:104CF0006261636B757000007265636F7665720048
:104D000044270008802B0008802C0008FE4807F08C
:104D1000E3FF608CFEF74AFBA5F8520067E7FA480C
:104D2000503007F0D9FFA08CFEF740FBA5F85400E7
:104D30005DE7F548A03007F0CFFFE08CFEF736FBCB
:104D4000A5F8560053E7F048F03007F0C5FF208D76
:104D5000FEF72CFBA5F8580049E7ECA007F0BCFFD4
:104D6000E88944E7EBA007F0B7FFA8893FE7EBA08D
:104D700007F0B2FFE88B3AE7EAA007F0ADFFA88B97
:104D800035E7EAA007F0A8FFE88D30E718E011E06A
:104D90000BE005E0FFE7E7A007F09EFFA88D26E700
:104DA000E6A007F099FFE88F21E7E6A007F094FF5F
:104DB000A88F1CE7E5A007F08FFFB5F84E0016E7B7
:104DC000E4A007F089FFB5F84C0010E72E281BD2AD
:104DD000DFE800F01A1717171717172323232323C9
:104DE000232525252525252727272727272929295D
:104DF0002929292B2D2F31333537393B3D3F41436D
:104E000045470120FFF749FE0721D448FEF7C9FABC
:104E1000002020710120A07170BD0220F2E7032064
:104E2000F0E70420EEE70520ECE70620EAE707209C
:104E3000E8E70820E6E70920E4E70A20E2E70B209C
:104E4000E0E70C20DEE70D20DCE70E20DAE70F209C
:104E5000D8E71020D6E71120D4E71220D2E713209C
:104E6000D0E71420CEE72DE9F04105460C4601209D
:104E7000FCF774F8B94822462946643807F07EF9F1
:104E8000B64A4CF20235643A002650781178012770
:104E900000EB0120411BB24C4FF48073A84276D046
:104EA0001CDC4CF20315A0EB0501A84270D007DC16
:104EB000A0F10300B0F540405AD0FF2831D168E09E
:104EC000FF297BD099422CD106210020FDF7C6FD99
:104ED00038B3A6712771FEF70BF822E040F20115F6
:104EE000A1F20110A9426AD00EDC012968D09942D2
:104EF00017D15079117900EB012002287ED00628C5
:104F00007CD00A287AD00CE0FF2878D0984208D1CB
:104F100006210020FDF7A2FD18B1A6712771FEF74A
:104F200019FA20780C25401F3F2869D2DFE800F0ED
:104F3000EBEAE9E8E7686868E6E5E4E3E2E1E0DF98
:104F4000DEDD68DCDBDAD9D8D7D6D5D468D3D2D1C8
:104F5000D0CFCECDCCCB68CAC9C8C7C6C5C4C3C222
:104F600068C1C0BFBEBDBCBBBAB9B8B7B6B5B400A6
:104F70005079117910EB012072D10621FDF76EFDF9
:104F80000028CED0A6712771FDF77DFDC9E73CE072
:104F900017E05079117900EB0120022803D0062890
:104FA00001D00A28BDD106210020FDF757FD0028B9
:104FB000B7D0A6712771FDF793FDB2E70CE050E082
:104FC00038E006210020FDF749FD0028A9D0A67190
:104FD0002771FDF7D3FEA4E75079117900EB01208A
:104FE000022803D0062801D00A289AD106210020E1
:104FF000FDF734FD002894D0A67102E025E03BE0E7
:10500000C3E02771FDF7DEFE8BE75079117900EBE5
:105010000120022803D0062801D00A2881D10621C8
:105020000020FDF71BFD0028B0D0A6712771FDF709
:1050300083FF76E706210020FDF710FD0028A5D0AC
:10504000A6712771FEF70FF86BE706210020FDF728
:1050500005FD00289AD0A6712771FEF728F860E7B1
:1050600006E106210020FDF7F9FC00288ED0A6718C
:105070002771FEF7B6F854E75079117900EB01205B
:10508000022803D0062801D00A2896D10621002044
:10509000FDF7E4FC002865E0A3E19DE197E191E1E3
:1050A0008BE146E16CE16DE13EE138E132E12CE17A
:1050B00026E120E115E11AE11BE10DE107E101E143
:1050C000FBE0F5E0EFE0E4E0E9E0EAE0DCE0D6E098
:1050D000D0E0C8E0C2E0BCE0B1E0B6E0B7E0A9E0F3
:1050E000A3E09DE097E091E08BE080E085E086E042
:1050F00078E072E06CE066E040E03AE076E157E1AB
:1051000051E14BE145E13FE1B02B00084331434E13
:10511000543D000043314F46533D00004332434E5F
:10512000543D000043324F46533D00004333434E4D
:10513000543D000043334F46533D00004334434E3B
:10514000543D000043344F46533D00004335434E29
:10515000543D000043354F46533D0000681E00207B
:10516000300000203FF429AFA6712771FEF75DF8EB
:10517000D7E6FEF725F9E082012003E0FEF720F9EB
:10518000E0820220FFF70BFD2570A07800286FD089
:105190006178FE482A296CD2DFE801F06BF1F0EF6C
:1051A000EEEDECEBEAE9E8E7E6E5E4E3E2E1E0DF97
:1051B000DEDDDCDBDAD9D8D7D6D5D46B6B6B6B6B85
:1051C0006B6BD3D26BD1FEF7FBF8E0820320D9E7FB
:1051D000FEF7F6F8E0820420D4E7FEF7F1F8E0826B
:1051E0000520CFE7FEF7ECF8E0820620CAE70020B2
:1051F000FEF7ADFA20841F20C4E72420C2E7252053
:10520000C0E7FEF7E4F820830720BBE7FEF7DFF8EE
:1052100020830820B6E7FEF7DAF820830920B1E7FB
:10522000FEF7D5F820830A20ACE7FEF7D0F82083FC
:105230000B20A7E7FEF7CBF820830C20A2E7012084
:10524000FEF785FA608420209CE726209AE7272035
:1052500098E7FEF7C3F860830D2093E7FEF7BEF8EA
:1052600060830E208EE7FEF7B9F860830F2089E790
:1052700033E12DE1FEF7B2F86083102082E7FEF7FC
:10528000ADF8608311207DE7FEF7A8F86083122057
:1052900078E70220FEF75BFAA084212072E728203D
:1052A00070E729206EE7FEF7A0F8A083132069E7D6
:1052B000FEF79BF8A083142064E7FEF796F8A0831E
:1052C00015205FE7FEF791F8A08316205AE7FEF756
:1052D0008CF8A083172055E7FEF787F8A0831820E5
:1052E00050E70320FEF733FAE08422204AE72A2021
:1052F00048E72B2046E7FEF77FF8E083192041E7D7
:10530000FEF77AF8E0831A203CE7FEF775F8E083B1
:105310001B2037E7FEF770F8E0831C2032E7FEF72A
:105320006BF8E0831D202DE7FEF766F8E0831E2072
:1053300028E70420FEF70BFA2085232022E7C0E0AF
:10534000BCE0B8E0B3E0AEE0A9E0A4E09FE09AE002
:1053500096E092E08EE08AE086E082E07EE07AE00D
:1053600076E072E06EE06AE066E062E05EE05AE0FD
:1053700056E052E04EE04AE046E042E03EE03AE0ED
:105380002C20FFE62D20FDE6FEF74BFAFEF7E1F9B3
:10539000FAE6FEF7DBFBFEF7F6FAF5E6FEF7E0FCD1
:1053A000FEF781FCF0E6FEF720FEFEF78EFDEBE651
:1053B000FEF72CFFFEF7CDFEE6E6FEF7F1FFFEF767
:1053C000DEFFE1E6FFF7BAF8FFF7A7F8DCE6FFF744
:1053D00052F9FFF73FF9D7E6FFF7E2F9FFF7CFF908
:1053E000D2E6FFF790FAFFF77DFACDE65A2167483B
:1053F000FDF74AF9C8E6E18A018069E0E18A418067
:1054000066E0E18A818063E0E18AC18060E0E18A50
:1054100001815DE0E18A41815AE0218B018257E000
:10542000218B418254E0218B818251E0218BC1820A
:105430004EE0218B01834BE0218B418348E0618B5F
:10544000018445E0618B418442E0618B81843FE0CF
:10545000618BC1843CE0618B018539E0618B4185C2
:1054600036E0A18B018633E0A18B418630E0A18B31
:1054700081862DE0A18BC1862AE0A18B018727E0E0
:10548000A18B418724E0E18BA0F8401020E0E18B64
:10549000A0F842101CE0E18BA0F8441018E0E18B6A
:1054A000A0F8461014E0E18BA0F8481010E0E18B62
:1054B000A0F84A100CE0FFF7B4FA09E0FFF7BEFAD3
:1054C00006E05A223149B020FFF7A6FA1F2060708B
:1054D000FFF7C4FA2671A771A670BDE8F0817CB50C
:1054E00004468079082819D1062104F108000D46E8
:1054F0000646FCF796FFA17BB1EB102F03D1E27BB0
:10550000C1B291420BD0E18921A349BACDE9000192
:1055100040F6CB2223A1042002F08CFC7CBD29465E
:105520003046BDE87C409EE48068002800D00047FB
:10553000704740F6B8310120FBF709BE2DE9F04174
:105540001D481F21012441700C2101700021817030
:10555000C170017141718171C471047244728472AD
:10556000C47201210420FBF711FC01210320FBF789
:105570000DFC01210220FBF709FC01210846FBF785
:1055800005FC01210020FBF701FC17E00E1E0020A6
:105590006D69746620637263206661696C2025788A
:1055A0002C257800536F757263655C4150505C6DBB
:1055B0006F646275732E6300300000200F4A5A2119
:1055C000B020FBF723FA18B15A210C4806F0EFFD82
:1055D000FEF786F80A4E0B4DAFF2FD0704EB041000
:1055E00000EBC41005EB8000C0E98D672046FBF797
:1055F00022FD641CE4B2022CF0D96EE70E1E0020DE
:1056000071240008F012002010B5012000F075FB95
:10561000BDE81040002000F070BB1F4908607047D3
:105620001D49091F086070471B4984310860704795
:105630001A4A118821F46071014311807047174A9A
:10564000118821F07F01014311807047134A08B58A
:105650002C3A10440090016008BD104908B52C395F
:1056600008440090008808BD0B489C300068C0B218
:1056700070470A480830018841F0010101807047F5
:105680000548A0300068C0B270470448083001885F
:1056900041F002010180704704860D422C6C0040ED
:1056A000374900200860091D0860091D0860091DB0
:1056B00008603349334814310860704730B5304AC8
:1056C0008379016853B313688B431360111D0B6812
:1056D0000468A3430B60017911440B6804682343F9
:1056E0000B60274B083319680468A14319601C1D1F
:1056F00021680568A94321604179102905D011442A
:105700000A68006802430A6030BD196802681143E4
:105710001960216800680143216030BD00791044A0
:1057200002688A43026030BD0021016001710C22D1
:10573000427181717047124910310A6802430A6050
:10574000704701460E4A0020143212680A4200D007
:10575000012070470A49143108607047084A014621
:1057600000201268064B0A4014331B680B4202D01B
:10577000002A00D0012070470149143108607047A9
:1057800000040140FFFF0F008F4910B5884206D189
:105790000121042000F09FFA002104203BE08B4906
:1057A000884206D10121082000F095FA0021082046
:1057B00031E08749884206D10121102000F08BFAA0
:1057C0000021102027E08349884206D101212020B2
:1057D00000F081FA002120201DE07F49884206D197
:1057E0000121402000F077FA0021402013E07B499E
:1057F000884206D10121802000F06DFA002180202E
:1058000009E0774988420AD184150121204600F039
:1058100062FA00212046BDE8104000F05CBA10BDDD
:1058200010B50121084600F056FA0021BDE81040ED
:10583000012000F050BAF0B5CC78002204F00F033C
:10584000E40601D58C7823430C784FF00F0C14F04C
:10585000FF0F4FF0010E1BD005680E880EFA02F400
:105860002640A64210D196000CFA06F725EA070753
:1058700003FA06F5CE783D43282E02D0482E02D0FA
:1058800002E0446100E00461521C082AE5D305608F
:105890000A88FF2A1CD94468002202F108060EFA81
:1058A00006F50E882E40AE420ED196000CFA06F791
:1058B000BC4303FA06F7CE783C43282E00D145615D
:1058C000CE78482E00D10561521C082AE5D34460E9
:1058D000F0BD4FF6FF710180022181700421C1707B
:1058E00070470246002092680A4200D001207047AB
:1058F000806880B2704702460020D2680A4200D019
:1059000001207047C06880B27047016170474161F3
:1059100070470AB10161704741617047C1607047CB
:1059200041F480328261816182618169806970475E
:105930002C4B10B51A684FF68074224042EA0010D2
:105940000843186010BD2849C8617047F0B5254C60
:10595000002801DAE36900E06368450D2E0185B295
:10596000C0F30157B540C0F30342032F05D0C60270
:105970000AD503269640B34307E023F070626368BC
:1059800023F07063636002E0AB4343F0706201B1E7
:105990002A43002801DAE261F0BD6260F0BD10B573
:1059A0008A0721F003040F49120F21440F238C684A
:1059B00093409C438C608B68904003438B6010BD88
:1059C0000949C1F8DC00704700080140000C0140A3
:1059D000001001400014014000180140001C01406B
:1059E00000200140000001400000204210B50121CC
:1059F0000C07204600F078F92046BDE81040002151
:105A000000F072B921490862704720490861704767
:105A10001F4A116821F0E0010143116070471B49E2
:105A2000C1F8A00070471A4B1A6822F00302024323
:105A30001A601848026842F004020260012905D089
:105A400020BF016821F004010160704730BFF8E712
:105A50000F48016841F004010160016841F0020152
:105A600001600C48016841F00401016030BF7047DB
:105A7000074A0146002052680A4200D001207047C0
:105A800003490A6842EA80000860704700000E423D
:105A90000070004010ED00E0A548016841F00101F0
:105AA00001604168A34A114041600168A24A114067
:105AB0000160016821F480210160416821F4FE0148
:105AC00041604FF41F018160704799490A6822F4D0
:105AD00080320A600A6822F480220A60B0F5803FB2
