:020000040800F2
:10000000C8430020AD780008F1030008F30300089E
:10001000F5030008F7030008F903000800000000DA
:10002000000000000000000000000000FB030008CA
:10003000FD03000800000000639F0008FF030008A4
:10004000C7780008C7780008C7780008C778000894
:10005000C7780008C7780008CF070008FD07000828
:100060000F08000821080008330800086708000886
:10007000C7780008C7780008C7780008C778000864
:10008000C7780008C778000845080008270400085A
:10009000290400082B0400082D040008BF060008EE
:1000A000C7780008C7780008C77800082B05000843
:1000B00063050008D70500084B060008C77800084C
:1000C000C7780008C7780008C7780008250400082A
:1000D00023040008FF040008230500082705000882
:1000E00035070008C7780008C7780008C7780008F7
:1000F000C7780008C7780008C7780008C7780008E4
:10010000C7780008C7780008C7780008C7780008D3
:10011000C7780008C7780008C7780008C7780008C3
:10012000C7780008C7780008C7780008C7780008B3
:10013000DFF80CD00CF042FD004800473F030008F8
:10014000C84300207047704708F01DBC70477047D7
:1001500070478F4A10B51068401C10600A2819D1EA
:10016000002010605068401C6421B0FBF1F3506027
:1001700001FB130010B99068401C906007F0C2FCAE
:1001800009F0FCF90024204601F05AF9641CE4B29D
:10019000032CF8D310BD7E49496808448142FDDB39
:1001A000704710B500F014FF01F00EFFBDE81040DD
:1001B00005F0CEB910B5807830B101280ED00228F4
:1001C00009D003280AD102E0FFF7EBFF06E0002088
:1001D00000F0BAFE02E0002000F0D8FE002010BDC2
:1001E00010B56C4A00216C4C1170C07820706B48BF
:1001F00000684078092809D00D280AD001F049FD8F
:1002000010B1207801F054FD002010BD01F096FCE3
:10021000F6E701F0E6FCF3E708B520208DF80000D2
:1002200000208DF80100684607F0B5FE08BD10B546
:1002300005F07DFD042007F024FE08F01DF901F013
:100240003BFA01F0EFFD09F0F8FB30B154A340F2A6
:100250006D1257A1002007F0FDFD00F02AFC00F010
:10026000A3FD00F03BFE00F0A0FE002000F0A9FE80
:1002700000F05EFE00F088FE07F032FE514801F00B
:1002800021FE01F0CAFF05F068F908F063FB4FF6A4
:10029000FF74234664220221002007F002FC23465B
:1002A0001E220221012007F0FCFBBDE810400120C6
:1002B00000F054BE10B5807808B9FFF7B8FF0020F1
:1002C00010BD0020704710B500210A2007F005FD81
:1002D000002805D000218170BDE8104007F014BD52
:1002E00010BD0178C91E09290DD2DFE801F005060D
:1002F0000C0C0C0C0A0809005CE701F0A3B9D9E763
:100300006EE701F02FBE00207047EAE708B508F05D
:10031000BDFAAFF209034FF400722B49032007F036
:100320001EFD6A4629A103200AF06FFDFFF7CBFFEF
:1003300000226423114610460AF0D1FEF8E700B50A
:1003400087B009F041FE00214FF0006007F08AFA03
:100350004FF4A06007F052FA09F0D3FE1E480DF1E9
:10036000040C0323002280218CE80F0006200346A2
:1003700000901A4A00211A480AF0EFFB05AA19A1B9
:1003800006200AF042FD09F0BFFF07B0002000BDC3
:100390000000002021000020220000208CDF000847
:1003A000496E697420534E56204572726F72000078
:1003B000536F757263655C4150505C6170702E6361
:1003C0000000000020A10700180400204D61696EA4
:1003D0002D5461736B000000180C0020140E0020D7
:1003E0000D030008526F6F742D5461736B00000091
:1003F0007047FEE7FEE7FEE7FEE77047704710B57F
:1004000009F08EFDF649097819B1F6490A78521CAF
:100410000A7009F089FD09F08AFFBDE8104009F073
:1004200003BF704770477047704770477047F8B513
:10043000054600EB051000EBC511EB4800EB81040D
:1004400040F22551D4F8140207F0A8F950B1D4F8BD
:10045000140207F03CF98DF80000E8B20122694669
:1004600000F00DFF40F227773946D4F8140207F068
:1004700095F940F2266620B3B4F80012B4F80202EF
:10048000814204D100223946D4F8140217E0015DFC
:10049000D4F8140207F017F994F80202401C00F097
:1004A0007F00A4F8020294F82012002926D1B4F8A3
:1004B0000012814209D101223146D4F8140207F01A
:1004C000B6F894F82002002818D13146D4F8140266
:1004D00007F064F9002811D0B4F80002B4F8021251
:1004E00088420BD1E8B2002100F015FE3146D4F865
:1004F0001402BDE8F840002207F099B8F8BD10B525
:10050000BA4C40F22551204607F048F9002807D0A0
:10051000204607F0DCF8BDE81040C0B201F003B996
:1005200010BD012083E7022081E710B5B04C022105
:10053000204606F03FFA002812D00221204606F09D
:1005400045FA204606F01FFA00F57A7081B220467F
:1005500006F008FA0221BDE81040032008F06FBF42
:1005600010BD10B501218C07204606F023FA38B1E2
:100570000121204606F02AFA0121002008F05FFF41
:100580000221204606F016FA38B10221204606F074
:100590001DFA0221002008F052FF0421204606F037
:1005A00009FA38B10421204606F010FA042100208F
:1005B00008F045FF0821204606F0FCF9002809D084
:1005C0000821204606F002FA0821BDE8104000206C
:1005D00008F035BF10BD10B5864C0121204606F04D
:1005E000E9F938B10121204606F0F0F90121084669
:1005F00008F025FF0221204606F0DCF938B102217F
:10060000204606F0E3F90221012008F018FF04213A
:10061000204606F0CFF938B10421204606F0D6F97D
:100620000421012008F00BFF0821204606F0C2F942
:10063000002809D00821204606F0C8F90821BDE8A5
:100640001040012008F0FBBE10BD10B56A4C01211E
:10065000204606F0AFF938B10121204606F0B6F980
:100660000121022008F0EBFE0221204606F0A2F94B
:1006700038B10221204606F0A9F90221084608F007
:10068000DEFE0421204606F095F938B1042120460B
:1006900006F09CF90421022008F0D1FE0821204632
:1006A00006F088F9002809D00821204606F08EF9C6
:1006B0000821BDE81040022008F0C1BE10BD10B5F1
:1006C000202005F05BF828B1202005F065F8052012
:1006D00007F09DFE402005F051F828B1402005F0BC
:1006E0005BF8062007F093FE802005F047F828B15C
:1006F000802005F051F8072007F089FE4FF4807440
:10070000204605F03BF828B1204605F045F80820C2
:1007100007F07DFE4FF40074204605F02FF8002806
:1007200007D0204605F038F8BDE81040092007F052
:100730006EBE10BD10B54FF48064204605F01EF863
:1007400028B1204605F028F80A2007F060FE4FF493
:100750000064204605F012F828B1204605F01CF888
:100760000B2007F054FE4FF48054204605F006F8A5
:1007700028B1204605F010F80C2007F048FE4FF491
:100780000054204604F0FAFF28B1204605F004F892
:100790000D2007F03CFE4FF48044204604F0EEFFAD
:1007A00028B1204604F0F8FF0E2007F030FE4FF489
:1007B0000044204604F0E2FF002807D0204604F061
:1007C000EBFFBDE810400F2007F021BE10BD10B5B3
:1007D000012004F0E1FFBDE81040002007F017BE43
:1007E000DD020020D8020020F01200200038014075
:1007F000002C0140000400400008004010B5022019
:1008000004F0CAFFBDE81040012007F000BE10B59B
:10081000042004F0C1FFBDE81040022007F0F7BD3E
:1008200010B5082004F0B8FFBDE81040032007F021
:10083000EEBD10B5102004F0AFFFBDE8104004205D
:1008400007F0E5BD70B53B4D4FF4087421462846CE
:1008500006F024FD002805D021462846BDE870405A
:1008600006F02ABD70BD344810B501214160816891
:1008700021F00101816000212E4806F0D9FB01F032
:1008800049FB0021092007F028FA002805D00021A3
:10089000C170BDE8104007F037BA10BD50F804BB76
:1008A00050F804AB50F8089B90E8F00050F8048C26
:1008B00022A00CF021FA594626A00CF01DFA514650
:1008C00027A00CF019FA494628A00CF015FA414669
:1008D00029A00CF011FA21462AA00CF00DFA2946A5
:1008E0002BA00CF009FA31462CA00CF005FA394681
:1008F0002DA00CF001FA2F4801682FA00CF0FCF994
:100900002C48103801682FA00CF0F6F929480C3853
:1009100001682FA00CF0F0F92648083801682FA0D4
:100920000CF0EAF92348001D01682FA00CF0E4F94F
:10093000FEE7000000240140000002405B486172B5
:1009400064206661756C742068616E646C65725DAC
:100950000A0000005230203D2025780A00000000E7
:100960005231203D2025780A000000005232203DFF
:100970002025780A000000005233203D2025780A07
:1009800000000000523132203D2025780A0000008E
:100990004C52203D2025780A000000005043203DA5
:1009A0002025780A00000000505352203D20257871
:1009B0000A00000038ED00E042464152203D20256B
:1009C000780A000043465352203D2025780A000053
:1009D00048465352203D2025780A00004446535291
:1009E000203D2025780A000041465352203D202515
:1009F000780A0000D648704710B5044609F027F879
:100A0000202C02D1D34A0121117010BD09F08DB8FC
:100A1000D148008870472DE9F04116460F4605463B
:100A200009F07EFA804606F08CF8284606F0C3F8F6
:100A3000002406E03959284606F061F9241DA4B2C5
:100A40002D1DB442F6D306F088F8404609F06CFA42
:100A50000020BDE8F0812DE9F041054607F093FF45
:100A6000BE4C2F684FF4207844F8227F6E68666091
:100A7000287ABB4D207242462946BA480BF08EFBBD
:100A8000B8488030076046602189018107F07BFF0C
:100A90004246B4492846FFF7BEFF0920D9E7AF49CF
:100AA00051F8222F02604A684260097A01720920D7
:100AB000704710B52221A9480BF089FBA64A0221F4
:100AC000212009F032F810B1A34900200880A34A80
:100AD0001021A02009F029F818B1A3A19F480BF01C
:100AE000ADFB9E4A102111321446A12009F01DF8D9
:100AF00018B19FA120460BF0A1FB974A0221921C3E
:100B0000202009F012F89649944880310A6840F88C
:100B1000222F4A6842600989018110BD70B5964B49
:100B20001C6822701D6809246C701C68A07018680D
:100B3000C01C0BF033FB91480078BDE8704001F019
:100B4000B7B810B5C11C182286480BF027FB192036
:100B500010BD844950F8032F80310A6042684A6012
:100B6000008908810B20704700210160192070471F
:100B7000802101600B2070472DE9F0471D46144687
:100B80008946074607F0FFFE754E4FF4207842462F
:100B9000314674480BF002FBB87820B1012809D027
:100BA000FF20BDE8F08749463846FFF7CAFF0246F6
:100BB000002006E0002249463846FFF7CAFF0246F9
:100BC000802000212170D021617066490144E01C21
:100BD0000BF0E4FA07F0D7FE424662493046FFF7D1
:100BE0001AFFA07808B900F0D1FA287821780844D3
:100BF000801C28700020D4E770B580781D4614460C
:100C000018B1012804D0FF2070BD0021192201E095
:100C100080210B22A070501C207010206070504862
:100C2000521E0144E01C0BF0B9FA287821780844E0
:100C3000801C2870002070BD10B5091FCAB210F8C2
:100C4000021F21B94378811C184600F006FB0020E2
:100C500010BD4C494A48086070471CB5C279847879
:100C60008179CDE9001243790279C17804F26C7080
:100C700007F008FF1CBD70B51D46144608F0BDF80E
:100C800006202070C12060703F480179A1F26C718C
:100C9000A1708179E170C179217101786171417828
:100CA000A1718078E07128780830287070BD70B527
:100CB000841C1D46807808F0AAF82A490120087093
:100CC000C2204870207888702878C01C287070BDB9
:100CD00070B5447800251646D12C15D008DCC02C00
:100CE0001DD0C12C20D0C22C23D0D02C2DD106E079
:100CF000F02C27D0F12C21D0FD2C26D10AE00A4679
:100D00003146FFF739FF03E00A463146FFF774FF2B
:100D100005461AE00A463146FFF78EFFF8E70A4615
:100D20003146FFF79AFF10E00A463146FFF7A3FF6E
:100D30000BE00A463146FFF7BAFF06E0012000F05B
:100D400027F902E0012000F009F9284670BDBFE74D
:100D5000F8DE0008280000200C00002018120020F7
:100D600000F40108180E002041444D494E000000D7
:100D7000383630383630000090DF0008220000207E
:100D80000400FA050CED00E0642400200B0051493A
:100D90000246A1F10500895C805C01D111B10021FE
:100DA00007F016BA0121FBE72DE9F041494E002476
:100DB000494D761F4FF40478305D414607F0DCF969
:100DC00005EB4410074620210BF001FAE0B20021A8
:100DD000FFF7DCFF3C70641C052CEDDBBDE8F08107
:100DE00010B504463B48401F005D07F0E4F908B128
:100DF000012100E000213748005D814201D101203E
:100E000010BD002010BD3349491F085C07F0EFB941
:100E100010B5044600780021FFF7B8FFE06900280C
:100E200002D0BDE81040004710BD7CB50D462A49F0
:100E300001EB40140121E261FFF7A8FF201DAFF292
:100E40002F03CDE900402A460021104608F05FFB41
:100E50007CBD10B504460078FFF7D5FFE069002897
:100E600002D0BDE81040004710BD7CB50D001A4906
:100E70004FF0000201EB4014E2610DD00121FFF7B9
:100E800085FF201DAFF23503CDE900402A46012140
:100E9000104608F03CFB7CBD0021FFF777FF201DCA
:100EA000BDE87C4008F003BB10B5002400212046BB
:100EB000FFF76CFF641CE4B2052CF7D310BD10B52E
:100EC000002401212046FFF761FF641CE4B2052CD9
:100ED000F7D310BD10DF00084412002070B50121C7
:100EE000114804F043FD01214FF0C05004F0FAFE18
:100EF000012004F097FD002004F086FE002004F09D
:100F000091FD0A4D00244FF41276285D314607F01A
:100F100033F9641C012CF8DB70BD044910B5085C82
:100F200007F049F9C0B210BD0004300015DF000819
:100F300010B54FF404710F2007F01EF90121BDE830
:100F400010400F2007F044B908B1002100E0012152
:100F50000F2007F03DB90F2007F049B910B5040084
:100F60000ED00120FFF7F0FF642044430A20B4FBB9
:100F7000F0F200230121BDE81040032006F091BDEE
:100F8000BDE810400020DFE77047704770477047AA
:100F9000002809D0642148430A21B0FBF1F2002364
:100FA0000121022006F07DBD704710B54FF4047199
:100FB0000E2007F0E1F80121BDE810400E2007F0F7
:100FC00007B908B1002100E001210E2007F000B9A7
:100FD0000E2007F00CB9000038B500EB001202EB50
:100FE000C012FC4800EB820494F8112291EA02003E
:100FF0000DD084F81112800709D5900708D5D4F8D0
:101000004002002803D06A46012109F0EFFB38BDF9
:101010008807FCD5D4F840020028F8D109F0FDFA81
:10102000C4F840020028F2D194F8110220F0020026
:1010300084F8110238BDF0B5054600EB051000EB51
:10104000C511E44885B000EB8104D4F834120029BE
:101050005FD028468847D4F81402002859D094F865
:1010600018028DF810000F208DF8110000268DF861
:10107000126001278DF8137004A804F5057406F0BA
:10108000C2FB20690090207DD34931F81000ADF8F3
:101090000400607D091D31F81000ADF80600A07D48
:1010A000891D31F81000ADF808000C20ADF80C6077
:1010B000ADF80A00207A694608F088FA2068012213
:1010C00040F22551A4F5057406F0B1FAC1480C3878
:1010D00050F8251051B994F8111240F8257084F891
:1010E00011722846C4F84062FFF776FF94F82B028D
:1010F000A4F8080294F8200200280AD194F83002DB
:101100004FF4447107F038F894F83002002107F0EA
:101110005FF805B0F0BD70B50D4600EB001101EBB6
:10112000C011AC4800EB810494F8200200280DD1D6
:1011300094F830020DB1012100E0002107F048F8D9
:1011400084F810520AF04EF8C4F80C0270BD70B565
:1011500004460E4600EB041000EBC4119D4800EB62
:10116000810595F8200200280FD195F8100200287B
:101170000BD00AF037F8D5F80C12401AB04204D35D
:101180002046BDE870400021C5E770BD10B50024C1
:10119000E0B2FFF750FF641C032CF9DB10BD2DE912
:1011A000F04115460F460246032819D202EB021001
:1011B00000EBC211874800EB8104B4F80202B4F8D6
:1011C0000012884201D1802007E0401A8030C11708
:1011D00000EB516121F07F01401A80B2A84202D297
:1011E0000020BDE8F081B5B301211046FFF793FF61
:1011F00008F096FE0646B4F80002B4F802128842DF
:1012000003D3C0F18002AA420ADD20442A463946AF
:101210000AF0C4FFB4F800022844A4F8000210E069
:10122000204439460AF0BAFFB4F80002C0F1800049
:10123000C119281A85B220462A460AF0AFFFA4F841
:101240000052304608F070FE012240F22771D4F8B7
:10125000140206F0ECF90120C3E730B45F4B01241F
:1012600018705C7030BC9AE700EB001202EBC01003
:10127000584A002102EB8000A0F80A1270472DE9BD
:10128000F041064600EB0610524B00EBC61003EB94
:1012900080041546D4F83CC20F46BCF1000F03D0C1
:1012A0003046E04701209CE7B4F80622B4F8040277
:1012B0004FF4C071824207D0A2EB000C0CF5C07C49
:1012C0009CFBF1FE01FB1EC189B2A94201D20020A4
:1012D00087E706EB06114FF0800C01EBC6110CEB13
:1012E0008101904203D3C0F5C072AA420BDD1844BD
:1012F00008442A4639460AF051FFB4F8040228444B
:10130000A4F8040212E01844084439460AF046FFE3
:10131000B4F80402C0F5C070C119281A85B204F1EE
:1013200080002A460AF03AFFA4F804523046FFF73C
:101330009BFFB7E700EB001202EBC012254800EB61
:101340008200A0F808120021A0F80A12704700EBF2
:10135000001101EBC0111F4800EB810090F82B1227
:10136000A0F808120021A0F80A1270472DE9F047F2
:10137000064600EB0610174F00EBC61007EB800483
:101380008946B4F80602B4F80412C0F5C0701546D8
:1013900001444FF4C07891FBF8F208FB121080B2C0
:1013A000854200D30546EDB308F0BAFD8246B4F895
:1013B0000602B4F80422802106EB061303EBC613E1
:1013C00001EB830190420BD2384401442A4648463F
:1013D0001AE00000F012002016DF000818000020BC
:1013E000C0F5C072AA42EFDC3844014448460AF016
:1013F000D5FEB4F80602C0F5C070291A0A04120C12
:1014000004D004F1800148440AF0C8FEB4F8060292
:101410004119B1FBF8F208FB1210A4F80602B4F867
:10142000041200E009E0884204D10020A4F804027C
:10143000A4F80602504608F077FD2846BDE8F0877C
:101440007FB5064600EB061000EBC6118E4800EB98
:101450008104B4F80602B4F80422904229D0B4F80A
:101460000A12491C89B2A4F80A12B4F80832994247
:101470001FD3C0F5C07010444FF4C07190FBF1F25F
:1014800001FB120085B294F81102800712D50020EA
:1014900000900190029003906946D4F8400209F050
:1014A00048FA9DF80C0028B10221D4F8400209F056
:1014B000D8F97FBD2946042006F00FFC0400F8D0BF
:1014C0002A4604F108013046FFF750FFA670E58078
:1014D00004B02046BDE8704006F016BC70B500EBC5
:1014E000001100F1100301EBC011674800EB81040B
:1014F00004F509752A460C21184608F016FB20B1A0
:101500002846FF220C210AF05BFED4F82402B0F535
:10151000E13F03D94FF41650C4F8240294F828127E
:101520000020022901D384F8280294F82912032903
:1015300001D384F8290294F82A12032901D384F8EC
:101540002A0294F82B020221FA2801D8022801D29B
:1015500084F82B1270BD00EB001101EBC0104A495A
:1015600001EB800090F81102704700EB001101EBD5
:10157000C011454800EB8100B0F80612B0F8040233
:10158000814201D10120704700207047F8B5044620
:101590000F4600EB041000EBC4113B48164600EB6D
:1015A000810595F81102012810D08BB12046FFF774
:1015B000DCFF68B16A461946D5F8400209F0B4F874
:1015C000324639462046FFF7D1FEF8BD0020F8BD6F
:1015D000324639462046BDE8F840C7E600EB001227
:1015E00002EBC0122848002100EB8200A0F806128E
:1015F000A0F80412A0F80A12704710B5044600EBD8
:101600000410214900EBC41001EB8000D0F8140253
:1016100005F060FF2046BDE810400CE500EB00112E
:1016200001EBC011184800EB8100B0F80212B0F8CD
:101630000002081A8030C11700EB516121F07F01D0
:10164000401A704710B5114C817823788B420CD129
:10165000627852B1827900F10801184600F0A8F8CA
:1016600000206070FF2020700CE003290AD201EBFB
:10167000011202EBC112044901EB8201D1F83812C8
:1016800001B18847002010BDF01200201800002092
:1016900010B50C46480702D0002000F02BFBE006F6
:1016A00009D565480078C10701D1800703D5BDE899
:1016B000104007F0E5BF10BD10B586B000244FF410
:1016C000E1300090ADF808400C20ADF80440ADF8D2
:1016D0000A00ADF80640ADF80C406946204607F018
:1016E00075FF25208DF810000F208DF811008DF862
:1016F000124001208DF8130004A806F084F801229E
:1017000040F225514D4805F092FF4FF402714C48CC
:101710000AF05DFDAFF287004949C1F8040200F00C
:1017200070FB06B010BD464991F80022885491F82C
:101730000002401C81F80002D1F80422042100209C
:10174000104710B53D4C0146204605F0BCFF402136
:10175000204606F019F80028F9D010BD70B50D46E6
:101760000646002404E0305DFFF7EBFF641CE4B2A2
:10177000AC42F8D332481021D0F80422BDE87040C2
:101780000020104770B5BF2A11D82E4B1C6822705C
:101790001D6809246C701C68A0701868C01C0AF0D1
:1017A000FDFC29480078BDE8704000F081BA70BDAA
:1017B0004030C0B2E6E710B514460A4608B1002032
:1017C00010BDE1B21046FFF7C9FF204610BD78B941
:1017D0001B4A92F8003292F80102834208D0105C52
:1017E000087092F80102401C82F801020120704743
:1017F0000020704710B504460AF0FEFC2146C2B234
:10180000BDE810403020BDE70FB4104900B50968AD
:1018100091B0884207DC14AA684613990BF098FA35
:101820006846FFF7E7FF11B05DF814FB052801D209
:101830000649086070470000280000200038014079
:10184000BC19002090DF0008220000201C000020AE
:101850002DE9FE4F1C468946022A3FD301784129D3
:101860003CD141785429FBD14FF0000A00F802A086
:10187000921E12F0FF0600F1020530D028780D28E4
:101880002DD00A282BD08CA083460AF0B5FCC7B215
:10189000DFF83082BE4205D33A46294658460AF060
:1018A000D6FC30B388A083460AF0A6FCC7B2BE427D
:1018B00006D33A46294658460AF0C9FC00286ED09D
:1018C00083A738460AF098FCC4B2A642C5D3224684
:1018D000294638460AF0BBFC002873D0E3E04F21CC
:1018E00089F800104B2189F801102078801C1870AD
:1018F000E0E0E81901AB02AA3D2106F04CFE002809
:10190000ECD00025744F08E007EB8600C168029810
:101910000AF079FC40B16D1CEDB205EB850637F895
:1019200026000028F0D1BEE0019801783F290BD0B5
:1019300005EB850107EB8105297A012930D00229C1
:1019400033D0042936D038E005EB850007EB80055D
:1019500098F80000A97A814258D8687A10B1012815
:1019600014D0A7E02A7A684669680AF017FC287A3A
:10197000012805D0022806D0009B58A1EA6808E09B
:101980009DF80030F9E7BDF80030F6E76B68EA68CB
:1019900054A1484672E02178084420708AE03BE078
:1019A0000AF064FC8DF8000007E00AF05FFCADF877
:1019B000000002E00AF05AFC0090687A18B1012891
:1019C00007D010E062E02A7A694668680AF0E6FB10
:1019D00009E001980AF010FC297A884203D8686867
:1019E00001990AF02BFCA97A98F8000081420DD8E1
:1019F000297A37F826006A46FEF7FEFF2969044671
:101A000009B1684688472046BDE8FE8F37A14846A1
:101A1000EA680BF081F9BEE729A0019028A03D44B7
:101A200000902621284606F063FD28460AF0E4FBD4
:101A300028B1284601950AF0DFFB05446D1C2846B5
:101A40000AF0DAFB18B1284600950AF0D5FB01A888
:101A500006F07FFD684606F07CFD2A4801990AF0F1
:101A6000D2FB28B92748009911300AF0CCFB40B1CD
:101A700088F800A024A1DDE9003248460BF04CF9BB
:101A800089E7012188F8001024A1F4E7281901ABA7
:101A90006A463D2106F07FFD28B1082224A1009866
:101AA0000AF0D5FB08B1FF20AEE701980AF0DEFB93
:101AB00006F0E7F90020A7E72B434F4E4649473D84
:101AC00000000000200000202B4C4F473D0000008C
:101AD0002B4442473D00000028DF000825733A25CB
:101AE0007500000025733A2573000000636F6E6671
:101AF00069672025733A20756E617574686F726925
:101B00007A656400181200204C4F47202573262563
:101B1000733A204661696C65640000004C4F4720B1
:101B200025732625733A2053756363656564000049
:101B30004442474C4556454C00000000F8B5B54CB2
:101B400001238DF80030B44E206800257279817829
:101B5000D01E212943D005DC39B3012927D0202903
:101B600004D129E0222930D0502938D0D4E90010FE
:101B7000001D0AF013FB9DF8000071790844C01E97
:101B80008DF80000012561689DF80000087020684C
:101B900061684078487020686168807840F0800013
:101BA00088706068C5700120F8BDF371EBE707F03D
:101BB00030FF0220F071E6E7C2B2D4E900016B46C3
:101BC000C01C091DFFF744FE07E0C2B2D4E90001C2
:101BD0006B46C01C091DFFF7BAF80546D3E7002085
:101BE000F8BD70B58B4D0124002628688078072841
:101BF0000CD006DC042809D0052817D0062804D10B
:101C000029E0202839D021283CD0012668680470BA
:101C1000286869684078487028686968807840F06A
:101C2000800088706868C670012070BD68680C21EB
:101C30000171401D07F081FD784968680A88120A21
:101C400042740978817468680822754913300AF073
:101C5000A5FA1824DAE7FEF7CDFE0AF0CDFA696896
:101C600004460871FEF7C6FE014668682246401D1C
:101C70000AF094FAA41CE4B2C8E72868C01CFEF776
:101C8000EAFEC3E76868001DFEF709FF401CC4B206
:101C9000BCE760480122114643681A7042684368F5
:101CA000927842F080029A704068C17001207047BB
:101CB00070B5584E0546002370681C4619460078DA
:101CC000C01CC2B203E0405C4340491CC9B270680A
:101CD0009142F8D3835450487368921C817803F87A
:101CE000011CFE21817071682846491EFFF763FDC3
:101CF000204670BDF8B505460024474E3DE0B17959
:101D000031B101290CD0022916D0032935D126E0A2
:101D10009DF80000FE2801D0FD282ED101201CE0F6
:101D20009DF80000BF2801D9B47126E00221B171ED
:101D30003471F470C01C7071F1789DF8000041405E
:101D4000F17034493279096888543079401CC0B246
:101D500030717179884210D10320B0710DE0B471F7
:101D6000F0789DF80010884207D100210B2005F083
:101D7000B4FF10B1C57005F0C7FF012269462846BF
:101D8000FFF725FD0028BAD1F8BD70B50025224C1B
:101D90002FE010F8012BA37933B1012B08D0022BCF
:101DA00010D0032B25D11EE0FE2A22D1012218E0FB
:101DB000BF2A01D9A5711CE00223A3712571E5702A
:101DC000D31C6371E3785340E370124B26791B6890
:101DD0009A552279521CD2B2227163799A4208D163
:101DE0000322A27105E0A571E378934201D101209D
:101DF00070BD491E89B2CCD2002070BD06498870E2
:101E00007047054800218171C17101704170FE2148
:101E1000817070478CDF0008210000200E00002038
:101E20001000002009490AA00AF066BF70B5094DEC
:101E30000446C1B2284605F046FC4021284605F07C
:101E4000A3FC0028F9D0204670BD000094DF0008F4
:101E5000257300000038014008B50B208DF8000004
:101E60000F208DF8010000208DF8020001208DF870
:101E70000300684605F0C7FC08BD414810B528219D
:101E8000C16040494161816841F0010181603E4C7F
:101E90000121204605F0CCF80121204605F0FDF88F
:101EA000002010BD394910B5B1FBF0F1002007F05A
:101EB0004CF90023AFF23D02BDE810400121184665
:101EC00007F091BA1CB504460121112003F001FF6F
:101ED00000218DF807108DF806101F21ADF80410B1
:101EE00001A92B4803F0B7FCFFF7B6FF4FF44040C1
:101EF00003F083FE0320009005230A2228212148B5
:101F000007F08CFE2046FFF7CDFF01211E4805F0AB
:101F1000C4F81CBD30B500201A4A0146503242F8C0
:101F20002010401C0528FAD3164B0020002101EB9D
:101F3000810403EB440452F8205034F81040491C4B
:101F40002C4442F820400829F1D3401C0528EDD349
:101F500030BD052801D3002070470A49503151F89F
:101F60002000704700B50B4B0022D0B2FFF7F1FF05
:101F700003EB8201521C0864052AF6DB002000BD39
:101F8000000002404C1D00200024014040420F0090
:101F900000100140B01D002070B5C44E054600245D
:101FA000A54203D0305D012106F012F9641C022C19
:101FB000F6DB705DBDE87040002106F009B9BB4951
:101FC000085C012106F004B970477CB5044607F0AF
:101FD00098FF002214231146104609F080F80123CF
:101FE00001AA2021204607F007FF9DF8040000F019
:101FF0000F00092808D0AEA36322B2A100200094EC
:1020000005F028FF01207CBDB44804EBC4010D1885
:10201000002115F8282F204607F043FFEA78012118
:10202000204607F03EFFAA790221204607F039FF3B
:10203000ABA36C22A3A10420009405F00BFF0020A9
:102040007CBD2DE9FC41064642F010008DF80400ED
:1020500041F010001C468DF805000227089D01ABD9
:10206000102200213046009707F0CEFE8DF8045074
:102070008DF8054001AB082201213046009707F09A
:10208000C3FEBDE8FC811CB500218DF804100321BE
:1020900000910DF105031822012107F08CFE9DF837
:1020A00005009DF80610000440EA01209DF8071085
:1020B00008431CBD38B5894B03EB800254688C4241
:1020C00010D051604022009200EBC0021A4401EB94
:1020D00041031A44C9B292F8293092F82820C0B2BC
:1020E000FFF7AFFF38BD70470321F8B590FBF1F261
:1020F00090FBF1F401FB120631462046FFF7DAFFB0
:10210000282006F0FBFB754D0120E860E8680028F8
:10211000FCD14FF4967006F0D2FB04EBC4002844C7
:1021200006EB4601084490F82A104907090E009171
:1021300090F8293090F82820F1B2E0B2FFF781FF43
:10214000E0B207F083FE10B14FF0FF30F8BDE0B20F
:10215000BDE8F84097E76B4A10B5106880F00300BF
:102160001060694B0A21186890FBF1F401FB14011F
:1021700041B9116881F0C001116064490A6882F4B4
:1021800080720A605F49091F0968490604D55349EE
:10219000CA680AB10022CA60401C1860002010BD45
:1021A000F8B50146012006F0D0FF0023AFF2590236
:1021B0000121084607F017F901210C2003F089FDE1
:1021C0000324504EADF8004010258DF803500C3E0E
:1021D0008DF802406946304603F03DFBC020ADF863
:1021E00000008DF803508DF802406946304603F038
:1021F00032FB2E01ADF8006044488DF803508DF895
:10220000024069460C3803F026FB3E49C320091DF5
:1022100008603E48001D0660F8BDF8B554212F48FF
:1022200009F0D5FF214D00244FF44476285D314656
:1022300005F0A2FF285D012105F0CAFF641C022CF5
:10224000F4DB26480221012200F8281F14214170E6
:1022500082700023C370017142718371C171027277
:1022600043728172C272037341738273C3730174C8
:102270004274184607F04EFD0020FFF7A6FE01202D
:10228000FFF7A3FE002240241223114610460094BB
:10229000FFF7D7FE12230022022101200094FFF74E
:1022A000D0FEBDE8F8404FF4AF6079E7C8DF000822
:1022B00061732063686C3A2578206661696C0D0A49
:1022C00000000000536F757263655C4150505C44C0
:1022D0006973706C61792E6300000000B01D0020EE
:1022E000496E697469616C697A6520616437373950
:1022F000392063686C3A257820737563636565647B
:102300000D0A00000C0C01402C0000200C080140BC
:1023100010B5FF4C002104EB410334F811205B8819
:1023200090420FDC98420DDD101A00EB8000400057
:10233000D21AB0FBF2F001EB810100EB41003C3816
:1023400080B210BD491C89B26B29E4D340F2E93058
:1023500010BD70B5414347F6F872101A91FBF0F4C6
:1023600047F68A70844202D90020014624E040F2F8
:10237000A72084424FF0000001D2E6491CE0E64964
:102380000BF00CFC05460E4620460AF0DAF90BF07D
:1023900005FCE24AE24B0AF03EF82A4633460AF0D0
:1023A000DBF802460B460020DE490AF04DF94FF0FB
:1023B0006632DD4B0AF0D0F80022DC4B0AF0D2F88E
:1023C000BDE870400AF0DEB9414347F6F872101AD2
:1023D00091FBF0F000B580B247F68A71884201D9CE
:1023E000D34800BD40F2A721884202D24FF47A7050
:1023F00000BDFFF78DFFB0F5AA7F01DD001F00BD16
:10240000B0F5A57FFBDD801E00BD01230022114633
:10241000104608F064BE002203461146104608F03C
:102420005EBEF0B50646002004464AF201050EE005
:10243000325D002382EA0007FF0702D085EA5000E0
:1024400000E0400852085B1C082BF3DB641C8C4244
:10245000EEDBF0BD401CC0B2FEF7A1BE30B50C46AD
:102460000546FFF7DEFF010A29552919487030BDDE
:1024700070B5054600EB051000EBC511AD4800EB4B
:10248000810440F21121204609F0A1FE012084F8C8
:102490001102002684F82062A749C4F814122621EC
:1024A000C4E9861084F83002284604F50574FFF765
:1024B00015F84FF41650206126756675A67570BD27
:1024C00001B501216846FFF749F908BD0AF014BCBF
:1024D0009A49B0FBF1F201FB120142F21072B1FB1A
:1024E000F2F38B4930335C394B73B0FBF2F302FBF0
:1024F00013034FF47A72B3FBF2F330338B73B0FBF8
:10250000F2F302FB13036422B3FBF2F33033CB7319
:10251000B0FBF2F302FB13030A22B3FBF2F33033F6
:102520000B74B0FBF2F302FB1300303048747047B9
:1025300042F21071B0FBF1F201FB12014FF47A721A
:10254000B1FBF2F3724930335C394B73B0FBF2F3F9
:1025500002FB13036422B3FBF2F330338B73B0FB43
:10256000F2F302FB13030A22B3FBF2F33033CB7313
:10257000B0FBF2F302FB13003030087420204874E3
:10258000704710B50D20FFF79BFFBDE810400A20F3
:1025900096E710B55E4C5C3C607BFFF791FFA07B3B
:1025A000FFF78EFFE07BFFF78BFF207CFFF788FFB4
:1025B000607CFFF785FFBDE81040E2E7544B10B5A3
:1025C0005C3B64220A21002803DA401CC04380B22D
:1025D00001E080B20CB12D2400E020245C73B0FB3C
:1025E000F2F402FB1402B2FBF1F230329A73B0FB48
:1025F000F1F201FB12003030D87310BD10B5444C1D
:102600005C3C607BFFF75CFFA07BFFF759FF2E204F
:10261000FFF756FFE07BFFF753FFBDE81040B0E740
:10262000464970B5B0FBF1F201FB120242F21071A3
:10263000B0FBF1F3B2FBF1F201FB13034FF47A713B
:10264000B3FBF1F4B0FBF1F301FB13036421B3FB23
:10265000F1F5B0FBF1F301FB13000A21B0FBF1F639
:102660003032D0B2FFF72CFF3034E0B2FFF728FF52
:102670002E20FFF725FF3035E8B2FFF721FF303677
:10268000F0B2BDE870401BE770B5064620480D4625
:102690005C38C078002873D0294C2088FFF718FFD9
:1026A00028A00AF029FBFFF774FF6088FFF710FFEE
:1026B00026A00AF021FBFFF76CFFA088FFF708FFB8
:1026C00024A00AF019FBFFF764FFE088FFF700FF82
:1026D00022A00AF011FBFFF75CFF2089FFF7F8FE4C
:1026E00020A00AF009FBFFF754FF6089FFF7F0FE16
:1026F0001EA00AF001FBFFF74CFF1EA00AF0FCFA37
:10270000B4F85000FFF78CFF1CA00AF0F5FA38E08F
:102710008C000020000059400088C34082E2ACAF2A
:102720008CB92A400020AF4066127140000024405E
:1027300018FCFFFFF012002000440040A0860100BA
:102740000E1E002043314856523D00004331484898
:102750003D0000004331484C3D00000043314C48EF
:102760003D00000043314C4C3D00000043314C56CD
:10277000523D00005254313D000000006B0000004B
:1027800052E1FFF7FEFEB4F90C00FFF717FFF6A0C9
:102790000AF0B2FAFFF732FFE089FFF7C9FEF5A0B1
:1027A0000AF0AAFAFFF7F5FE208AFFF791FEF4A0DF
:1027B0000AF0A2FAFFF7EDFE608AFFF789FEF2A0A9
:1027C0000AF09AFAFFF7E5FEA08AFFF781FEF0A073
:1027D0000AF092FAFFF7DDFEE08AFFF779FEEEA03D
:1027E0000AF08AFAFFF7D5FE208BFFF771FEECA006
:1027F0000AF082FAFFF7CDFE608BFFF769FEEAA0D0
:102800000AF07AFAFFF7C5FEE9A00AF075FAB4F803
:102810005200FFF705FFAFF29C000AF06DFAFFF7D8
:10282000B0FEB4F91C00FFF7C9FEE3A00AF064FA99
:10283000FFF7E4FEE08BFFF77BFEE2A00AF05CFA14
:10284000FFF7A7FE208CFFF743FEE1A00AF054FA41
:10285000FFF79FFE608CFFF73BFEDFA00AF04CFA0B
:10286000FFF797FEA08CFFF733FEDDA00AF044FAD5
:10287000FFF78FFEE08CFFF72BFEDBA00AF03CFA9F
:10288000FFF787FE208DFFF723FED9A00AF034FA68
:10289000FFF77FFE608DFFF71BFED7A00AF02CFA32
:1028A000FFF777FED6A00AF027FAB4F85400FFF736
:1028B000B7FEAFF238100AF01FFAFFF762FEB4F964
:1028C0002C00FFF77BFED0A00AF016FAFFF796FE69
:1028D000E08DFFF72DFECFA00AF00EFAFFF759FEAC
:1028E000208EFFF7F5FDCEA00AF006FAFFF751FEA5
:1028F000608EFFF7EDFDCCA00AF0FEF9FFF749FE70
:10290000A08EFFF7E5FDCAA00AF0F6F9FFF741FE39
:10291000E08EFFF7DDFDC8A00AF0EEF9FFF739FE03
:10292000208FFFF7D5FDC6A00AF0E6F9FFF731FECC
:10293000608FFFF7CDFDC4A00AF0DEF9FFF729FE96
:10294000C3A00AF0D9F9B4F85600FFF769FEAFF258
:10295000D4100AF0D1F9FFF714FEB4F93C00FFF7E8
:102960002DFEBDA00AF0C8F9FFF748FEE08FFFF783
:10297000DFFDBCA00AF0C0F9FFF70BFEB4F8400081
:10298000FFF7A6FDBAA00AF0B7F9FFF702FEB4F808
:102990004200FFF79DFDB8A00AF0AEF9FFF7F9FD80
:1029A000B4F84400FFF794FDB5A00AF0A5F9FFF7CD
:1029B000F0FDB4F84600FFF78BFDB3A00AF09CF9D8
:1029C000FFF7E7FDB4F84800FFF782FDB0A00AF07A
:1029D00093F9FFF7DEFDB4F84A00FFF779FDAEA0EA
:1029E0000AF08AF9FFF7D5FDADA00AF085F9B4F831
:1029F0005800FFF715FEAFF27C200AF07DF9FFF7D3
:102A0000C0FDB4F84C00FFF7D9FDA7A00AF074F997
:102A1000FFF7F4FDB4F84E00FFF78AFDA5A00AF019
:102A20006BF9BDE87040B4E5002404E0305DFFF7C9
:102A300047FD641CE4B2AC42F8D370BD00B5084455
:102A40001146FFF7EEFC9E49888200BD00B50844A0
:102A50001146FFF7E6FC9A49888200BD994A10B5F5
:102A60005318525C5B7803EB022294B20A4601468B
:102A70009448FFF7EBFF9248408A844201D101203D
:102A800010BD002010BD8F4810B5C17880784FF080
:102A9000000201EB002081B2894811F0FF0F1DD127
:102AA0000B1201210A2B19D2DFE803F018050709E0
:102AB0000B180E111416817010BD262205E0272276
:102AC00003E06021417110BD29224270F3E70D211E
:102AD000017010BDC17010BDC27010BD027110BD7B
:102AE0002DE9F0417748764C48F28767C1788078C5
:102AF000002301EB002081B2CA1B01250526607866
:102B0000B94228D017DC48F28107A1EB0702B9428D
:102B100022D007DC032920D03F2004291ED005291C
:102B20001DD128E1A2F50072023A19D0A2F5007277
:102B3000023A14D1E8E040F20667A2F20661BA4216
:102B40000FD00FDCA2F50072023A0CD0A2F5007291
:102B5000023A04D1F5E0E1E0C3E007E108E1BCE0BE
:102B6000C8E0F8E0B0E0E3E054314F6666736574A6
:102B70003D0000004331436F6E73743D0000000060
:102B800043324856523D0000433248483D00000061
:102B90004332484C3D00000043324C483D000000A9
:102BA00043324C4C3D00000043324C56523D000035
:102BB0005254323D0000000054324F666673657413
:102BC0003D0000004332436F6E73743D000000000F
:102BD00043334856523D0000433348483D0000000F
:102BE0004333484C3D00000043334C483D00000057
:102BF00043334C4C3D00000043334C56523D0000E3
:102C00005254333D0000000054334F6666736574C0
:102C10003D0000004333436F6E73743D00000000BD
:102C200043344856523D0000433448483D000000BC
:102C30004334484C3D00000043344C483D00000004
:102C400043344C4C3D00000043344C56523D000090
:102C50005254343D0000000054344F66667365746E
:102C60003D0000004334436F6E73743D000000006C
:102C700043354856523D0000433548483D0000006A
:102C80004335484C3D00000043354C483D000000B2
:102C900043354C4C3D00000043354C56523D00003E
:102CA0005254353D0000000054354F66667365741C
:102CB0003D0000004335436F6E73743D000000001B
:102CC00030000020041E0020A1F50071023944D01C
:102CD000A1F24221B1F5804F41D02371A571BDE829
:102CE000F081012804D001210020FEF74FF8657023
:102CF0000E2039E0022805D001210020FEF746F819
:102D0000022060700F202FE0032805D00121002051
:102D1000FEF73CF803206070102025E0042805D061
:102D200000210846FEF732F80420607011201BE0F5
:102D3000052804D000210846FEF728F86670122006
:102D400012E0062805D000210846FEF71FF80620ED
:102D50006070132008E0142006E0152004E020280D
:102D600001D02020607016202070B8E72670B6E7EA
:102D700020702573B3E720702373B0E730B5F848AF
:102D8000F74D2524C17880780A3501EB002081B207
:102D9000F3480123A1F68D4142790079B1F5004154
:102DA00002EB0020EF4A07D0A1F50071023905D0EF
:102DB00000201071937130BDA88100E0E88154704B
:102DC000937030BD70B5E648E64C49F29766C1781D
:102DD0008078002501EB002081B28A1B01236078F6
:102DE000B14252D017DC49F29106A1EB0602B14282
:102DF0002DD007DC0E2973D040200F2972D0102966
:102E000022D172E0A2F50072023A2AD0A2F5007235
:102E1000023A19D12FE040F20666A2F20661B242F0
:102E200051D008DCA2F50072023A38D0A2F5007247
:102E3000023A09D13DE0A1F50071023945D001F611
:102E4000CC31B1F5804F42D02571A37170BD0728F8
:102E500005D001210846FDF799FF07206070182072
:102E60003AE0082805D001210846FDF78FFF082029
:102E70006070192030E0092805D001210846FDF7CF
:102E800085FF092060701A2026E00A2805D000215D
:102E90000120FDF77BFF0A2060701B201CE00B283F
:102EA00005D000210120FDF771FF0B2060701C2070
:102EB00012E00C2805D000210120FDF767FF0C204F
:102EC00060701D2008E01E2006E01F2004E021287D
:102ED00001D0212060702020207070BD00E001E052
:102EE0000620F9E720702373F7E720702573F4E7D5
:102EF00030B59B489A4D2524C17880780A3501EB7E
:102F0000002081B29648012301F2633142790079B1
:102F1000B1F5204102EB0020924A07D0A1F50071E3
:102F2000023905D000201071937130BDA88300E0F4
:102F3000E8835470937030BD2DE9F0418848894C86
:102F40004AF2A767C1788078002301EB002081B2A4
:102F5000CA1B012622256078B94252D017DC4AF2FA
:102F6000A107A1EB0702B9422DD007DC192972D0C5
:102F700041201A2971D01B2922D171E0A2F50072DB
:102F8000023A2AD0A2F50072023A19D12FE040F29B
:102F90000667A2F20661BA4251D008DCA2F50072BF
:102FA000023A38D0A2F50072023A09D13DE0A1F50B
:102FB0000071023945D0A1F22661B1F5005F42D01F
:102FC0002371A6718BE60D2805D001210220FDF7A3
:102FD000DDFE0D206070257081E60E2805D00121F0
:102FE0000220FDF7D3FE0E20607023202FE00F2873
:102FF00005D001210220FDF7C9FE0F2060702420BA
:1030000025E0102805D000210220FDF7BFFE10208A
:10301000607025201BE0112805D000210220FDF75B
:10302000B5FE11206070262011E0122805D0002185
:103030000220FDF7ABFE12206070272007E0282059
:1030400005E0292003E0222800D065702A202070A6
:1030500045E600E001E00720F9E7207026733EE630
:10306000207023733BE630B53D483D4D2524C178A3
:1030700080780A3501EB002081B239480123A1F69E
:10308000AD4142790079B1F5204102EB0020354A8B
:1030900007D0A1F50071023905D00020107193719D
:1030A00030BDA88500E0E8855470937030BD70B5E0
:1030B0002B482C4C4BF2B766C1788078002501EB89
:1030C000002081B28A1B01236078B14256D017DC00
:1030D0004BF2B106A1EB0602B1422DD007DC21294B
:1030E00077D04220222976D0232922D176E0A2F57A
:1030F0000072023A2AD0A2F50072023A19D133E0E6
:1031000040F20666A2F20661B24255D008DCA2F592
:103110000072023A3CD0A2F50072023A09D141E0B5
:10312000A1F50071023949D001F5FD61B1F5005FEB
:1031300046D02571A371D0E6132805D001210320C4
:10314000FDF724FE132060702C203EE0142805D0EB
:1031500001210320FDF71AFE142060702D2034E0B9
:10316000041E002030000020152805D00121032076
:10317000FDF70CFE152060702E2026E0162805D0E5
:1031800000210320FDF702FE162060702F201CE0B6
:10319000172805D000210320FDF7F8FD17206070E7
:1031A000302012E0182805D000210320FDF7EEFDA5
:1031B00018206070312008E0322006E0332004E05F
:1031C000232801D0232060703420207085E600E0A1
:1031D00001E00820F9E7207023737EE62070257354
:1031E0007BE630B5FE48FE4D2524C17880780A354F
:1031F00001EB002081B2FA48012301F24331427908
:103200000079B1F5404102EB0020F64A07D0A1F564
:103210000071023905D000201071937130BDA8876C
:1032200000E0E8875470937030BD70B5EC48ED4C09
:103230004CF2C766C1788078002501EB002081B28E
:103240008A1B01236078B14251D017DC4CF2C106D1
:10325000A1EB0602B1422CD007DC2C2972D043200E
:103260002D2971D02E2921D171E0A2F50072023AE8
:1032700029D0A2F50072023A18D12EE040F206667B
:10328000A2F20661B24250D008DCA2F50072023A06
:1032900037D0A2F50072023A08D13CE0A1F50071E6
:1032A000023944D0A1F520610A3942D02571A371B9
:1032B00013E6192805D001210420FDF767FD192028
:1032C000607036203AE01A2805D001210420FDF76D
:1032D0005DFD1A206070372030E01B2805D00121E9
:1032E0000420FDF753FD1B206070382026E01C28C9
:1032F00005D000210420FDF749FD1C206070392015
:103300001CE01D2805D000210420FDF73FFD1D20F5
:1033100060703A2012E01E2805D000210420FDF73D
:1033200035FD1E2060703B2008E03C2006E03D207B
:1033300004E0242801D0242060703E202070CCE5D9
:1033400000E001E00920F9E720702373C5E5207053
:103350002573C2E530B5A248A14D2524C1788078F7
:103360000A3501EB002081B29D480123A1F6CD4131
:1033700042790079B1F5404102EB0020994A80B2D0
:1033800007D0A1F50071023906D0002010719371A9
:1033900030BDA5F84C0001E0A5F84E0054709370C4
:1033A00030BD0A4601460020FFF754B847F6F871D1
:1033B000091A42F210725143B1FBF0F080B270472B
:1033C00010B50020FEF790FEC0F30F2010BD10B521
:1033D0000120FEF789FEC0F30F2010BD10B50220BA
:1033E000FEF782FEC0F30F2010BD10B50320FEF7DC
:1033F0007BFEC0F30F2010BD10B50420FEF774FE55
:10340000C0F30F2010BD10B5531A42F2107463437D
:1034100093FBF1F189B24143101A91FBF0F080B2B5
:1034200010BD42F21072B0FBF2F302FB13024FF434
:103430007A7370B5B0FBF3F4B2FBF3F203FB140440
:103440006423B4FBF3F4E6B2B0FBF3F403FB14041F
:103450000A23B4FBF3F5B0FBF3F403FB1404D2B27C
:10346000D1B101291BD0022927D003292FD1303215
:10347000D0B2FFF725F83036F0B2FFF721F830353B
:10348000E8B2FFF71DF82E20FFF71AF83034E0B24B
:10349000BDE87040FFF714B83032D0B204E03032EB
:1034A000D0B2FFF70DF82E20FFF70AF83036F0B251
:1034B000FFF706F83035E8B2E6E73032D0B2FEF773
:1034C000FFFF3036F0B2FEF7FBFF2E20F0E704E5F9
:1034D0004FF47A71B0FBF1F201FB12026421B0FBF0
:1034E000F1F3B2FBF1F270B501FB13030A21B3FB58
:1034F000F1F4B0FBF1F301FB13053032D0B2FEF76B
:10350000DFFF3034E0B2FEF7DBFF2E20FEF7D8FFFE
:103510003035E8B2BDE87040FEF7D2BF2DE9F0418A
:103520000646314FDFF8BC8009F064F90C460546C9
:10353000BE4234DA2D4A2E4B09F014F806460F46E7
:10354000284621462B4A2C4B09F00CF82A462346E4
:1035500009F008F832463B4608F0FEFF274A284BA0
:1035600008F059FF09F059F9C8F8540028462146D7
:10357000244A254B08F0F6FF06460F46284621460A
:10358000224A234B08F0EEFF2A46234608F0EAFFC2
:1035900032463B4608F03FFF1E4A1F4B99E01F484A
:1035A0008642284661DA1E4A1E4B08F0DBFF0746BA
:1035B0000E46284621461C4A1C4B08F0D3FF2A46DB
:1035C000234608F0CFFF3A46334608F0C5FF184AB5
:1035D000184B08F020FF09F020F9C8F854002BE040
:1035E000041E0020300000200000A041B84082E20C
:1035F000C798AB3F89B5F81400E3493F2B8716D92C
:10360000CEF7FD3F1361C3D32B65493FF5824F735E
:10361000F222033F744694F6065F883F0000204282
:10362000FB5C6DC5FEB29B3F2D431CEBE236EA3ED0
:103630006F1283C0CAA1F93F28462146FA4AFB4BC4
:1036400008F090FF06460F4628462146F84AF94BF7
:1036500008F088FF2A46234608F084FF32463B469E
:1036600008F07AFFF44AF54B33E0F54AF54B08F0E1
:1036700079FF06460F4628462146F34AF34B08F0E9
:1036800071FF2A46234608F06DFF32463B4608F09C
:1036900063FFEF4AEF4B08F0BEFE09F0BEF8C8F832
:1036A000540028462146EC4AEC4B08F05BFF0646E6
:1036B0000F4628462146EA4AEA4B08F053FF2A46BD
:1036C000234608F04FFF32463B4608F045FFE64AE6
:1036D000E64B08F0A0FE09F0A0F8C8F8580071E425
:1036E000F0B5E3484FF0C10C0221036C0622C2245E
:1036F00083F800C059709A70436CC325C4261C70AF
:1037000059709A70836CC5271D7059709A70C36C7C
:103710001E7059709A70036D1F7059709A70C36A49
:1037200003210A2283F800C059709A70036B1C7041
:1037300059709A70436B1D7059709A70836B1E702C
:1037400059709A70C06B077041708270F0BDFEF7BF
:1037500000BC70B5C64CE078002844D0C5A009F084
:10376000CBFAC54DC549D5F8030088420EDA09F0F9
:1037700041F8C34AC34B08F04EFE0022C24B08F08A
:10378000F1FE09F01EF880B203210CE0BF49884227
:103790000DDA09F02FF80022BD4B08F03CFE09F0CD
:1037A00010F880B20021FFF73CFEBAA00CE0BB4944
:1037B00008F069FDBA4908F0F0FD08F0CFFF80B2CB
:1037C0000221FFF72EFEB7A009F096FAB7A009F084
:1037D00093FAB5F80700FFF77BFEB5A009F08CFA65
:1037E000FEF7CFFE18E0206CC1788279C27081713B
:1037F0000179427902714171C179027AC271017213
:1038000009220021FFF71AF9A18A206C0A0A4272E4
:1038100081720B21FFF7C5FD002020710120A071EE
:1038200089E42DE9F84F0020FFF791FF904E308496
:10383000FFF7C6FD904CF082633C308CB4F850101A
:10384000FEF7C2FDA1898C4D0844954FA5F80700ED
:10385000F079DFF86092DFF860A2DFF860B2E8B3D9
:1038600022886188F08AFFF7CEFD0090A846B5F85F
:10387000070008F061FF394608F08FFD494608F05F
:1038800054FD08F0B7FF52465B4608F06BFE00227D
:103890008B4B08F0C0FD05460F46009808F04CFF22
:1038A0008146E08908F048FF864908F076FD4946E0
:1038B00008F073FD08F09EFF0022834B08F052FED3
:1038C0002A463B4608F0C0FE08F0A7FFC8F80300F0
:1038D000A088F18A643088424FD200E005E00021E0
:1038E0000846FDF753FA002041E062892189F08AF9
:1038F000FFF789FD0090A846B5F8070008F01CFF07
:10390000394608F04AFD494608F00FFD08F072FFFD
:1039100052465B4608F026FE0022694B08F07BFD0C
:1039200005460F46009808F007FF8146E08908F039
:1039300003FF644908F031FD494608F02EFD08F008
:1039400059FF0022614B08F00DFE2A463B4608F065
:103950007BFE08F062FFC8F80300E088F18A643853
:1039600088420ADD01210020FDF710FA0120F071E4
:10397000BDE8F84FC820FEF74EBDBDE8F88F70B522
:103980003B4CE07800284DD051A009F0B5F93A4DF4
:103990000C35D5F80300B0F1804F11DA08F02AFF9A
:1039A0004C4A4D4B08F037FD00224C4B08F0DAFD35
:1039B00008F007FF80B20121FFF733FD48A022E0A5
:1039C0004A4988420EDA08F015FF3B4A484B08F096
:1039D00022FD0022474B08F0C5FD08F0F2FE80B240
:1039E00002210DE008F006FF254A264B08F013FDE2
:1039F0000022254B08F0B6FD08F0E3FE80B203215B
:103A0000FFF70FFD23A009F077F93BA009F074F947
:103A1000B5F80700FFF75CFD25A009F06DF9FEF78A
:103A2000B0FD84E06AE000000FD6FF39CC97173F65
:103A3000FC6D4F90D8EE0E3F014D840D4FAF943F7B
:103A400022FDF675E09C613F43C5387F130A11BF24
:103A50001F85EB51B81EED3F091B9E5E29CB603FD1
:103A600054F0CAE48A41163FC976BE9F1A2FAD3F73
:103A70003000002043313D00711E0020000048430B
:103A80009A9999999999A93F000024400000FA4415
:103A90000000E03FA6CC532F636D20000000A04043
:103AA000000020416D532F636D20200054313D00F4
:103AB000A1E600000000C8417B14AE47E17A943FC4
:103AC0000000F03F00007A4484D79741D012634150
:103AD00043323D00FCA9F1D24D62403F00408F408F
:103AE000A6CC532F636D2020000000000000A041F1
:103AF000E17A743F0000594054323D00606CC17857
:103B00008279C27081710179427902714171C17902
:103B1000027AC271017209220021FEF78FFFA18A89
:103B2000606C0A0A427281720B21FFF73AFC002096
:103B300020710120A07109E42DE9F84F0120FFF761
:103B400006FEFD4E7084FFF742FCFC4C3083708C07
:103B5000B4F85210FEF738FCA18B04F16F0508444D
:103B6000A5F80700307AF64FDFF8D893DFF8D8A32E
:103B7000DFF8D8B3F0B3228A618A308BFFF743FCB9
:103B80000090A846B5F8070008F0D6FD394608F0C1
:103B900004FC494608F0C9FB08F02CFE52465B467F
:103BA00008F0E0FC0022EA4B08F035FC05460F4621
:103BB000009808F0C1FD8146E08B08F0BDFDE549A5
:103BC00008F0EBFB494608F0E8FB08F013FE002282
:103BD000E14B08F0C7FC2A463B4608F035FD08F0EB
:103BE0001CFEC8F80300A08A318B643088424FD293
:103BF000002100E004E00120FDF7C8F8002041E0CA
:103C0000628B218B308BFFF7FEFB0090A846B5F846
:103C1000070008F091FD394608F0BFFB494608F05F
:103C200084FB08F0E7FD52465B4608F09BFC00224F
:103C3000C74B08F0F0FB05460F46009808F07CFDE6
:103C40008146E08B08F078FDC24908F0A6FB4946A2
:103C500008F0A3FB08F0CEFD0022C04B08F082FC68
:103C60002A463B4608F0F0FC08F0D7FDC8F80300F0
:103C7000E08A318B643888420ADD01210846FDF76D
:103C800085F801203072BDE8F84FC820FEF7C3BBAD
:103C900073E670B5A84CE078C8B3B1A009F02CF871
:103CA000A64D7B35D5F80300B0F1804F0EDA08F051
:103CB000A1FDAC4AAC4B08F0AEFB0022AB4B08F0C8
:103CC00051FC08F07EFD80B201210DE008F092FD6C
:103CD0009D4AA74B08F09FFB0022A64B08F042FC30
:103CE00008F06FFD80B20221FFF79BFBA2A009F054
:103CF00003F8A3A009F000F8B5F80700FFF7E8FB08
:103D0000AFF2542008F0F8FFFEF73BFC19E0FFE7A4
:103D1000A06CC1788279C270817101794279027197
:103D20004171C179027AC271017209220021FEF744
:103D300085FEA18AA06C0A0A427281720B21FFF7EC
:103D400030FB002020710120A07169E52DE9FC5FA6
:103D50000220FFF7FCFC784CA084FFF73FFB774D77
:103D60006083A08CB5F85410FEF7F3FAA98D05F125
:103D70007B06084480B2A6F8070008F0DDFC704915
:103D800008F00BFBFFF7CAFB607ADFF8F891DFF869
:103D9000F8A1DFF8BCB1E8B32A8C698C608BFFF71F
:103DA00032FB0090A06D08F025FD07468846E88D9F
:103DB00008F0C2FC0190009808F0BEFC019908F0E0
:103DC000BAFA08F017FD02460B4600206F4908F0CA
:103DD0003BFC3A46434608F0BFFB07468846606D09
:103DE00008F008FD43463A4608F0BCFB4A465346F5
:103DF00008F011FB02460B460020594608F024FC4F
:103E000008F00BFDC6F80300A88C618B6430884273
:103E10004DD200E005E000210220FCF7B7FF0020B2
:103E200041E06A8D298D608BFFF7EDFA0090A06D5F
:103E300008F0E0FC07468846E88D08F07DFC01901C
:103E4000009808F079FC019908F075FA08F0D2FCA6
:103E500002460B460020404908F0F6FB3A4643462E
:103E600008F07AFB07468846606D08F0C3FC3A46C6
:103E7000434608F077FB4A46534608F0CCFA024620
:103E80000B460020594608F0DFFB08F0C6FCC6F8D8
:103E90000300E88C618B6438884208DD0121022030
:103EA000FCF774FF01206072C820FEF7B4FAD6F860
:103EB0000300374908F03FFA3649C6F80300884244
:103EC00001DDC6F80310BDE8FC9F70B51A4CE07820
:103ED00088B331A008F010FF184D8735D5F80300DE
:103EE000B0F1804F0EDA08F085FC1E4A1E4B08F038
:103EF00092FA00221D4B08F035FB08F062FC80B2FC
:103F000001210DE008F076FC0F4A194B08F083FA06
:103F10000022184B08F026FB08F053FC80B2022167
:103F2000FFF77FFA14A008F0E7FE1CA008F0E4FEFB
:103F3000B5F8070034E03CE0300000200E1E002001
:103F4000000020410000C8417B14AE47E17A943F55
:103F50000000F03F00007A4480842E41006AF8405F
:103F600043333D00FCA9F1D24D62403F00408F40F9
:103F7000E17A743F000059404DA6B82A636D2000D5
:103F800054333D00535C55F65D11AC3FD012634194
:103F90006666863F9A99914143343D0054343D0012
:103FA000FFF796FAAFF2F84008F0A6FEFEF7E9FA3E
:103FB00018E0E06CC1788279C27081710179427930
:103FC00002714171C179027AC27101720922002124
:103FD000FEF734FDA18AE06C0A0A427281720B215D
:103FE000FFF7DFF9002020710120A07118E42DE90E
:103FF000FC5F0320FFF7ABFBFE4CE084FFF7F5F915
:10400000FD4DA083E08CB5F85610FEF7A2F9A98FFC
:1040100005F18706084480B2A6F8070008F08CFB7B
:10402000F64908F0BAF9FFF779FAA07ADFF8D093E9
:10403000DFF8D0A3DFF8D0B3F0B32A8E698EA08B5F
:10404000FFF7E1F90090A06D08F0D4FB0746884621
:10405000E88F08F071FB0190009808F06DFB019962
:1040600008F069F908F0C6FB02460B460020E74954
:1040700008F0EAFA3A46434608F06EFA07468846E0
:10408000606D08F0B7FB43463A4608F06BFA4A46C3
:10409000534608F0C0F902460B460020594608F086
:1040A000D3FA08F0BAFBC6F80300A88EA18B6430DF
:1040B00088424DD2002100E004E00320FCF766FEB8
:1040C000002041E06A8F298FA08BFFF79CF90090B8
:1040D000A06D08F08FFB07468846E88F08F02CFBA0
:1040E0000190009808F028FB019908F024F908F0E5
:1040F00081FB02460B460020C54908F0A5FA3A4666
:10410000434608F029FA07468846606D08F072FBBE
:104110003A46434608F026FA4A46534608F07BF9E9
:1041200002460B460020594608F08EFA08F075FB4F
:10413000C6F80300E88EA18B6438884208DD0121AF
:104140000320FCF723FE0120A072C820FEF763F9CC
:10415000D6F80300AF4908F0EEF8AF49C6F80300FF
:10416000884201DDC6F80310ADE670B5A14CE078D9
:10417000C8B3AAA008F0C0FD9F4D9335D5F8030041
:10418000B0F1804F0EDA08F035FBA54AA54B08F0D8
:1041900042F90022A44B08F0E5F908F012FB80B2C6
:1041A00001210DE008F026FBA04AA14B08F033F9ED
:1041B0000022A04B08F0D6F908F003FB80B20221E0
:1041C000FFF72FF99CA008F097FD9EA008F094FD42
:1041D000B5F80700FFF77CF9AFF22C7008F08CFD02
:1041E000FEF7CFF919E0FFE7206DC1788279C27040
:1041F00081710179427902714171C179027AC2718A
:10420000017209220021FEF719FCA18A206D0A0A19
:10421000427281720B21FFF7C4F800202071012047
:10422000A07188E42DE9FC5F0420FFF790FA714C3F
:104230002085FFF7E1F8704DE083208DB5F8581028
:10424000FEF787F8B5F84C1005F19306084480B2E4
:10425000A6F8070008F070FA684908F09EF8FFF722
:104260005DF9E07ADFF89891DFF898A1DFF898B16E
:10427000F0B335F8402FE08B6988FFF7C4F8009061
:10428000A06D08F0B7FA07468846E88908F054FAA6
:104290000190009808F050FA019908F04CF808F0E5
:1042A000A9FA02460B460020584908F0CDF93A46D3
:1042B000434608F051F907468846606D08F09AFABF
:1042C00043463A4608F04EF94A46534608F0A3F8EA
:1042D00002460B460020594608F0B6F908F09DFA50
:1042E000C6F80300A888E18B6430884250D200E011
:1042F00005E000210420FCF749FD002044E0B5F86A
:104300004A20B5F84810E08B4635FFF77CF800905E
:10431000A06D08F06FFA07468846288908F00CFA65
:104320000190009808F008FA019908F004F808F0E4
:1043300061FA02460B460020354908F085F93A46F5
:10434000434608F009F907468846606D08F052FABE
:104350003A46434608F006F94A46534608F05BF8E9
:1043600002460B460020594608F06EF908F055FA4F
:10437000C6F803002888E18B6438884208DD0121F3
:104380000420FCF703FD0120E072C820FEF743F88B
:10439000D6F803001F4907F0CEFF1F49C6F80300F7
:1043A000884201DDC6F803108DE510B5114C0D22D1
:1043B0000021E06AFEF742FBA18AE06A0A0A427322
:1043C0008173BDE810400F21FEF7EBBF2DE9F84FD8
:1043D0000020FFF7BCF9074E3084FEF7F1FF064DD1
:1043E000F082308CB5F85010FDF7B3FFA98908446E
:1043F0002AE00000300000200E1E002000002041B6
:10440000535C55F65D11AC3F0000F03FD0126341A4
:1044100080842E416666863F9A99914143353D00DE
:10442000FCA9F1D24D62403F00408F407B14AE4763
:10443000E17A743F000059404DA6B82A636D2020F0
:104440000000000054353D0005F19F04A4F80B0066
:10445000F08AA4F80700317BFD4EFE4FDFF8F883A9
:10446000DFF8F893DFF8F8A3DFF8F8B361B32A8830
:104470006988FEF7C8FF0090B4F80B0008F05CF9FB
:10448000314607F08AFF394607F04FFF08F0B2F9CE
:1044900042464B4608F066F80022534607F0BBFF41
:1044A00006460F46009808F047F98046E88908F06C
:1044B00043F9594607F071FF414607F06EFF08F0D7
:1044C00099F90022E84B2BE06A892989FEF79BFFC6
:1044D0000090B4F80B0008F02FF9314607F05DFFAB
:1044E000394607F022FF08F085F942464B4608F0AE
:1044F00039F80022534607F08EFF06460F46009813
:1045000008F01AF98046E88908F016F9594607F0CC
:1045100044FF414607F041FF08F06CF90022D34BFD
:1045200008F020F832463B4608F08EF808F075F99E
:10453000C4F803000098A4F80900BDE8F88F10B58E
:10454000CB4C0D220021206BFEF778FAA18A206B5C
:104550000A0A42738173BDE810400F21FEF721BFA4
:104560002DE9F84F0120FFF7F2F8C14E7084FEF7F5
:104570002EFFC04D3083708CB5F85210FDF7E9FE68
:10458000A98B05F1AF040844A4F80B00308BA4F804
:104590000700317BAE4EAF4FDFF8BC82DFF8BC9234
:1045A000DFF8BCA2DFF8BCB261B32A8A698AFEF7E1
:1045B0002AFF0090B4F80B0008F0BEF8314607F06F
:1045C000ECFE394607F0B1FE08F014F942464B46BE
:1045D00007F0C8FF0022534607F01DFF06460F46AE
:1045E000009808F0A9F88046E88B08F0A5F859462D
:1045F00007F0D3FE414607F0D0FE08F0FBF800229A
:104600009D4B2BE06A8B298BFEF7FDFE0090B4F8E2
:104610000B0008F091F8314607F0BFFE394607F06D
:1046200084FE08F0E7F842464B4607F09BFF002265
:10463000534607F0F0FE06460F46009808F07CF857
:104640008046E88B08F078F8594607F0A6FE414608
:1046500007F0A3FE08F0CEF80022884B07F082FF97
:1046600032463B4607F0F0FF08F0D7F8C4F80300E5
:104670000098A4F8090060E710B57D4C0D220021D8
:10468000606BFEF7DBF9A18A606B0A0A42738173E3
:10469000BDE810400F21FEF784BE2DE9F84F02203F
:1046A000FFF755F8724CA084FEF798FE714E6083B8
:1046B000A08CB6F85410FDF74CFEB18D06F1BF0585
:1046C000084480B2A5F80B0008F036F8604907F0FE
:1046D00064FEFEF723FF608BA5F80700217BDFF85F
:1046E000A091DFF8A0A1DFF878B1E1B1328C718C34
:1046F000A046FEF788FE0090D8F8580008F07AF837
:1047000004460F46F08D08F017F80646009808F0AA
:1047100013F8314607F00FFE08F06CF802460B461E
:10472000002052491BE0728D318DA046FEF76BFED2
:104730000090D8F8580008F05DF804460F46F08D58
:1047400007F0FAFF0646009807F0F6FF314607F03B
:10475000F2FD08F04FF802460B460020464907F0EC
:1047600073FF22463B4607F0F7FE04460E46D8F894
:10477000540008F03FF82246334607F0F3FE4A465D
:10478000534607F048FE02460B460020594607F004
:104790005BFF08F042F8C5F803000098A5F809008F
:1047A000CBE610B5324C0D220021A06BFEF746F986
:1047B000A18AA06B0A0A42738173BDE810400F21E1
:1047C000FEF7EFBD2DE9F84F0320FEF7C0FF284CA0
:1047D000E084FEF70AFE274EA083E08CB6F8561060
:1047E000FDF7B7FDB18F06F1CF05084480B2A5F8FB
:1047F0000B0007F0A1FF164907F0CFFDFEF78EFE74
:10480000A08BA5F80700217BDFF87490DFF874A077
:10481000DFF84CB0C1B3328E718EA046FEF7F3FDC7
:104820000090D8F8580007F0E5FF04460F46F08FD7
:1048300007F082FF0646009807F07EFF314607F03A
:104840007AFD07F0D7FF02460B460020074938E003
:10485000000020410000C8417B14AE47E17A943F3C
:104860000000F03F00007A4484D79741D0126341A2
:10487000300000200E1E002080842E41006AF84087
:10488000535C55F65D11AC3FFFE7728F318FA04648
:10489000FEF7B9FD0090D8F8580007F0ABFF0446CA
:1048A0000F46F08F07F048FF0646009807F044FFD8
:1048B000314607F040FD07F09DFF02460B46002001
:1048C000F74907F0C1FE22463B4607F045FE044685
:1048D0000E46D8F8540007F08DFF2246334607F005
:1048E00041FE4A46534607F096FD02460B4600201D
:1048F000594607F0A9FE07F090FFC5F8030000989D
:10490000A5F8090019E610B5E64C0D220021E06B70
:10491000FEF794F8A18AE06B0A0A42738173BDE83E
:1049200010400F21FEF73DBD2DE9F84F0320FEF7A3
:104930000EFFDC4C2085FEF75FFDDB4EE083208D13
:10494000B6F85810FDF705FDB6F84C1006F1DF0576
:10495000084480B2A5F80B0007F0EEFED34907F03B
:104960001CFDFEF7DBFDE08BA5F80700217BDFF8DF
:104970004093DFF840A3DFF840B3E9B136F8402FA9
:10498000A0467188FEF73FFD0090D8F8580007F068
:1049900031FF04460F46F08907F0CEFE0646009828
:1049A00007F0CAFE314607F0C6FC07F023FF0246B7
:1049B0000B460020C1491EE0B6F84A20B6F8481060
:1049C000A0463E36FEF71FFD0090D8F8580007F0CD
:1049D00011FF04460F46308807F0AEFE06460098E9
:1049E00007F0AAFE314607F0A6FC07F003FF0246D7
:1049F0000B460020AA4907F027FE22463B4607F057
:104A0000ABFD04460E46D8F8540007F0F3FE2246EC
:104A1000334607F0A7FD4A46534607F0FCFC024622
:104A20000B460020594607F00FFE07F0F6FEC5F8CA
:104A300003000098A5F809007FE513460A461946C9
:104A4000FBF7DABF10B5984A5A21B020FBF7DEFF1A
:104A50005A21BDE81040944AB120FBF7CDBF10B5F4
:104A6000914A5A21B120FBF7D1FF002806D15A21E3
:104A7000BDE810408C4AB020FBF7BEBF10BD70B53A
:104A80008848C17879B14078262803D0272803D0F8
:104A90008BA002E08BA000E08CA008F02DF9BDE80F
:104AA0007040FDF76EBD804D00240A3D285DFDF786
:104AB00007FD641CE4B2082CF8D370BD2DE9F04367
:104AC000794BC121C222C326C427764D4FF0C509B8
:104AD00003F15A04152861D2DFE800F0600B0E11D3
:104AE00014171B222930373F4245484B4E5154572B
:104AF0005C002170E88A51E02270288B4EE026701D
:104B0000688B4BE02770A88B48E084F80090E88B16
:104B100044E02170288CFEF749FCA3F850003DE0EA
:104B20002270688CFEF742FCA3F8520036E0267033
:104B3000A88CFEF73BFCA3F854002FE02770E88C0C
:104B4000FEF734FCA3F8560028E084F80090288D86
:104B5000FEF72CFCA3F8580020E02170D8891DE056
:104B6000217098891AE02270D88B17E02270988BF8
:104B700014E02670D88D11E02670988D0EE0277015
:104B8000D88F0BE02770988F08E084F80090B3F876
:104B90004E0003E084F80090B3F84C0002216170ED
:104BA000A170010AE17020713F48052200215A30AE
:104BB000FDF744FFA88A010A6171A071BDE8F08386
:104BC00070B5384CE178002968D0374D2E2821D2B5
:104BD000DFE800F02017192326292C2F3134373A2B
:104BE0003D4346494C4F52585B5E6184868C8F92A0
:104BF00095989BA1AAB4BEC8D2D7DCE1E6F0F5FA3D
:104C0000FFEB344801E03348083008F075F8E08ADB
:104C1000FDF75EFCFDF7BDFC09E12E481030F4E71E
:104C20002C481830F1E72B482030EEE7294828308F
:104C3000EBE729480DE0284808300AE02648103004
:104C400007E02548183004E02348203001E02248DE
:104C5000283008F051F8208BDAE71F4850300DE07B
:104C60001D4858300AE01C48603007E01A48683098
:104C700004E01948703001E01748783008F03CF83B
:104C8000608BC5E71448A0302CE01348A83029E019
:104C90001148B03026E01048B83023E0A5E000000D
:104CA00080842E41300000200E1E00200000204194
:104CB000535C55F65D11AC3F0000F03FD0126341EC
:104CC000454E54006261636B757000007265636FDE
:104CD0007665720044270008802B0008E34801E055
:104CE000E248083008F008F8A08B91E7DF48303040
:104CF0000DE0DE4838300AE0DC48403007E0DB48B1
:104D0000483004E0D948503001E0D848583007F026
:104D1000F3FFE08B7CE7D64807F0EEFF208CFEF730
:104D200045FBA5F8500073E7D048903807F0E4FF42
:104D3000608CFEF73BFBA5F8520069E7CB48403892
:104D400007F0DAFFA08CFEF731FBA5F854005FE70F
:104D5000C648103007F0D0FFE08CFEF727FBA5F81F
:104D6000560055E7C148603007F0C6FF208DFEF7BA
:104D70001DFBA5F858004BE7BEA007F0BDFFE88972
:104D800046E7BEA007F0B8FFA88941E7BDA007F03D
:104D9000B3FFE88B3CE7BDA007F0AEFFA88B37E779
:104DA000BCA007F0A9FFE88D32E718E011E00BE0A6
:104DB00005E0FFE7B9A007F09FFFA88D28E7B9A09D
:104DC00007F09AFFE88F23E7B8A007F095FFA88FB8
:104DD0001EE7B8A007F090FFB5F84E0018E7B7A09F
:104DE00007F08AFFB5F84C0012E72E281BD2DFE847
:104DF00000F01A1717171717172323232323232528
:104E00002525252525272727272727292929292932
:104E1000292B2D2F31333537393B3D3F4143454712
:104E20000120FFF74BFE0721A648FEF7BAFA002043
:104E300020710120A07170BD0220F2E70320F0E78D
:104E40000420EEE70520ECE70620EAE70720E8E784
:104E50000820E6E70920E4E70A20E2E70B20E0E784
:104E60000C20DEE70D20DCE70E20DAE70F20D8E784
:104E70001020D6E71120D4E71220D2E71320D0E784
:104E80001420CEE72DE9F04105460C460120FCF741
:104E900065F88C4822462946643807F07FF9894A2C
:104EA0004CF20235643A002650781178012700EB65
:104EB0000120411B844C4FF48073A84276D01CDC47
:104EC0004CF20315A0EB0501A84270D007DCA0F15D
:104ED0000300B0F540405AD0FF2831D168E0FF29E7
:104EE0007BD099422CD106210020FDF7B7FD38B3C5
:104EF000A6712771FDF7FCFF22E040F20115A1F237
:104F00000110A9426AD00EDC012968D0994217D15C
:104F10005079117900EB012002287DD006287BD042
:104F20000A2879D00CE0FF2877D0984208D10621D2
:104F30000020FDF793FD18B1A6712771FEF70AFA5C
:104F400020780C25401F3F2868D2DFE800F0F5F4F8
:104F5000F3F2F1676767F0EFEEEDECEBEAE9E8E713
:104F600067E6E5E4E3E2E1E0DFDE67DDDCDBDAD93A
:104F7000D8D7D6D567D4D3D2D1D0CFCECDCC67CBEE
:104F8000CAC9C8C7C6C5C4C3C2C1C0BF8E00507994
:104F9000117910EB012067D10621FDF75FFD002894
:104FA000CED0A6712771FDF76EFDC9E73CE017E092
:104FB0005079117900EB0120022803D0062801D096
:104FC0000A28BDD106210020FDF748FD0028B7D0F2
:104FD000A6712771FDF784FDB2E70CE0B8E038E078
:104FE00006210020FDF73AFD0028A9D0A6712771FF
:104FF000FDF7C4FEA4E75079117900EB01200228E7
:1050000003D0062801D00A289AD106210020FDF7F6
:1050100025FD002894D002E08FE0A4E0C4E0A67152
:105020002771FDF7CFFE8BE75079117900EB012056
:10503000022803D0062801D00A2881D106210020A9
:10504000FDF70CFD0028B0D0A6712771FDF774FFA5
:1050500076E706210020FDF701FD0028A5D0A67106
:105060002771FEF700F86BE711E1C9E1402C000859
:10507000742700084331434E543D000043314F46EE
:10508000533D00004332434E543D000043324F46EF
:10509000533D00004333434E543D000043334F46DD
:1050A000533D00004334434E543D000043344F46CB
:1050B000533D00004335434E543D000043354F46B9
:1050C000533D0000681E00203000002093E18DE178
:1050D00087E181E13CE162E163E134E12EE128E135
:1050E00022E11CE116E10BE110E111E103E1FDE039
:1050F000F7E0F1E0EBE0E5E0DAE0DFE0E0E0D2E08D
:10510000CCE0C6E0BEE0B8E0B2E0A7E0ACE0ADE0E5
:105110009FE099E093E08DE087E081E076E07BE03E
:105120007CE06EE068E062E05CE036E030E06CE19C
:105130004DE147E141E13BE135E106210020FDF78A
:105140008DFC002884D0A6712771FDF7B0FFF7E62B
:1051500006210020FDF782FC002884D0A67127716B
:10516000FEF73FF8ECE65079117900EB01200228B8
:1051700003D0062801D00A28E9D106210020FDF736
:105180006DFC0028E3D0A6712771FEF74EF8D7E634
:10519000FEF716F9E082012003E0FEF711F9E08244
:1051A0000220FFF70DFD2570A07800286FD06178F0
:1051B000FE482A296CD2DFE801F06BF1F0EFEEED4A
:1051C000ECEBEAE9E8E7E6E5E4E3E2E1E0DFDEDD97
:1051D000DCDBDAD9D8D7D6D5D46B6B6B6B6B6B6B4A
:1051E000D3D26BD1FEF7ECF8E0820320D9E7FEF7CB
:1051F000E7F8E0820420D4E7FEF7E2F8E082052039
:10520000CFE7FEF7DDF8E0820620CAE70020FEF7D0
:105210009EFA20841F20C4E72420C2E72520C0E78F
:10522000FEF7D5F820830720BBE7FEF7D0F82083F0
:105230000820B6E7FEF7CBF820830920B1E7FEF798
:10524000C6F820830A20ACE7FEF7C1F820830B20C4
:10525000A7E7FEF7BCF820830C20A2E70120FEF7A9
:1052600076FA608420209CE726209AE7272098E79A
:10527000FEF7B4F860830D2093E7FEF7AFF8608384
:105280000E208EE7FEF7AAF860830F2089E733E14E
:105290002DE1FEF7A3F86083102082E7FEF79EF869
:1052A000608311207DE7FEF799F86083122078E78C
:1052B0000220FEF74CFAA084212072E7282070E734
:1052C00029206EE7FEF791F8A083132069E7FEF727
:1052D0008CF8A083142064E7FEF787F8A0831520DC
:1052E0005FE7FEF782F8A08316205AE7FEF77DF805
:1052F000A083172055E7FEF778F8A083182050E721
:105300000320FEF724FAE08422204AE72A2048E717
:105310002B2046E7FEF770F8E083192041E7FEF7FF
:105320006BF8E0831A203CE7FEF766F8E0831B2069
:1053300037E7FEF761F8E0831C2032E7FEF75CF800
:10534000E0831D202DE7FEF757F8E0831E2028E7B5
:105350000420FEF7FCF92085232022E7C0E0BCE012
:10536000B8E0B3E0AEE0A9E0A4E09FE09AE096E008
:1053700092E08EE08AE086E082E07EE07AE076E00D
:1053800072E06EE06AE066E062E05EE05AE056E0FD
:1053900052E04EE04AE046E042E03EE03AE02C20B7
:1053A000FFE62D20FDE6FEF73CFAFEF7D2F9FAE61D
:1053B000FEF7C2FBFEF7E3FAF5E6FEF7C7FCFEF7E1
:1053C00068FCF0E6FEF713FEFEF77FFDEBE6FEF766
:1053D00029FFFEF7CAFEE6E6FEF7F8FFFEF7E5FF57
:1053E000E1E6FFF7BDF8FFF7AAF8DCE6FFF755F9AD
:1053F000FFF742F9D7E6FFF7E5F9FFF7D2F9D2E672
:10540000FFF792FAFFF77FFACDE65A216748FDF7DA
:105410003BF9C8E6E18A018069E0E18A418066E003
:10542000E18A818063E0E18AC18060E0E18A0181F4
:105430005DE0E18A41815AE0218B018257E0218BB6
:10544000418254E0218B818251E0218BC1824EE068
:10545000218B01834BE0218B418348E0618B0184E8
:1054600045E0618B418442E0618B81843FE0618B48
:10547000C1843CE0618B018539E0618B418536E078
:10548000A18B018633E0A18B418630E0A18B818620
:105490002DE0A18BC1862AE0A18B018727E0A18B9B
:1054A000418724E0E18BA0F8401020E0E18BA0F8D8
:1054B00042101CE0E18BA0F8441018E0E18BA0F84A
:1054C000461014E0E18BA0F8481010E0E18BA0F842
:1054D0004A100CE0FFF7B6FA09E0FFF7C0FA06E061
:1054E0005A223249B020FFF7A8FA1F206070FFF758
:1054F000C6FA2671A771A670BDE8F0817CB5044696
:105500008079082819D1062104F108000D460646C5
:10551000FCF787FFA17BB1EB102F03D1E27BC1B277
:1055200091420BD0E18922A349BACDE9000140F6AE
:10553000C92224A1042002F08DFC7CBD29463046FE
:10554000BDE87C409EE48068002800D0004770479A
:1055500040F6B8310120FBF7FABD2DE9F0411E48B5
:105560001F21012441700C21017000218170C17044
:10557000017141718171C471047244728472C47288
:1055800001210420FBF702FC01210320FBF7FEFBB5
:1055900001210220FBF7FAFB01210846FBF7F6FB8D
:1055A00001210020FBF7F2FB004A17E00E1E00204D
:1055B0006D69746620637263206661696C2025786A
:1055C0002C257800536F757263655C4150505C6D9B
:1055D0006F646275732E6300300000205A21B02082
:1055E000FBF714FA18B15A210C4806F0F0FDFEF74B
:1055F00077F80B4E0B4DAFF2FB0704EB041000EBFA
:10560000C41005EB8000C0E98D672046FBF713FD51
:10561000641CE4B2022CF0D96EE700000E1E0020DC
:1056200071240008F012002010B5012000F075FB75
:10563000BDE81040002000F070BB1F4908607047B3
:105640001D49091F086070471B4984310860704775
:105650001A4A118821F46071014311807047174A7A
:10566000118821F07F01014311807047134A08B56A
:105670002C3A10440090016008BD104908B52C393F
:1056800008440090008808BD0B489C300068C0B2F8
:1056900070470A480830018841F0010101807047D5
:1056A0000548A0300068C0B270470448083001883F
:1056B00041F002010180704704860D422C6C0040CD
:1056C000374900200860091D0860091D0860091D90
:1056D00008603349334814310860704730B5304AA8
:1056E0008379016853B313688B431360111D0B68F2
:1056F0000468A3430B60017911440B6804682343D9
:105700000B60274B083319680468A14319601C1DFE
:1057100021680568A94321604179102905D0114409
:105720000A68006802430A6030BD196802681143C4
:105730001960216800680143216030BD0079104480
:1057400002688A43026030BD0021016001710C22B1
:10575000427181717047124910310A6802430A6030
:10576000704701460E4A0020143212680A4200D0E7
:10577000012070470A49143108607047084A014601
:1057800000201268064B0A4014331B680B4202D0FB
:10579000002A00D001207047014914310860704789
:1057A00000040140FFFF0F008F4910B5884206D169
:1057B0000121042000F09FFA002104203BE08B49E6
:1057C000884206D10121082000F095FA0021082026
:1057D00031E08749884206D10121102000F08BFA80
:1057E0000021102027E08349884206D10121202092
:1057F00000F081FA002120201DE07F49884206D177
:105800000121402000F077FA0021402013E07B497D
:10581000884206D10121802000F06DFA002180200D
:1058200009E0774988420AD184150121204600F019
:1058300062FA00212046BDE8104000F05CBA10BDBD
:1058400010B50121084600F056FA0021BDE81040CD
:10585000012000F050BAF0B5CC78002204F00F031C
:10586000E40601D58C7823430C784FF00F0C14F02C
:10587000FF0F4FF0010E1BD005680E880EFA02F4E0
:105880002640A64210D196000CFA06F725EA070733
:1058900003FA06F5CE783D43282E02D0482E02D0DA
:1058A00002E0446100E00461521C082AE5D305606F
:1058B0000A88FF2A1CD94468002202F108060EFA61
:1058C00006F50E882E40AE420ED196000CFA06F771
:1058D000BC4303FA06F7CE783C43282E00D145613D
:1058E000CE78482E00D10561521C082AE5D34460C9
:1058F000F0BD4FF6FF710180022181700421C1705B
:1059000070470246002092680A4200D0012070478A
:10591000806880B2704702460020D2680A4200D0F8
:1059200001207047C06880B27047016170474161D3
:1059300070470AB10161704741617047C1607047AB
:1059400041F480328261816182618169806970473E
:105950002C4B10B51A684FF68074224042EA0010B2
:105960000843186010BD2849C8617047F0B5254C40
:10597000002801DAE36900E06368450D2E0185B275
:10598000C0F30157B540C0F30342032F05D0C60250
:105990000AD503269640B34307E023F0706263689C
:1059A00023F07063636002E0AB4343F0706201B1C7
:1059B0002A43002801DAE261F0BD6260F0BD10B553
:1059C0008A0721F003040F49120F21440F238C682A
:1059D00093409C438C608B68904003438B6010BD68
:1059E0000949C1F8DC00704700080140000C014083
:1059F000001001400014014000180140001C01404B
:105A000000200140000001400000204210B50121AB
:105A10000C07204600F078F92046BDE81040002130
:105A200000F072B921490862704720490861704747
:105A30001F4A116821F0E0010143116070471B49C2
:105A4000C1F8A00070471A4B1A6822F00302024303
:105A50001A601848026842F004020260012905D069
:105A600020BF016821F004010160704730BFF8E7F2
:105A70000F48016841F004010160016841F0020132
:105A800001600C48016841F00401016030BF7047BB
:105A9000074A0146002052680A4200D001207047A0
:105AA00003490A6842EA80000860704700000E421D
:105AB0000070004010ED00E0A548016841F00101D0
:105AC00001604168A34A114041600168A24A114047
:105AD0000160016821F480210160416821F4FE0128
