:020000040800F2
:1000000028450020C57A0008FD030008FF0300080A
:1000100001040008030400080504000800000000B3
:1000200000000000000000000000000007040008BD
:1000300009040008000000007BA100080B04000870
:10004000DF7A0008DF7A0008DF7A0008DF7A00082C
:10005000DF7A0008DF7A0008D7070008E907000800
:10006000190800082B0800083D080008710800085E
:10007000DF7A0008DF7A0008DF7A0008DF7A0008FC
:10008000DF7A0008DF7A00084F0800083304000810
:10009000350400083704000839040008C7060008C2
:1000A000DF7A0008DF7A0008DF7A000833050008ED
:1000B0006B050008DF05000853060008DF7A00081A
:1000C000DF7A0008DF7A0008DF7A000831040008D0
:1000D0002F040008070500082B0500082F0500085D
:1000E0003D070008DF7A0008DF7A0008DF7A0008A1
:1000F000DF7A0008DF7A0008DF7A0008DF7A00087C
:10010000DF7A0008DF7A0008DF7A0008DF7A00086B
:10011000DF7A0008DF7A0008DF7A0008DF7A00085B
:10012000DF7A0008DF7A0008DF7A0008DF7A00084B
:10013000DFF80CD00CF0E4FD004800474B0300084A
:10014000284500207047704708F029BD7047704768
:100150007047924A10B51068401C10600A2819D1E7
:10016000002010605068401C6421B0FBF1F3506027
:1001700001FB130010B99068401C906007F0CEFDA1
:1001800009F008FB0024204601F00DF9641CE4B2DC
:10019000032CF8D310BD8149496808448142FDDB36
:1001A000704710B500F018FFBDE8104001F0CCBE5C
:1001B00010B5807830B101280ED0022809D003286C
:1001C0000AD102E0FFF7EDFF06E0002000F0C0FEDC
:1001D00002E0002000F0DEFE002010BD10B5704AE5
:1001E0000021704C1170C07820706F480068407812
:1001F000092809D00D280AD001F0F1FC10B12078AF
:1002000001F0FCFC002010BD01F03EFCF6E701F01F
:100210008EFCF3E708B520208DF8000000208DF853
:100220000100684607F0C3FF08BD10B505F087FE62
:10023000042007F032FF08F02BFA01F0E5F901F095
:1002400099FD09F006FD30B158A340F26B125BA195
:10025000002007F00BFF00F02CFC00F0A9FD00F0DF
:1002600041FE00F0A6FE002000F0AFFE00F064FEAC
:1002700000F08EFE07F040FF554801F0CBFD02F084
:100280002DF905F08CFA08F071FC4FF6FF74234647
:1002900064220221002007F010FD23461E220221C5
:1002A000012007F00AFDBDE81040012000F05ABE11
:1002B00010B5817821B1012907D0112905D102E0BB
:1002C000FFF7B3FF01E001F027FE002010BD002082
:1002D000704710B500210A2007F00BFE002805D05A
:1002E00000218170BDE8104007F01ABE10BD0178F2
:1002F000C91E09290DD2DFE801F005060C0C0C0C13
:100300000A08090054E701F046B9D1E766E701F0B1
:10031000D1BD00207047EAE708B508F0C3FBAFF293
:1003200009034FF400722B49032007F024FE6A46AC
:1003300029A103200AF075FEFFF7CBFF00226423FA
:10034000114610460AF0D7FFF8E700B587B009F06C
:1003500047FF00214FF0006007F08EFB4FF4A060D4
:1003600007F058FB09F0D9FF1E480DF1040C0323D8
:1003700000228021ACE80F000620034600901A4AB4
:1003800000211A480AF0F5FC05AA19A106200AF076
:1003900048FE0AF0C5F807B0002000BD00000020AC
:1003A000210000202200002090DC0008496E6974C2
:1003B00020534E56204572726F720000536F757253
:1003C00063655C4150505C6170702E6300000000FA
:1003D00020A10700180400204D61696E2D5461733F
:1003E0006B000000180C0020140E002019030008F8
:1003F000526F6F742D5461736B0000007047FEE7FD
:10040000FEE7FEE7FEE77047704710B509F094FE7F
:10041000FA49097819B1FA490A78521C0A7009F0A8
:100420008FFE0AF090F8BDE810400AF009B8704756
:1004300070477047704770477047F8B5054600EB46
:10044000C501F04800EB811440F22551D4F81002A8
:1004500007F0B1FA50B1D4F8100207F045FA8DF860
:100460000000E8B20122694600F0D2FE40F2277790
:100470003946D4F8100207F09EFA40F2266620B3FF
:10048000B4F80012B4F80202814204D100223946C5
:10049000D4F8100217E0015DD4F8100207F020FA3A
:1004A00094F80202401C00F07F00A4F8020294F8C5
:1004B0001C12002926D1B4F80012814209D1012270
:1004C0003146D4F8100207F0BFF994F81C02002856
:1004D00018D13146D4F8100207F06DFA002811D077
:1004E000B4F80002B4F8021288420BD1E8B200213D
:1004F00000F010FE3146D4F81002BDE8F8400022AA
:1005000007F0A2B9F8BD10B5BF4C40F22551204606
:1005100007F051FA002807D0204607F0E5F9BDE8BA
:100520001040C0B201F0A7B810BD012085E702203D
:1005300083E710B5B54C0221204606F043FB0028A6
:1005400012D00221204606F049FB204606F023FB8C
:1005500000F57A7081B2204606F00CFB0221BDE85E
:100560001040032009F077B810BD10B501218C07A9
:10057000204606F027FB38B10121204606F02EFB6D
:100580000121002009F067F80221204606F01AFB3D
:1005900038B10221204606F021FB0221002009F09B
:1005A0005AF80421204606F00DFB38B104212046FC
:1005B00006F014FB0421002009F04DF80821204624
:1005C00006F000FB002809D00821204606F006FBB3
:1005D0000821BDE81040002009F03DB810BD10B55D
:1005E0008B4C0121204606F0EDFA38B1012120465E
:1005F00006F0F4FA0121084609F02DF80221204600
:1006000006F0E0FA38B10221204606F0E7FA0221AE
:10061000012009F020F80421204606F0D3FA38B171
:100620000421204606F0DAFA0421012009F013F82B
:100630000821204606F0C6FA002809D008212046E5
:1006400006F0CCFA0821BDE81040012009F003B8FB
:1006500010BD10B56F4C0121204606F0B3FA38B139
:100660000121204606F0BAFA0121022008F0F3FF2A
:100670000221204606F0A6FA38B10221204606F0F3
:10068000ADFA0221084608F0E6FF0421204606F0F4
:1006900099FA38B10421204606F0A0FA042102207C
:1006A00008F0D9FF0821204606F08CFA002809D06E
:1006B0000821204606F092FA0821BDE810400220E9
:1006C00008F0C9BF10BD10B5202005F061F928B1B0
:1006D000202005F06BF9052007F0A5FF402005F06C
:1006E00057F928B1402005F061F9062007F09BFF7B
:1006F000802005F04DF928B1802005F057F907203A
:1007000007F091FF4FF48074204605F041F928B1BD
:10071000204605F04BF9082007F085FF4FF40074E0
:10072000204605F035F9002807D0204605F03EF9AF
:10073000BDE81040092007F076BF10BD10B54FF49A
:100740008064204605F024F928B1204605F02EF9F2
:100750000A2007F068FF4FF40064204605F018F9FE
:1007600028B1204605F022F90B2007F05CFF4FF47A
:100770008054204605F00CF928B1204605F016F902
:100780000C2007F050FF4FF40054204605F000F90C
:1007900028B1204605F00AF90D2007F044FF4FF478
:1007A0008044204605F0F4F828B1204605F0FEF814
:1007B0000E2007F038FF4FF40044204605F0E8F81B
:1007C000002807D0204605F0F1F8BDE810400F20C2
:1007D00007F029BF10BD10B5012005F0E7F8BDE80E
:1007E0001040002007F01FBF10B5022005F0DEF812
:1007F000BDE81040012007F016BF0000DD02002018
:10080000D8020020F012002000380140002C0140E6
:10081000000400400008004010B5042005F0C6F8B0
:10082000BDE81040022007F0FEBE10B5082005F01C
:10083000BDF8BDE81040032007F0F5BE10B510204C
:1008400005F0B4F8BDE81040042007F0ECBE70B528
:10085000384D4FF408742146284606F027FE00283C
:1008600005D021462846BDE8704006F02DBE70BD7B
:10087000314810B501214160816821F0010181609A
:1008800000212C4806F0DCFC01F0ECFA00210920E4
:1008900007F02FFB002805D00021C170BDE81040F3
:1008A00007F03EBB10BDD0E900BAD0E90298103085
:1008B000F0C822A00CF0C6FA594626A00CF0C2FAE5
:1008C000514627A00CF0BEFA494628A00CF0BAFA0F
:1008D000414629A00CF0B6FA21462AA00CF0B2FA43
:1008E00029462BA00CF0AEFA31462CA00CF0AAFA47
:1008F00039462DA00CF0A6FA2E4801682EA00CF067
:10090000A1FA2C48103801682EA00CF09BFA294857
:100910000C3801682EA00CF095FA264808380168BA
:100920002EA00CF08FFA2348001D01682EA00CF0B9
:1009300089FAFEE700240140000002405B48617232
:1009400064206661756C742068616E646C65725DAC
:100950000A0000005230203D2025780A00000000E7
:100960005231203D2025780A000000005232203DFF
:100970002025780A000000005233203D2025780A07
:1009800000000000523132203D2025780A0000008E
:100990004C52203D2025780A000000005043203DA5
:1009A0002025780A00000000505352203D20257871
:1009B0000A00000038ED00E042464152203D20256B
:1009C000780A000043465352203D2025780A000053
:1009D00048465352203D2025780A00004446535291
:1009E000203D2025780A000041465352203D202515
:1009F000780A0000D848704710B5044609F033F96A
:100A0000202C02D1D54A0121117010BD09F099B9ED
:100A1000D348008870472DE9F04116460F46054639
:100A200009F08AFB804606F094F9284606F0CBF9D7
:100A3000002406E03959284606F069FA2D1D241DC8
:100A4000A4B2B442F6D306F090F9404609F078FB20
:100A50000020BDE8F0812DE9F041054608F09FF83F
:100A6000C04C2F684FF4207827606E686660287A43
:100A7000BD4D207242462946A4F222400BF09AFC5A
:100A8000A4F2A230076046602189018108F087F84E
:100A90004246A4F222412846FFF7BDFF0920D8E7CD
:100AA000B0490A6802604A684260097A0172092006
:100AB0007047AC4810B5222122380BF094FCA84AAC
:100AC0000221212009F03DF910B1A549002008803C
:100AD000A44A1021223AA02009F033F920B1A148FC
:100AE000A2A122380BF0B6FC9E4A1021113A1446FE
:100AF000A12009F026F918B19EA120460BF0AAFC0E
:100B0000974A0221921C202009F01BF9964995482A
:100B100080310A6802604A6842600989018110BD1B
:100B200070B5964B1C6822701D6809246C701C6897
:100B3000A0701868C01C0BF03DFC91480078BDE81F
:100B4000704001F05BB810B5C11C18228D480BF045
:100B500031FC192010BD8B4950F8032F80310A60F9
:100B600042684A60008908810B20704700210160BB
:100B700019207047802101600B2070472DE9F04754
:100B80001D4614468946074608F009F8764E4FF48C
:100B90002078424631467B480BF00CFCB87820B1F7
:100BA000012809D0FF20BDE8F08749463846FFF705
:100BB000CAFF0246002006E0002249463846FFF7F9
:100BC000CAFF0246802000212170D02161706D494A
:100BD0000144E01C0BF0EEFB07F0E1FF42466949DF
:100BE0003046FFF718FFA07808B900F0A5FA28787A
:100BF00021780844801C28700020D4E770B58078E4
:100C00001D46144618B1012804D0FF2070BD0021F4
:100C1000192201E080210B22A070501C20701020AE
:100C200060705148521E0144E01C0BF0C3FB287851
:100C300021780844801C2870002070BD10B5091F61
:100C4000CAB210F8021F21B94378811C184600F07F
:100C5000CFFA002010BD4D494B48086070471CB5C5
:100C60008478C2798179CDE9001204F26C744379F9
:100C70000279C178204608F011F81CBD70B51D46F8
:100C8000144608F0C6F906202070C1206070404864
:100C90000179A1F26C71A1708179E170C179217142
:100CA000017861714178A1718078E071287808300D
:100CB000287070BD70B5841C1D46807808F0B3F9AB
:100CC000304901200870C220487020788870287848
:100CD000C01C287070BD70B5447800251646D12C14
:100CE00015D008DCC02C1DD0C12C20D0C22C23D0A4
:100CF000D02C2DD106E0F02C27D0F12C21D0FD2CCA
:100D000026D10AE00A463146FFF738FF03E00A46DB
:100D10003146FFF773FF05461AE00A463146FFF7F2
:100D20008DFFF8E70A463146FFF799FF10E00A46C3
:100D30003146FFF7A3FF0BE00A463146FFF7BAFF43
:100D400006E0012000F028F902E0012000F00AF995
:100D5000284670BDBFE70000FCDB0008280000202B
:100D60000C0000203A12002000F4010841444D49D3
:100D70004E000000383630383630000094DC000871
:100D800022000020180E00200400FA050CED00E0FF
:100D9000C42500200B0051490246A1F10500895CE1
:100DA000805C01D111B1002107F01EBB0121FBE7DE
:100DB0002DE9F041494E0024494D761F4FF4047847
:100DC000305D414607F0E4FA05EB44100746202168
:100DD0000BF009FBE0B20021FFF7DCFF3C70641C64
:100DE000052CEDDBBDE8F08110B504463B48401F03
:100DF000005D07F0ECFA08B1012100E0002137485E
:100E0000005D814201D1012010BD002010BD334999
:100E1000491F085C07F0F7BA10B5044600780021B6
:100E2000FFF7B8FFE069002802D0BDE81040004796
:100E300010BD7CB50D462A4901EB40140121E26149
:100E4000FFF7A8FF201DAFF22F03CDE900402A468F
:100E50000021104608F067FC7CBD10B50446007800
:100E6000FFF7D5FFE069002802D0BDE81040004739
:100E700010BD7CB50D001A494FF0000201EB401483
:100E8000E2610DD00121FFF785FF201DAFF2350390
:100E9000CDE900402A460121104608F044FC7CBD03
:100EA0000021FFF777FF201DBDE87C4008F00BBC58
:100EB00010B5002400212046FFF76CFF641CE4B24B
:100EC000052CF7D310BD10B5002401212046FFF7F3
:100ED00061FF641CE4B2052CF7D310BD16DC0008DA
:100EE0004412002070B50121114804F047FE012191
:100EF0004FF0C05004F0FEFF012004F09BFE0020E4
:100F000004F08AFF002004F095FE0A4D00244FF4FF
:100F10001276285D314607F03BFA641C012CF8DBA1
:100F200070BD044910B5085C07F051FAC0B210BD9D
:100F3000000430001BDC000810B54FF404710F20D2
:100F400007F026FA0121BDE810400F2007F04CBA47
:100F500008B1002100E001210F2007F045BA0F2061
:100F600007F051BA10B504000ED00120FFF7F0FFD2
:100F7000642044430A20B4FBF0F200230121BDE8C1
:100F80001040032006F099BEBDE810400020DFE7C6
:100F90007047704770477047002809D06421484364
:100FA0000A21B0FBF1F200230121022006F085BEE8
:100FB000704710B54FF404710E2007F0E9F90121D4
:100FC000BDE810400E2007F00FBA08B1002100E084
:100FD00001210E2007F008BA0E2007F014BA000015
:100FE00038B500EBC002FE4800EB821494F80C22E6
:100FF00091EA02000DD084F80C12800709D5900701
:1010000008D5D4F83C02002803D06A46012109F033
:10101000F9FC38BD8807FCD5D4F83C020028F8D18B
:1010200009F007FCC4F83C020028F2D194F80C0245
:1010300020F0020084F80C0238BDF0B5054600EB44
:10104000C501E74885B000EB8114D4F830120029BF
:101050005ED028468847D4F81002002858D004F5FE
:101060000474002620798DF810000F208DF81100EF
:101070008DF8126001278DF8137004A806F0CFFCDC
:1010800020690090207DD74931F81000ADF80400A8
:10109000607D091D31F81000ADF80600A07D891DA6
:1010A00031F81000ADF808000C20ADF80C60ADF878
:1010B0000A00207A694608F095FB2068A4F50474BC
:1010C000012240F2255106F0BFFBC5480C3850F80C
:1010D000251051B994F80C1240F8257084F80C7260
:1010E0002846C4F83C62FFF77BFF94F82702A4F877
:1010F000080294F81C0200280AD194F82C024FF43C
:10110000447107F045F994F82C02002107F06CF9BE
:1011100005B0F0BD00EBC002B14800EB821090F8C2
:101120001C22002A07D190F82C0209B1012100E00D
:10113000002107F059B9704710B50024E0B2FFF75D
:101140007CFF641C032CF9DB10BD70B515460E4600
:101150000246032817D2A24802EBC20100EB811419
:10116000B4F80202B4F80012884201D1802007E0EE
:10117000401A8030C11700EB516121F07F01401A05
:1011800080B2A84201D2002070BD01211046FFF7B5
:10119000C1FFB4F80002B4F80212884203D3C0F1D0
:1011A0008002AA420ADD20442A4631460BF002F9A9
:1011B000B4F800022844A4F8000210E020443146AC
:1011C0000BF0F8F8B4F80002C0F180008119281A79
:1011D00085B220462A460BF0EDF8A4F80052012211
:1011E00040F22771D4F8100206F02EFB012070BDEA
:1011F00030B47D4B012418705C7030BCA5E7784A90
:1012000000EBC00002EB80100021A0F80A1270472A
:101210002DE9F0410646DFF8C8C100EBC6000CEB33
:1012200080141546D4F838320F4623B1304698471B
:101230000120BDE8F081B4F80622B4F804024FF4AE
:10124000C071824206D0131A03F5C07393FBF1FEFE
:1012500001FB1E3189B2A94201D20020E9E78021B9
:1012600006EBC60301EB8311904203D3C0F5C072B5
:10127000AA420BDD604408442A4639460BF09AF82E
:10128000B4F804022844A4F8040212E060440844BC
:1012900039460BF08FF8B4F80402C0F5C070C119DC
:1012A000281A85B204F180002A460BF083F8A4F8CE
:1012B00004523046FFF7A3FFBAE700EBC0024848EC
:1012C00000EB8210A0F808120021A0F80A12704763
:1012D00000EBC001424800EB811000F50270C17FB5
:1012E00001800021418070472DE9F04706463C4FC0
:1012F00000EBC60007EB80148946B4F80602B4F888
:101300000412C0F5C070154601444FF4C07891FB3B
:10131000F8F208FB121080B2854200D30546E5B30F
:1013200008F00AFF8246B4F80602B4F804228021CD
:1013300006EBC60301EB8311904204D2384401440A
:101340002A46484613E0C0F5C072AA42F6DC38448B
:10135000014448460BF02EF8B4F80602C0F5C07000
:10136000291A0A04120C04D004F1800148440BF03D
:1013700021F8B4F806024119B1FBF8F208FB12108B
:10138000A4F80602B4F80412884204D10020A4F89C
:101390000402A4F80602504600E001E008F0D0FE86
:1013A0002846BDE8F0877FB5064600EBC6010C482D
:1013B00000EB8114B4F80602B4F80412884230D06D
:1013C000B4F80A22521C92B2A4F80A22B4F80832E5
:1013D0009A4226D3C0F5C07008444FF4C07105E0AE
:1013E000F01200201CDC00081800002090FBF1F235
:1013F00001FB120085B294F80C02800712D5002080
:1014000000900190029003906946D4F83C0209F0E4
:101410009CFB9DF80C0028B10221D4F83C0209F095
:101420002CFB7FBD2946042006F063FD0400F8D0A4
:101430002A4604F108013046FFF756FFA670E58002
:1014400004B02046BDE8704006F06ABD70B500F1FA
:10145000100300EBC001604800EB811404F508752F
:101460002A460C21184608F06CFC20B12846FF22C1
:101470000C210AF0B1FFD4F82002B0F5E13F03D906
:101480004FF41650C4F8200294F8241200200229C8
:1014900001D384F8240294F82512032901D384F897
:1014A000250294F82612032901D384F8260294F821
:1014B00027020221FA2801D8022801D284F8271233
:1014C00070BD454900EBC00001EB801090F80C02A4
:1014D000704700EBC001404800EB8110B0F80612E5
:1014E000B0F80402814201D101207047002070470A
:1014F000F8B50F46044600EBC4013748164600EB2A
:10150000811595F80C02012810D08BB12046FFF709
:10151000E0FF68B16A461946D5F83C0209F010FAB6
:10152000324639462046FFF7DFFEF8BD0020F8BD01
:10153000324639462046BDE8F840D5E600EBC00209
:101540002548002100EB821000F5017041800180E8
:10155000C180704710B504461F4900EBC40001EB81
:101560008010D0F8100206F0BDF82046BDE810400B
:1015700063E500EBC001184800EB8110B0F80212DF
:10158000B0F80002081A8030C11700EB516121F059
:101590007F01401A704710B5104C817823788B4238
:1015A0000CD1627852B1827900F10801184600F03E
:1015B000A6F800206070FF2020700AE0032908D2FE
:1015C00001EBC102044901EB8211D1F8341201B1DF
:1015D0008847002010BD0000F012002018000020F5
:1015E00010B50C46480702D0002000F029FBE006A9
:1015F00009D564480078C10701D1800703D5BDE84B
:10160000104008F049B910BD10B586B000244FF461
:10161000E1300090ADF808400C20ADF80440ADF882
:101620000A00ADF80640ADF80C406946204608F0C7
:10163000D9F825208DF810000F208DF811008DF8B5
:10164000124001208DF8130004A806F0E8F90122E9
:1016500040F225514C4806F0F7F84FF402714B4820
:101660000AF0C1FEAFF287004849C1F8040200F059
:1016700070FB06B010BD454991F80022885401F571
:1016800000710878401C08704A6804210020104747
:1016900010B53D4C0146204606F022F94021204677
:1016A00006F07FF90028F9D010BD70B50D4606464A
:1016B000002404E0305DFFF7EBFF641CE4B2AC42B1
:1016C000F8D332481021D0F80422BDE87040002041
:1016D000104770B5BF2A11D82D4B1C6822701D68A9
:1016E00009246C701C68A0701868C01C0AF062FEA7
:1016F00028480078BDE8704000F080BA70BD4030E6
:10170000C0B2E6E710B514460A4608B1002010BD85
:10171000E1B21046FFF7C9FF204610BD78B91B4A59
:1017200092F8003292F80102834208D0105C0870EF
:1017300092F80102401C82F801020120704700204B
:10174000704710B504460AF063FE2146C2B2BDE8F8
:1017500010403020BDE70FB40F4900B5096891B0C3
:10176000884207DC14AA684613990BF097FB684679
:10177000FFF7E7FF11B05DF814FB052801D2064919
:10178000086070472800002000380140B019002090
:1017900094DC0008220000201C0000202DE9FE4FF0
:1017A0001C468946022A3FD3017841293CD1417821
:1017B0005429FBD14FF0000A00F802A0921E12F04B
:1017C000FF0600F1020530D028780D282DD00A2818
:1017D0002BD08CA083460AF01BFEC7B2DFF8308204
:1017E000BE4205D33A46294658460AF03CFE30B37D
:1017F00088A083460AF00CFEC7B2BE4206D33A4622
:10180000294658460AF02FFE00286ED083A7384696
:101810000AF0FEFDC4B2A642C5D322462946384688
:101820000AF021FE002873D0E3E04F2189F8001070
:101830004B2189F801102078801C1870E0E0E8192D
:1018400001AB02AA3D2106F0B2FF0028ECD0002532
:10185000744F08E007EB8600C16802980AF0DFFDCC
:1018600040B16D1CEDB205EB850637F82600002867
:10187000F0D1BEE0019801783F290BD005EB85013E
:1018800007EB8105297A012930D0022933D00429B8
:1018900036D038E005EB850007EB800598F80000AE
:1018A000A97A814258D8687A10B1012814D0A7E0EB
:1018B0002A7A684669680AF07DFD287A012805D0F1
:1018C000022806D0009B58A1EA6808E09DF8003085
:1018D000F9E7BDF80030F6E76B68EA6854A14846BE
:1018E00072E02178084420708AE03BE00AF0CAFDEB
:1018F0008DF8000007E00AF0C5FDADF8000002E039
:101900000AF0C0FD0090687A18B1012807D010E0F5
:1019100062E02A7A694668680AF04CFD09E001989D
:101920000AF076FD297A884203D8686801990AF09E
:1019300091FDA97A98F8000081420DD8297A37F8EC
:1019400026006A46FFF758F82969044609B1684637
:1019500088472046BDE8FE8F37A14846EA680BF06D
:1019600081FABEE729A0019028A03D4400902621DD
:10197000284606F0C9FE28460AF04AFD28B1284646
:1019800001950AF045FD05446D1C28460AF040FD0E
:1019900018B1284600950AF03BFD01A806F0E5FEC7
:1019A000684606F0E2FE2A4801990AF038FD28B997
:1019B0002748009911300AF032FD40B188F800A0A4
:1019C00024A1DDE9003248460BF04CFA89E70121F9
:1019D00088F8001024A1F4E7281901AB6A463D21DC
:1019E00006F0E5FE28B1082224A100980AF03BFD8C
:1019F00008B1FF20AEE701980AF044FD06F04DFB68
:101A00000020A7E72B434F4E4649473D000000000A
:101A1000200000202B4C4F473D0000002B44424744
:101A20003D0000002CDC000825733A2575000000FD
:101A300025733A2573000000636F6E666967202581
:101A4000733A20756E617574686F72697A656400A7
:101A5000181200204C4F472025732625733A204644
:101A600061696C65640000004C4F47202573262592
:101A7000733A205375636365656400004442474CC4
:101A80004556454C00000000F8B5B64C01238DF8D2
:101A90000030B54E2068002572798178D01E21294A
:101AA00043D005DC39B3012927D0202904D129E00E
:101AB000222930D0502938D0D4E90010001D0AF076
:101AC00079FC9DF8000071790844C01E8DF8000073
:101AD000012561689DF80000087020686168407801
:101AE000487020686168807840F080008870606885
:101AF000C5700120F8BDF371EBE708F096F80220FD
:101B0000F071E6E7C2B2616820686B46091DC01C2F
:101B1000FFF744FE07E0C2B2616820686B46091D0A
:101B2000C01CFFF717F90546D3E70020F8BD70B5D4
:101B30008C4D012400262868807807280CD006DC0C
:101B4000042809D0052817D0062804D129E0202828
:101B500039D021283CD0012668680470286869685B
:101B60004078487028686968807840F08000887004
:101B70006868C670012070BD68680C210171401D45
:101B800007F0E7FE794968680A88120A4274097802
:101B9000817468680822133075490AF00BFC182418
:101BA000DAE7FEF727FF0AF033FC6968044608719C
:101BB000FEF720FF014668682246401D0AF0FAFB46
:101BC000A41CE4B2C8E72868C01CFEF744FFC3E7C2
:101BD0006868001DFEF764FF401CC4B2BCE76148A2
:101BE0000122114643681A7042684368927842F0B5
:101BF00080029A704068C1700120704770B5594EDC
:101C00000546002370681C4619460078C01CC2B205
:101C100003E0405C4340491CC9B270689142F8D36C
:101C2000835451487368921C817803F8011CFE218B
:101C3000817071682846491EFFF764FD204670BD1B
:101C4000F8B505460024484E3DE0B17931B101298F
:101C50000CD0022916D0032935D126E09DF80000CA
:101C6000FE2801D0FD282ED101201CE09DF80000A7
:101C7000BF2801D9B47126E00221B1713471F4702A
:101C8000C01C7071F1789DF800004140F170354939
:101C90003279096888543079401CC0B2307171794A
:101CA000884210D10320B0710DE0B471F0789DF836
:101CB0000010884207D100210B2006F01AF910B15C
:101CC000C57006F02DF9012269462846FFF726FD6A
:101CD0000028BAD1F8BD70B50025234C2FE010F8CC
:101CE000012BA37933B1012B08D0022B10D0032B89
:101CF00025D11EE0FE2A22D1012218E0BF2A01D9F7
:101D0000A5711CE00223A3712571E570D31C6371DA
:101D1000E3785340E370134B26791B689A55227978
:101D2000521CD2B2227163799A4208D10322A27165
:101D300005E0A571E378934201D1012070BD0A004E
:101D4000A1F1010189B2CAD1002070BD0649887095
:101D50007047054800218171C17101704170FE21F9
:101D60008170704790DC0008210000200E000020E8
:101D70001000002009490AA00BF064B870B5094DA5
:101D80000446C1B2284605F0ABFD4021284605F0C7
:101D900008FE0028F9D0204670BD000098DC00083D
:101DA000257300000038014008B50B208DF80000B5
:101DB0000F208DF8010000208DF8020001208DF821
:101DC0000300684605F02BFE08BD414810B52821E8
:101DD000C16040494161816841F0010181603E4C30
:101DE0000121204605F02CFA0121204605F05DFA7C
:101DF000002010BD394910B5B1FBF0F1002007F00B
:101E0000B0FA0023AFF23D02BDE8104001211846B0
:101E100007F0F5BB1CB504460121112004F061F860
:101E200000218DF807108DF806101F21ADF8041061
:101E300001A92B4803F019FEFFF7B6FF4FF440400D
:101E400003F0E3FF0320009005230A222821214804
:101E500007F0F0FF2046FFF7CDFF01211E4805F0F7
:101E600024FA1CBD30B500201A4A0146503242F80F
:101E70002010401C0528FAD3164B0020002101EB4E
:101E8000810403EB440452F8205034F81040491CFC
:101E90002C4442F820400829F1D3401C0528EDD3FA
:101EA00030BD052801D3002070470A49503151F850
:101EB0002000704700B50B4B0022D0B2FFF7F1FFB6
:101EC00003EB8201521C0864052AF6DB002000BDEA
:101ED00000000240401D00200024014040420F004D
:101EE00000100140101F002070B5F74E0546002479
:101EF000A54203D0305D012106F076FA641C022C65
:101F0000F6DB705DBDE87040002106F06DBAEE4969
:101F1000085C012106F068BA8168002901D0C06818
:101F20000847704770B50C46054608210A2005F0A1
:101F3000E0FF002807D011218170C0E90254BDE8FC
:101F4000704005F0EDBF70BD70477CB5044608F0E9
:101F5000E4F8002214231146104609F0CCF90123BD
:101F600001AA2021204608F053F89DF8040000F053
:101F70000F00092808D0D5A3D022D9A100200094B1
:101F800006F074F801207CBDDB4804EBC4010D1899
:101F9000002115F8282F204608F08FF8EA78012153
:101FA000204608F08AF8AA790221204608F085F830
:101FB000D2A3D922CAA10420009406F057F8002029
:101FC0007CBD2DE9FC41064642F010008DF804006E
:101FD00041F010001C468DF805000227089D01AB5A
:101FE000102200213046009708F01AF88DF80450AE
:101FF0008DF8054001AB082201213046009708F01A
:102000000FF8BDE8FC811CB500218DF804100321F8
:1020100000910DF105031822012107F0D8FF9DF86A
:1020200005009DF80610000440EA01209DF8071005
:1020300008431CBD38B5B04B03EB800254688C429A
:102040000FD051604022009200EBC0021A4401EB15
:1020500041031A442832C9B253781278C0B2FFF74C
:10206000B0FF38BD10B510281DD0AD4C00EB80017D
:1020700004EB81018968012904D0BDE81040C0B299
:1020800000F06BB808F0B0F804F251142178491C44
:1020900001F00F0121701021617008F0A9F8BDE86E
:1020A000104000F08DB810BD0146AFF2470039E78F
:1020B0002DE9F8439A4F97F8520110284BD000EBC6
:1020C000800007EB8006B068002844D109F096F93B
:1020D0004FF0E02080694FF4967006F0FCFC347BF2
:1020E000DFF81482757B04EBC40101EB080005EBFB
:1020F00045010844283081784907090E009143784A
:10210000027829462046FFF75CFF204607F0AAFF29
:1021100018B92046FFF777FF814604EB440208EB2D
:10212000820101EB8501C1F8109008F05DF80446CA
:10213000304600F043FA07F251173878401C00F09F
:102140000F00387010207870204608F051F8BDE874
:10215000F84300F035B8BDE8F8837CB50646704911
:1021600000EB860001EB800401F5AA75A06848B178
:10217000012818D1CDE90065207BAFF2D3030246D8
:1021800000210EE0A07B617B0028207B0CD0FFF7B4
:1021900051FF0020A073AFF2EF03CDE900650246C6
:1021A000014607F0C0FA7CBDFFF744FF5248012109
:1021B000C160C1680029FCD1BDE87C40002077E700
:1021C000574991F8502191F85101824203D11020D2
:1021D00081F85201704791F85221102AFAD181F802
:1021E0005201BAE72DE9F0470F46032190FBF1F5C4
:1021F0004B4C01FB150694F8500194F85111401C0A
:1022000000F00F00884208D1BDE8F04745A340F236
:102210000F1233A1042005F029BF07F0E5FF814626
:1022200094F85001002100EB800004EB800004EBE7
:10223000C508076194F8500100EB800004EB8000B2
:10224000816094F8500100EB800004EB800005737E
:1022500094F8500100EB800004EB8000467394F882
:10226000500100EB800004EB8000817308F5A07042
:10227000074600F0AAF9282120B11F4800EB85008D
:10228000406802E0D8F84401407BB04206D094F8A0
:10229000500100EB800004EB8000817394F8500142
:1022A000394600EB800004EB800000F07EF994F8E2
:1022B0005001401C00F00F0084F85001484607F020
:1022C00097FFBDE8F0477BE7CCDC00086173206333
:1022D000686C3A2578206661696C0D0A0000000080
:1022E000536F757263655C4150505C446973706CE8
:1022F00061792E6300000000101F0020496E697490
:1023000069616C697A65206164373739392063689F
:102310006C3A257820737563636565640D0A000067
:10232000A41D002051756575652066756C6C200DC7
:102330000A00000070B5954C05460E4694F8500111
:1023400094F85111401C00F00F0088420AD1AFF2FE
:102350002C034FF49F72AFF27801BDE87040042067
:1023600005F084BE07F040FF94F85021034602EBCD
:10237000820004EB8000066194F85011012001EB0B
:10238000810104EB8101886094F8500100EB80002A
:1023900004EB8000057394F85001401C00F00F001E
:1023A00084F85001184607F023FFBDE8704007E7A6
:1023B0007047F8B5032190FBF1F401FB1406314698
:1023C0002046FFF737FE282006F0A4FB704D0120C1
:1023D000E860E8680028FCD14FF4967006F07BFBBB
:1023E00004EBC400284406EB4601084428308178F9
:1023F0004907090E009143780278F1B2E0B2FFF785
:10240000E0FDE0B207F02EFE10B14FF0FF30F8BD56
:10241000E0B2BDE8F840F6E55E4A10B5106880F01D
:10242000030010605C4B0A21186890FBF1F401FB7B
:10243000140141B9116881F0C001116057490A685F
:1024400082F480720A605349091F0968490604D55D
:102450004F49CA680AB10022CA60401C18600020B7
:1024600010BDF8B50146012006F07BFF0023AFF256
:1024700057020121084607F0C2F801210C2003F0A1
:1024800030FD0324434EADF8004010258DF8035075
:102490000C3E8DF802406946304603F0E6FAC02053
:1024A000ADF800008DF803508DF8024069463046C3
:1024B00003F0DBFA2E01ADF8006038488DF80350C8
:1024C0008DF8024069460C3803F0CFFA3149C32039
:1024D000091D08603148001D0660F8BDF8B554219B
:1024E0002B4809F080FF2E4D00244FF44476285DE0
:1024F000314605F04DFF285D012105F075FF641C94
:10250000022CF4DB22480221283001220170142120
:10251000417082700023C370017142718371C17177
:10252000027243728172C272037341738273C37306
:10253000017442744FF4B671144809F054FF144901
:102540002C3908460160416008318160C16010216A
:102550008174002007F0EAFC0020FFF7F6FC012060
:10256000FFF7F3FC0022402412231146104600948A
:10257000FFF727FD12230022022101200094FFF71C
:1025800020FDBDE8F8404FF4AF606AE7A41D0020CD
:10259000101F00200C0C01402C0000200C080140F2
:1025A000CCDC00080A6800F025B84B680A461946DA
:1025B00000F020B803C8416008607047D0E90012FD
:1025C0004A6011600060406070470168814201D13B
:1025D000012070470020704702680A60516040681F
:1025E00048600160704700B50346FFF7F5FF1B60C8
:1025F0005B6000BD5060C0E90021086070470000CA
:1026000010B5FF4C002104EB410334F811205B8826
:1026100090420FDC98420DDD101A00EB8000400064
:10262000D21AB0FBF2F001EB810100EB41003C3823
:1026300080B210BD491C89B26B29E4D340F2E93065
:1026400010BD414347F6F872101A91FBF0F000B547
:1026500080B247F68A71884201D9EA4800BD40F24B
:10266000A721884202D24FF47A7000BDFFF7C8FF5D
:10267000B0F5AA7F01DD001F00BDB0F5A57FFBDD31
:10268000801E00BD012300221146104608F033BE13
:10269000002203461146104608F02DBEF0B506464E
:1026A000002004464AF201050EE0325D002382EA72
:1026B0000007FF0702D085EA500000E040085208FA
:1026C0005B1C082BF3DB641C8C42EEDBF0BD401C72
:1026D000C0B2FEF73ABD30B50C460546FFF7DEFF47
:1026E000010A29552919487030BD70B5054600EB1F
:1026F000C501C54800EB81144FF40371204609F071
:1027000072FE04F503740120207000262674BF4970
:1027100061602621C4E9021084F820002846FEF7F3
:1027200095FE4FF41650606126766676A67670BDEB
:1027300001B501216846FEF7B8FF08BD0AF082BB6B
:10274000B349B0FBF1F201FB120142F21072B1FB8E
:10275000F2F3AB4930335C394B73B0FBF2F302FB5D
:1027600013034FF47A72B3FBF2F330338B73B0FB85
:10277000F2F302FB13036422B3FBF2F33033CB73A7
:10278000B0FBF2F302FB13030A22B3FBF2F3303384
:102790000B74B0FBF2F302FB130030304874704747
:1027A00042F21071B0FBF1F201FB12014FF47A72A8
:1027B000B1FBF2F3924930335C394B73B0FBF2F367
:1027C00002FB13036422B3FBF2F330338B73B0FBD1
:1027D000F2F302FB13030A22B3FBF2F33033CB73A1
:1027E000B0FBF2F302FB1300303008742020487471
:1027F000704710B50D20FFF79BFFBDE810400A2081
:1028000096E710B57E4C5C3C607BFFF791FFA07BA8
:10281000FFF78EFFE07BFFF78BFF207CFFF788FF41
:10282000607CFFF785FFBDE81040E2E7744B10B510
:102830005C3B64220A21002803DA401CC04380B2BA
:1028400001E080B20CB12D2400E020245C73B0FBC9
:10285000F2F402FB1402B2FBF1F230329A73B0FBD5
:10286000F1F201FB12003030D87310BD10B5644C8A
:102870005C3C607BFFF75CFFA07BFFF759FF2E20DD
:10288000FFF756FFE07BFFF753FFBDE81040B0E7CE
:102890005F4970B5B0FBF1F201FB120242F2107118
:1028A000B0FBF1F3B2FBF1F201FB13034FF47A71C9
:1028B000B3FBF1F4B0FBF1F301FB13036421B3FBB1
:1028C000F1F5B0FBF1F301FB13000A21B0FBF1F6C7
:1028D0003032D0B2FFF72CFF3034E0B2FFF728FFE0
:1028E0002E20FFF725FF3035E8B2FFF721FF303605
:1028F000F0B2BDE870401BE770B5064640480D4693
:102900005C38C078002879D0424C2088FFF718FF47
:1029100041A00AF097FAFFF774FF6088FFF710FFF5
:102920003FA00AF08FFAFFF76CFFA088FFF708FFBF
:102930003DA00AF087FAFFF764FFE088FFF700FF89
:102940003BA00AF07FFAFFF75CFF2089FFF7F8FE53
:1029500039A00AF077FAFFF754FF6089FFF7F0FE1D
:1029600037A00AF06FFAFFF74CFF37A00AF06AFAB7
:10297000B4F85000FFF78CFF35A00AF063FAFFF7B8
:1029800038FFB4F90C00FFF751FF32A00AF05AFAF1
:10299000FFF76CFFE089FFF703FF31A00AF052FA5E
:1029A000FFF72FFF208AFFF7CBFE30A00AF04AFA8C
:1029B000FFF727FF608AFFF7C3FE2EA00AF042FA56
:1029C000FFF71FFFA08AFFF7BBFE2CA00AF03AFA20
:1029D000FFF717FFE08AFFF7B3FE2AA00AF032FAEA
:1029E000FFF70FFF208BFFF7ABFE28A00AF02AFAB3
:1029F000FFF707FF608BFFF7A3FE4BE05FE10000EE
:102A00008C00002018FCFFFFF01200200044004062
:102A1000A08601006E1F002043314856523D000041
:102A2000433148483D0000004331484C3D00000020
:102A300043314C483D00000043314C4C3D00000008
:102A400043314C56523D00005254313D00000000CD
:102A50006B00000054314F66667365743D000000E2
:102A60004331436F6E73743D00000000433248569B
:102A7000523D0000433248483D0000004332484C7C
:102A80003D00000043324C483D00000043324C4CB6
:102A90003D000000FBA00AF0D5F9FFF7B2FEFBA055
:102AA0000AF0D0F9B4F85200FFF7F2FEAFF260007E
:102AB0000AF0C8F9FFF79DFEB4F91C00FFF7B6FE57
:102AC000F4A00AF0BFF9FFF7D1FEE08BFFF768FE34
:102AD000F3A00AF0B7F9FFF794FE208CFFF730FE61
:102AE000F2A00AF0AFF9FFF78CFE608CFFF728FE2A
:102AF000F0A00AF0A7F9FFF784FEA08CFFF720FEF4
:102B0000EEA00AF09FF9FFF77CFEE08CFFF718FEBD
:102B1000ECA00AF097F9FFF774FE208DFFF710FE86
:102B2000EAA00AF08FF9FFF76CFE608DFFF708FE50
:102B3000E8A00AF087F9FFF764FEE8A00AF082F93E
:102B4000B4F85400FFF7A4FEAFF2FC000AF07AF9E3
:102B5000FFF74FFEB4F92C00FFF768FEE1A00AF082
:102B600071F9FFF783FEE08DFFF71AFEE0A00AF08F
:102B700069F9FFF746FE208EFFF7E2FDDFA00AF0BD
:102B800061F9FFF73EFE608EFFF7DAFDDDA00AF087
:102B900059F9FFF736FEA08EFFF7D2FDDBA00AF051
:102BA00051F9FFF72EFEE08EFFF7CAFDD9A00AF01B
:102BB00049F9FFF726FE208FFFF7C2FDD7A00AF0E4
:102BC00041F9FFF71EFE608FFFF7BAFDD5A00AF0AE
:102BD00039F9FFF716FED5A00AF034F9B4F856001B
:102BE000FFF756FEAFF298100AF02CF9FFF701FE3E
:102BF000B4F93C00FFF71AFECEA00AF023F9FFF764
:102C000035FEE08FFFF7CCFDCDA00AF01BF9FFF7F2
:102C1000F8FDB4F84000FFF793FDCCA00AF012F9DC
:102C2000FFF7EFFDB4F84200FFF78AFDC9A00AF0F4
:102C300009F9FFF7E6FDB4F84400FFF781FDC7A0EE
:102C40000AF000F9FFF7DDFDB4F84600FFF778FD64
:102C5000C4A00AF0F7F8FFF7D4FDB4F84800FFF776
:102C60006FFDC2A00AF0EEF8FFF7CBFDB4F84A0002
:102C7000FFF766FDBFA00AF0E5F8FFF7C2FDBFA0B1
:102C80000AF0E0F8B4F85800FFF702FEAFF2402077
:102C90000AF0D8F8FFF7ADFDB4F84C00FFF7C6FD19
:102CA000B8A00AF0CFF8FFF7E1FDB4F84E00FFF747
:102CB00077FDB7A00AF0C6F8BDE87040A1E5002492
:102CC00004E0305DFFF734FD641CE4B2AC42F8D39D
:102CD00070BD00B508441146FFF7E0FCAF4988829B
:102CE00000BD00B508441146FFF7D8FCAB49888207
:102CF00000BDAB4A10B55318525C5B7803EB02225F
:102D000094B20A460146A648FFF7EBFFA348408A63
:102D1000844201D1012010BD002010BDA04810B593
:102D2000C17880784FF0000201EB002081B29B480F
:102D300011F0FF0F1DD10C1201210A2C19D2DFE86E
:102D400004F0180507090B180E111416817010BD38
:102D5000262205E0272203E06021417110BD2922CF
:102D60004270F3E70D21017010BDC17010BDC2703B
:102D700010BD027110BD2DE9F0418948874C48F221
:102D80008767C1788078002301EB002081B2CA1BDD
:102D9000012505266078B94251D017DC48F2810739
:102DA000A1EB0702B9422DD007DC032964D03F20F4
:102DB000042962D0052921D104E1A2F50072023A6A
:102DC00029D0A2F50072023A18D12EE040F206672F
:102DD000A2F20661BA4251D008DCA2F50072023AB2
:102DE00037D0A2F50072023A08D13BE0A1F500719C
:102DF000023944D0A1F58441423941D02371A571F3
:102E0000BDE8F081012804D001210020FDF7C2FFB8
:102E100065700E20CFE0022805D001210020FDF7CB
:102E2000B9FF022060700F20C5E0032805D0012102
:102E30000020FDF7AFFF032060701020BBE00428E6
:102E400005D000210846FDF7A5FF04206070112081
:102E5000B1E0052804D000210846FDF79BFF66700D
:102E60001220A8E0062805D000210846FDF792FFB1
:102E70000620607013209EE09FE0A0E092E093E0C7
:102E800094E0000043324C56523D00005254323D13
:102E90000000000054324F66667365743D00000008
:102EA0004332436F6E73743D000000004333485655
:102EB000523D0000433348483D0000004333484C36
:102EC0003D00000043334C483D00000043334C4C70
:102ED0003D00000043334C56523D00005254333DF8
:102EE0000000000054334F66667365743D000000B7
:102EF0004333436F6E73743D000000004334485603
:102F0000523D0000433448483D0000004334484CE3
:102F10003D00000043344C483D00000043344C4C1D
:102F20003D00000043344C56523D00005254343DA5
:102F30000000000054344F66667365743D00000065
:102F40004334436F6E73743D0000000043354856B0
:102F5000523D0000433548483D0000004335484C91
:102F60003D00000043354C483D00000043354C4CCB
:102F70003D00000043354C56523D00005254353D53
:102F80000000000054354F66667365743D00000014
:102F90004335436F6E73743D000000003000002025
:102FA000641F0020142006E0152004E0202801D032
:102FB000202060701620207022E7267020E7207005
:102FC00025731DE7207023731AE730B5F948F94DD2
:102FD0004FF02504C178807805F10A0501EB002047
:102FE00081B2F448A1F50C418D39427900794FF056
:102FF000010302EB0020F04A07D0A1F5007102396D
:1030000005D000201071937130BDA88100E0E881E7
:103010005470937030BD70B5E648E74C49F297663E
:10302000C1788078002501EB002081B28A1B012342
:103030006078B14251D017DC49F29106A1EB06024B
:10304000B1422CD007DC0E2972D040200F2971D05C
:10305000102921D171E0A2F50072023A29D0A2F51F
:103060000072023A18D12EE040F20666A2F2066122
:10307000B24250D008DCA2F50072023A37D0A2F575
:103080000072023A08D13CE0A1F50071023944D047
:10309000A1F55051343942D02571A37170BD072874
:1030A00005D001210846FDF775FE07206070182045
:1030B0003AE0082805D001210846FDF76BFE0820FC
:1030C0006070192030E0092805D001210846FDF77D
:1030D00061FE092060701A2026E00A2805D0002130
:1030E0000120FDF757FE0A2060701B201CE00B2812
:1030F00005D000210120FDF74DFE0B2060701C2043
:1031000012E00C2805D000210120FDF743FE0C2021
:1031100060701D2008E01E2006E01F2004E021282A
:1031200001D0212060702020207070BD00E001E0FF
:103130000620F9E720702373F7E720702573F4E782
:1031400030B59C489B4D4FF02504C178807805F13F
:103150000A0501EB002081B29648A1F51C419D397A
:10316000427900794FF0010302EB0020924A07D028
:10317000A1F50071023905D000201071937130BDA6
:10318000A88300E0E8835470937030BD2DE9F041CE
:103190008848894C4AF2A767C1788078002301EB00
:1031A000002081B2CA1B012622256078B94251D085
:1031B00017DC4AF2A107A1EB0702B9422CD007DCC9
:1031C000192971D041201A2970D01B2921D170E012
:1031D000A2F50072023A29D0A2F50072023A18D183
:1031E0002EE040F20667A2F20661BA4250D008DC37
:1031F000A2F50072023A37D0A2F50072023A08D165
:103200003CE0A1F50071023944D0A1F518512639EE
:1032100042D02371A671F3E50D2805D001210220CB
:10322000FDF7B8FD0D2060702570E9E50E2805D08A
:1032300001210220FDF7AEFD0E20607023202FE05B
:103240000F2805D001210220FDF7A4FD0F2060709A
:10325000242025E0102805D000210220FDF79AFD4A
:103260001020607025201BE0112805D000210220CD
:10327000FDF790FD11206070262011E0122805D086
:1032800000210220FDF786FD12206070272007E054
:10329000282005E0292003E0222800D065702A209C
:1032A0002070ADE500E001E00720F9E7207026730B
:1032B000A6E520702373A3E530B53E483D4D4FF0A1
:1032C0002504C178807805F10A0501EB002081B260
:1032D0003848A1F52C41AD39427900794FF001030E
:1032E00002EB0020344A07D0A1F50071023905D065
:1032F00000201071937130BDA88500E0E8855470FE
:10330000937030BD70B52B482B4C4BF2B766C1782B
:103310008078002501EB002081B28A1B01236078B0
:10332000B14255D017DC4BF2B106A1EB0602B14217
:103330002CD007DC212976D04220222975D02329E0
:1033400021D175E0A2F50072023A29D0A2F50072EF
:10335000023A18D132E040F20666A2F20661B242A9
:1033600054D008DCA2F50072023A3BD0A2F50072FC
:10337000023A08D140E0A1F50071023948D0A1F528
:10338000C051183946D02571A371CEE6132805D057
:1033900001210320FDF7FEFC132060702C203EE08D
:1033A000142805D001210320FDF7F4FC14206070DF
:1033B0002D2034E0641F002030000020152805D0A7
:1033C00001210320FDF7E6FC152060702E2026E089
:1033D000162805D000210320FDF7DCFC16206070C4
:1033E0002F201CE0172805D000210320FDF7D2FC78
:1033F00017206070302012E0182805D0002103202B
:10340000FDF7C8FC18206070312008E0322006E08B
:10341000332004E0232801D0232060703420207062
:1034200083E600E001E00820F9E7207023737CE6E2
:103430002070257379E630B5FE48FE4D4FF0250427
:10344000C178807805F10A0501EB002081B2F948C6
:10345000A1F53C41BD39427900794FF0010302EBFF
:103460000020F54A07D0A1F50071023905D00020EF
:103470001071937130BDA88700E0E8875470937095
:1034800030BD70B5EB48EC4C4CF2C766C178807823
:10349000002501EB002081B28A1B01236078B14234
:1034A00051D017DC4CF2C106A1EB0602B1422CD080
:1034B00007DC2C2972D043202D2971D02E2921D14F
:1034C00071E0A2F50072023A29D0A2F50072023A28
:1034D00018D12EE040F20666A2F20661B24250D048
:1034E00008DCA2F50072023A37D0A2F50072023A67
:1034F00008D13CE0A1F50071023944D0A1F520616A
:103500000A3942D02571A3710FE6192805D001218F
:103510000420FDF73FFC1920607036203AE01A289D
:1035200005D001210420FDF735FC1A2060703720FA
:1035300030E01B2805D001210420FDF72BFC1B20C7
:103540006070382026E01C2805D000210420FDF7FB
:1035500021FC1C20607039201CE01D2805D00021B2
:103560000420FDF717FC1D2060703A2012E01E2891
:1035700005D000210420FDF70DFC1E2060703B20CB
:1035800008E03C2006E03D2004E0242801D024206F
:1035900060703E202070C8E500E001E00920F9E7F6
:1035A00020702373C1E520702573BEE530B5A148B6
:1035B000A04D4FF02504C178807805F10A0501EB94
:1035C000002081B29B48A1F54C41CD394279007968
:1035D0004FF0010302EB0020974A80B207D0A1F51B
:1035E0000071023906D000201071937130BDA5F82A
:1035F0004C0001E0A5F84E005470937030BD0A46AF
:1036000001460020FFF763B847F6F871091A42F245
:1036100010725143B1FBF0F080B2704710B500203A
:10362000FEF7C7FEC0F30F2010BD10B50120FEF756
:10363000C0FEC0F30F2010BD10B50220FEF7B9FE8A
:10364000C0F30F2010BD10B50320FEF7B2FEC0F38B
:103650000F2010BD10B50420FEF7ABFEC0F30F2005
:1036600010BD10B5531A42F21074634393FBF1F18D
:1036700089B24143101A91FBF0F080B210BD42F2C2
:103680001072B0FBF2F302FB13024FF47A7370B5C1
:10369000B2FBF3F2B0FBF3F403FB14046423B4FBBA
:1036A000F3F4E5B2B0FBF3F403FB14040A23B0FB1C
:1036B000F3F6B4FBF3F4D2B203FB16063032303526
:1036C00030343036B1B1012916D002291FD0032978
:1036D00025D1D0B2FFF72CF8E8B2FFF729F8E0B215
:1036E000FFF726F82E20FFF723F8F0B2BDE8704070
:1036F000FFF71EB8D0B203E0D0B2FFF719F82E20C2
:10370000FFF716F8E8B2FFF713F8E0B2EBE7D0B234
:10371000FFF70EF8E8B2FFF70BF82E20F3E704E509
:103720004FF47A71B0FBF1F201FB12026421B0FB9D
:10373000F1F3B2FBF1F270B501FB13030A21B3FB05
:10374000F1F4B0FBF1F301FB13053032D0B2FEF718
:10375000EFFF3034E0B2FEF7EBFF2E20FEF7E8FF7C
:103760003035E8B2BDE87040FEF7E2BF2DE9F04128
:103770000646324FDFF8C08009F022F90C460546B4
:10378000BE4234DA2E4A2F4B08F0FEFF06460F46A3
:10379000284621462C4A2D4B08F0F6FF2A462346A0
:1037A00008F0F2FF32463B4608F0E8FF284A294B72
:1037B00008F043FF09F017F9C8F8540028462146DD
:1037C000254A264B08F0E0FF06460F4628462146CC
:1037D000234A244B08F0D8FF2A46234608F0D4FF9A
:1037E00032463B4608F029FF1F4A204B99E020480B
:1037F0008642284661DA1F4A1F4B08F0C5FF07467C
:103800000E46284621461D4A1D4B08F0BDFF2A469C
:10381000234608F0B9FF3A46334608F0AFFF194A8D
:10382000194B08F00AFF09F0DEF8C8F854002846E2
:1038300021462BE0641F0020300000200000A04142
:10384000B84082E2C798AB3F89B5F81400E3493F1E
:103850002B8716D9CEF7FD3F1361C3D32B65493FA4
:10386000F5824F73F222033F744694F6065F883F59
:1038700000002042FB5C6DC5FEB29B3F2D431CEB5C
:10388000E236EA3E6F1283C0CAA1F93FFA4AFB4B07
:1038900008F07AFF06460F4628462146F84AF94BBB
:1038A00008F072FF2A46234608F06EFF32463B4678
:1038B00008F064FFF44AF54B33E0F54AF54B08F0A5
:1038C00063FF06460F4628462146F34AF34B08F0AD
:1038D0005BFF2A46234608F057FF32463B4608F076
:1038E0004DFFEF4AEF4B08F0A8FE09F07CF8C8F84E
:1038F000540028462146EC4AEC4B08F045FF0646AA
:103900000F4628462146EA4AEA4B08F03DFF2A4680
:10391000234608F039FF32463B4608F02FFFE64ABF
:10392000E64B08F08AFE09F05EF8C8F8580072E429
:10393000F0B5E3484FF0C10C0221036C0622C2240B
:1039400083F800C059709A70436CC325C4261C705C
:1039500059709A70836CC5271D7059709A70C36C2A
:103960001E7059709A70036D1F7059709A70C36AF7
:1039700003210A2283F800C059709A70036B1C70EF
:1039800059709A70436B1D7059709A70836B1E70DA
:1039900059709A70C06B077041708270F0BDFEF76D
:1039A00080BA70B5C64CE078002844D0C5A009F0B4
:1039B00049FAC54DC549D5F8030088420EDA08F02A
:1039C000FFFFC34AC34B08F038FE0022C24B08F089
:1039D000DBFE08F0DCFF80B203210CE0BF49884227
:1039E0000DDA08F0EDFF0022BD4B08F026FE08F0CE
:1039F000CEFF80B20021FFF742FEBAA00CE0BB4927
:103A000008F04DFDBA4908F0D8FD08F0ACFF80B2CF
:103A10000221FFF734FEB7A009F014FAB7A009F0AD
:103A200011FAB5F80700FFF77BFEB5A009F00AFA16
:103A3000FEF7DFFE18E0206CC1788279C2708171D8
:103A40000179427902714171C179027AC2710172C0
:103A500009220021FFF73DF9A18A206C0A0A42726F
:103A600081720B21FFF7CBFD002020710120A07196
:103A70008BE42DE9F84F0020FFF791FF904E308442
:103A8000FFF7CCFD904CF082633C308CB4F85010C2
:103A9000FEF7D7FDA1898C4D0844954FA5F8070086
:103AA000F079DFF86092DFF860A2DFF860B2E8B387
:103AB00022886188F08AFFF7D4FD0090A846B5F807
:103AC000070008F04BFF394608F077FD494608F03B
:103AD00038FD08F075FF52465B4608F055FE00229F
:103AE0008B4B08F0AAFD05460F46009808F036FFFC
:103AF0008146E08908F032FF864908F05EFD4946BC
:103B000008F05BFD08F05CFF0022834B08F03CFEF0
:103B10002A463B4608F0AAFE08F065FFC8F80300F5
:103B2000A088F18A643088424FD200E005E000218D
:103B30000846FDF72FF9002041E062892189F08ACB
:103B4000FFF78FFD0090A846B5F8070008F006FFC4
:103B5000394608F032FD494608F0F3FC08F030FF22
:103B600052465B4608F010FE0022694B08F065FDE6
:103B700005460F46009808F0F1FE8146E08908F0FE
:103B8000EDFE644908F019FD494608F016FD08F0FD
:103B900017FF0022614B08F0F7FD2A463B4608F06C
:103BA00065FE08F020FFC8F80300E088F18A643859
:103BB00088420ADD01210020FDF7ECF80120F071B8
:103BC000BDE8F84FC820FEF763BDBDE8F88F70B5BB
:103BD0003B4CE07800284DD051A009F033F93A4D24
:103BE0000C35D5F80300B0F1804F11DA08F0E8FE8B
:103BF0004C4A4D4B08F021FD00224C4B08F0C4FD0F
:103C000008F0C5FE80B20121FFF739FD48A022E08F
:103C10004A4988420EDA08F0D3FE3B4A484B08F086
:103C20000CFD0022474B08F0AFFD08F0B0FE80B25B
:103C300002210DE008F0C4FE254A264B08F0FDFCE9
:103C40000022254B08F0A0FD08F0A1FE80B2032160
:103C5000FFF715FD23A009F0F5F83BA009F0F2F8F5
:103C6000B5F80700FFF75CFD25A009F0EBF8FEF7BB
:103C7000C0FD84E06AE000000FD6FF39CC97173F03
:103C8000FC6D4F90D8EE0E3F014D840D4FAF943F29
:103C900022FDF675E09C613F43C5387F130A11BFD2
:103CA0001F85EB51B81EED3F091B9E5E29CB603F7F
:103CB00054F0CAE48A41163FC976BE9F1A2FAD3F21
:103CC0003000002043313D00D11F00200000484358
:103CD0009A9999999999A93F000024400000FA44C3
:103CE0000000E03FA6CC532F636D20000000A040F1
:103CF000000020416D532F636D20200054313D00A2
:103D0000A1E600000000C8417B14AE47E17A943F71
:103D10000000F03F00007A4484D79741D0126341FD
:103D200043323D00FCA9F1D24D62403F00408F403C
:103D3000A6CC532F636D2020000000000000A0419E
:103D4000E17A743F0000594054323D00606CC17804
:103D50008279C27081710179427902714171C179B0
:103D6000027AC271017209220021FEF7B2FFA18A14
:103D7000606C0A0A427281720B21FFF740FC00203E
:103D800020710120A07106E42DE9F84F0120FFF712
:103D900006FEFE4E7084FFF748FCFD4C3083708CAD
:103DA000B4F85210FEF74DFCA18B04F16F050844E6
:103DB000A5F80700307AF74FDFF8DC93DFF8DCA3D3
:103DC000DFF8DCB3F0B3228A618A308BFFF749FC5D
:103DD0000090A846B5F8070008F0C0FD394608F085
:103DE000ECFB494608F0ADFB08F0EAFD52465B46A5
:103DF00008F0CAFC0022EB4B08F01FFC05460F46FA
:103E0000009808F0ABFD8146E08B08F0A7FDE6497D
:103E100008F0D3FB494608F0D0FB08F0D1FD0022A2
:103E2000E24B08F0B1FC2A463B4608F01FFD08F0C3
:103E3000DAFDC8F80300A08A318B643088424FD283
:103E4000002100E004E00120FCF7A4FF002041E095
:103E5000628B218B308BFFF704FC0090A846B5F8ED
:103E6000070008F07BFD394608F0A7FB494608F03B
:103E700068FB08F0A5FD52465B4608F085FC002271
:103E8000C84B08F0DAFB05460F46009808F066FDBF
:103E90008146E08B08F062FDC34908F08EFB49467D
:103EA00008F08BFB08F08CFD0022C14B08F06CFC85
:103EB0002A463B4608F0DAFC08F095FDC8F80300F6
:103EC000E08A318B643888420ADD01210846FCF71C
:103ED00061FF01203072BDE8F84FC820FEF7D8BB63
:103EE00073E670B5A94CE078002839D0B1A008F08D
:103EF000A9FFA74D7B35D5F80300B0F1804F0EDA4E
:103F000008F05EFDAC4AAD4B08F097FB0022AC4BCD
:103F100008F03AFC08F03BFD80B201210DE008F00A
:103F20004FFD9E4AA74B08F088FB0022A64B08F0E5
:103F30002BFC08F02CFD80B20221FFF7A0FBA3A010
:103F400008F080FFA3A008F07DFFB5F80700FFF799
:103F5000E7FBAFF2542008F075FFFEF74AFC18E0CB
:103F6000A06CC1788279C270817101794279027145
:103F70004171C179027AC271017209220021FEF7F2
:103F8000A8FEA18AA06C0A0A427281720B21FFF777
:103F900036FB002020710120A07169E52DE9FC5F4E
:103FA0000220FFF7FCFC794CA084FFF745FB784D1D
:103FB0006083A08CB5F85410FEF743FBA98D05F182
:103FC0007B06084480B2A6F8070008F0C7FC7149D8
:103FD00008F0F3FAFFF7CAFB607ADFF8FC91DFF82C
:103FE000FCA1DFF8C0B1E8B32A8C698C608BFFF7C5
:103FF00038FB0090A06D08F0E3FC07468846E88D8A
:1040000008F0ACFC0190009808F0A8FC019908F0B9
:104010009EFA08F0D5FC02460B460020704908F0D5
:1040200025FC3A46434608F0A9FB07468846606DE2
:1040300008F0C6FC43463A4608F0A6FB4A465346FB
:1040400008F0FBFA02460B460020594608F00EFC29
:1040500008F0C9FCC6F80300A88C618B6430884264
:104060004DD200E005E000210220FCF793FE002085
:1040700041E06A8D298D608BFFF7F3FA0090A06D07
:1040800008F09EFC07468846E88D08F067FC019022
:10409000009808F063FC019908F059FA08F090FCC8
:1040A00002460B460020414908F0E0FB3A464346F1
:1040B00008F064FB07468846606D08F081FC3A46CC
:1040C000434608F061FB4A46534608F0B6FA0246FA
:1040D0000B460020594608F0C9FB08F084FCC6F8DE
:1040E0000300E88C618B6438884208DD01210220DE
:1040F000FCF750FE01206072C820FEF7C9FAD6F81E
:104100000300384908F023FA3749C6F8030088420B
:1041100001DDC6F80310BDE8FC9F70B51B4CE078CC
:1041200000286FD031A008F08DFE194D8735D5F8E5
:104130000300B0F1804F0EDA08F042FC1E4A1F4B1C
:1041400008F07BFA00221E4B08F01EFB08F01FFC53
:1041500080B201210DE008F033FC104A194B08F041
:104160006CFA0022184B08F00FFB08F010FC80B22C
:104170000221FFF784FA15A008F064FE1CA008F0E5
:1041800061FEB5F80700FFF7CBFA34E030000020FD
:104190006E1F0020000020410000C8417B14AE4784
:1041A000E17A943F0000F03F00007A4480842E4181
:1041B000006AF84043333D00FCA9F1D24D62403F14
:1041C00000408F40E17A743F000059404DA6B82A64
:1041D000636D200054333D00535C55F65D11AC3FD8
:1041E000D01263416666863F9A99914143343D00FF
:1041F00054343D0006E0AFF2F84008F023FEFEF72D
:10420000F8FA18E0E06CC1788279C27081710179A6
:10421000427902714171C179027AC2710172092237
:104220000021FEF756FDA18AE06C0A0A42728172F3
:104230000B21FFF7E4F9002020710120A07117E4A1
:104240002DE9FC5F0320FFF7AAFBFE4CE084FFF79B
:10425000FAF9FD4DA083E08CB5F85610FEF7F1F9A0
:10426000A98F05F18706084480B2A6F8070008F078
:1042700075FBF64908F0A1F9FFF778FAA07ADFF8A4
:10428000D093DFF8D0A3DFF8D0B3E8B32A8E698EDD
:10429000A08BFFF7E6F90090A06D08F091FB0746B0
:1042A0008846E88F08F05AFB0190009808F056FB0A
:1042B000019908F04CF908F083FB02460B460020F8
:1042C000E64908F0D3FA3A46434608F057FA07465B
:1042D0008846606D08F074FB43463A4608F054FA8D
:1042E0004A46534608F0A9F902460B4600205946B3
:1042F00008F0BCFA08F077FBC6F80300A88EA18B83
:10430000643088424DD200E005E000210320FCF734
:1043100041FD002041E06A8F298FA08BFFF7A1F9B2
:104320000090A06D08F04CFB07468846E88F08F027
:1043300015FB0190009808F011FB019908F007F9AE
:1043400008F03EFB02460B460020C54908F08EFAF5
:104350003A46434608F012FA07468846606D08F070
:104360002FFB3A46434608F00FFA4A46534608F0F8
:1043700064F902460B460020594608F077FA08F027
:1043800032FBC6F80300E88EA18B6438884208DD52
:1043900001210320FCF7FEFC0120A072C820FEF7DB
:1043A00077F9D6F80300AF4908F0D1F8AE49C6F85E
:1043B0000300884201DDC6F80310ACE670B5A14CDD
:1043C000E078002839D0A9A008F03CFD9E4D933537
:1043D000D5F80300B0F1804F0EDA08F0F1FAA44AE4
:1043E000A44B08F02AF90022A34B08F0CDF908F0FD
:1043F000CEFA80B201210DE008F0E2FA9F4AA04B0C
:1044000008F01BF900229F4B08F0BEF908F0BFFA34
:1044100080B20221FFF733F99BA008F013FD9DA0A5
:1044200008F010FDB5F80700FFF77AF9AFF2307029
:1044300008F008FDFEF7DDF918E0206DC1788279FB
:10444000C27081710179427902714171C179027A38
:10445000C271017209220021FEF73BFCA18A206D86
:104460000A0A427281720B21FFF7C9F800202071FD
:104470000120A07187E42DE9FC5F0420FFF78FFA8B
:10448000704C2085FFF7E6F86F4DE083208DB5F87E
:104490005810FEF7D6F8B5F84C1005F1930608440D
:1044A00080B2A6F8070008F059FA684908F085F8C4
:1044B000FFF75CF9E07ADFF89891DFF898A1DFF870
:1044C00098B1002843D035F8402FE08B6988FFF77A
:1044D000C8F80090A06D08F073FA07468846E8898E
:1044E00008F03CFA0190009808F038FA019908F0B9
:1044F0002EF808F065FA02460B460020574908F0EE
:10450000B5F93A46434608F039F907468846606DE2
:1045100008F056FA43463A4608F036F94A465346FA
:1045200008F08BF802460B460020594608F09EF929
:1045300008F059FAC6F80300A888E18B6430884275
:104540004CD200210420FCF725FC002042E0463537
:10455000E08BAA886988FFF784F80090A06D08F0C6
:104560002FFA07468846288908F0F8F90190009844
:1045700008F0F4F9019907F0EAFF08F021FA024681
:104580000B460020364908F071F93A46434608F0D8
:10459000F5F807468846606D08F012FA3A46434639
:1045A00008F0F2F84A46534608F047F802460B4630
:1045B0000020594608F05AF908F015FAC6F8030029
:1045C0002888E18B6438884208DD01210420FCF74B
:1045D000E1FB0120E072C820FEF75AF8D6F803008C
:1045E000204907F0B4FF2049C6F80300884201DDE6
:1045F000C6F803108FE510B5124C0D220021E06AB9
:10460000FEF767FBA18AE06A0A0A42738173BDE87C
:1046100010400F21FEF7F3BF2DE9F84F0020FFF700
:10462000BEF9084E3084FEF7F9FF074DF082308C5A
:10463000B5F85010FEF705F8A98905F19F04084464
:104640002AE00000300000206E1F00200000204102
:10465000535C55F65D11AC3F0000F03FD012634152
:1046600080842E416666863F9A99914143353D008C
:10467000FCA9F1D24D62403F00408F407B14AE4711
:10468000E17A743F000059404DA6B82A636D20209E
:104690000000000054353D00A4F80B00F08AA4F897
:1046A0000700317BFD4EFE4FDFF8F883DFF8F8930B
:1046B000DFF8F8A3DFF8F8B361B32A886988FEF75A
:1046C000D0FF0090B4F80B0008F048F9314607F02D
:1046D00074FF394607F035FF08F072F942464B4641
:1046E00008F052F80022534607F0A7FF06460F468F
:1046F000009808F033F98046E88908F02FF9594608
:1047000007F05BFF414607F058FF08F059F9002217
:10471000E84B2BE06A892989FEF7A3FF0090B4F8E3
:104720000B0008F01BF9314607F047FF394607F048
:1047300008FF08F045F942464B4608F025F80022EC
:10474000534607F07AFF06460F46009808F006F930
:104750008046E88908F002F9594607F02EFF4146E5
:1047600007F02BFF08F02CF90022D34B08F00CF8CF
:1047700032463B4608F07AF808F035F9C4F80300F1
:104780000098A4F80900BDE8F88F10B5CB4C0D22B5
:104790000021206BFEF79DFAA18A206B0A0A427362
:1047A0008173BDE810400F21FEF729BF2DE9F84FB6
:1047B0000120FFF7F4F8C14E7084FEF736FFC04DBC
:1047C0003083708CB5F85210FDF73BFFA98B05F1D3
:1047D000AF040844A4F80B00308BA4F80700317B29
:1047E000AE4EAF4FDFF8BC82DFF8BC92DFF8BCA260
:1047F000DFF8BCB261B32A8A698AFEF732FF009003
:10480000B4F80B0008F0AAF8314607F0D6FE394696
:1048100007F097FE08F0D4F842464B4607F0B4FF85
:104820000022534607F009FF06460F46009808F09D
:1048300095F88046E88B08F091F8594607F0BDFEE0
:10484000414607F0BAFE08F0BBF800229D4B2BE072
:104850006A8B298BFEF705FF0090B4F80B0008F077
:104860007DF8314607F0A9FE394607F06AFE08F0E8
:10487000A7F842464B4607F087FF0022534607F051
:10488000DCFE06460F46009808F068F88046E88B84
:1048900008F064F8594607F090FE414607F08DFE97
:1048A00008F08EF80022884B07F06EFF32463B4638
:1048B00007F0DCFF08F097F8C4F803000098A4F8AC
:1048C000090060E710B57D4C0D220021606BFEF7FA
:1048D00000FAA18A606B0A0A42738173BDE8104036
:1048E0000F21FEF78CBE2DE9F84F0220FFF757F895
:1048F000724CA084FEF7A0FE714E6083A08CB6F8C7
:104900005410FDF79EFEB18D06F1BF05084480B23C
:10491000A5F80B0008F022F8604907F04EFEFEF7FC
:1049200025FF608BA5F80700217BDFF8A091DFF859
:10493000A0A1DFF878B1E1B1328C718CA046FEF70E
:1049400090FE0090D8F8580008F03AF804460F4658
:10495000F08D08F003F80646009807F0FFFF314697
:1049600007F0F5FD08F02CF802460B4600205249EE
:104970001BE0728D318DA046FEF773FE0090D8F8D3
:10498000580008F01DF804460F46F08D07F0E6FFCA
:104990000646009807F0E2FF314607F0D8FD08F020
:1049A0000FF802460B460020464907F05FFF2246FB
:1049B0003B4607F0E3FE04460E46D8F8540007F0E5
:1049C000FFFF2246334607F0DFFE4A46534607F014
:1049D00034FE02460B460020594607F047FF08F018
:1049E00002F8C5F803000098A5F80900CBE610B559
:1049F000324C0D220021A06BFEF76BF9A18AA06B4F
:104A00000A0A42738173BDE810400F21FEF7F7BD1B
:104A10002DE9F84F0320FEF7C2FF284CE084FEF793
:104A200012FE274EA083E08CB6F85610FDF709FE63
:104A3000B18F06F1CF05084480B2A5F80B0007F04E
:104A40008DFF164907F0B9FDFEF790FEA08BA5F883
:104A50000700217BDFF87490DFF874A0DFF84CB01A
:104A6000C1B3328E718EA046FEF7FBFD0090D8F8E0
:104A7000580007F0A5FF04460F46F08F07F06EFFC1
:104A80000646009807F06AFF314607F060FD07F020
:104A900097FF02460B460020074938E000002041FE
:104AA0000000C8417B14AE47E17A943F0000F03F1C
:104AB00000007A4484D79741D0126341300000202F
:104AC0006E1F002080842E41006AF840535C55F62A
:104AD0005D11AC3FFFE7728F318FA046FEF7C1FD3D
:104AE0000090D8F8580007F06BFF04460F46F08F8F
:104AF00007F034FF0646009807F030FF314607F014
:104B000026FD07F05DFF02460B460020F74907F03F
:104B1000ADFE22463B4607F031FE04460E46D8F86D
:104B2000540007F04DFF2246334607F02DFE4A465B
:104B3000534607F082FD02460B460020594607F017
:104B400095FE07F050FFC5F803000098A5F809008E
:104B500019E610B5E64C0D220021E06BFEF7B9F81E
:104B6000A18AE06B0A0A42738173BDE810400F21ED
:104B7000FEF745BD2DE9F84F0320FEF710FFDC4C92
:104B80002085FEF767FDDB4EE083208DB6F85810D8
:104B9000FDF757FDB6F84C1006F1DF05084480B26A
:104BA000A5F80B0007F0DAFED34907F006FDFEF783
:104BB000DDFDE08BA5F80700217BDFF84093DFF8EF
:104BC00040A3DFF840B3E9B136F8402FA046718822
:104BD000FEF747FD0090D8F8580007F0F1FE0446B4
:104BE0000F46F08907F0BAFE0646009807F0B6FEB9
:104BF000314607F0ACFC07F0E3FE02460B4600200E
:104C0000C1491CE03E36A046B2897189FEF729FDF4
:104C10000090D8F8580007F0D3FE04460F463088BD
:104C200007F09CFE0646009807F098FE314607F014
:104C30008EFC07F0C5FE02460B460020AB4907F08C
:104C400015FE22463B4607F099FD04460E46D8F86D
:104C5000540007F0B5FE2246334607F095FD4A465C
:104C6000534607F0EAFC02460B460020594607F07F
:104C7000FDFD07F0B8FEC5F803000098A5F809008F
:104C800081E513460A461946FBF7B6BE10B5994AA8
:104C90005A21B020FBF7BAFE5A21BDE81040954AD0
:104CA000B120FBF7A9BE10B5924A5A21B120FBF7FB
:104CB000ADFE002806D15A21BDE810408D4AB02033
:104CC000FBF79ABE10BD70B58948C17879B14078BC
:104CD000262803D0272803D08CA002E08CA000E077
:104CE0008DA008F0AFF8BDE87040FDF782BD814DA2
:104CF00000240A3D285DFDF71BFD641CE4B2082C6E
:104D0000F8D370BD2DE9F0437A4DC121C222C327EB
:104D1000774E4FF0C40C4FF0C50905F15A04152821
:104D200065D2DFE800F0640B0E1114181C232A3141
:104D3000394144474A4D5053575B60002170F08A17
:104D400055E02270308B52E02770708B4FE084F872
:104D500000C0B08B4BE084F80090F08B47E02170EE
:104D6000308CFEF751FCA5F8500040E02270708CAA
:104D7000FEF74AFCA5F8520039E02770B08CFEF728
:104D800043FCA5F8540032E084F800C0F08CFEF734
:104D90003BFCA5F856002AE084F80090308DFEF721
:104DA00033FCA5F8580022E02170E8891FE021704B
:104DB000A8891CE02270E88B19E02270A88B16E00D
:104DC0002770E88D13E02770A88D10E084F800C0EC
:104DD000E88F0CE084F800C0A88F08E084F8009009
:104DE000B5F84E0003E084F80090B5F84C000221BD
:104DF0006170A170010AE17020713E480522002116
:104E00005A30FDF766FFB08A010A6171A071BDE8F2
:104E1000F08370B5364CE178002965D0354D2E28E9
:104E200021D2DFE800F02017192326292C2F323554
:104E3000383B3E4346494C4F52585B5E8183868CDB
:104E40008F9295989BA1AAB4BEC8D2D7DCE1E6F0B8
:104E5000F5FAFFEB324801E03148083007F0F2FF85
:104E6000E08AFDF76DFCFDF7CCFC09E12C48103021
:104E7000F4E72B481830F1E729482030EEE72848BE
:104E80002830EBE7264854300CE025485C3009E038
:104E90002348643006E022486C3003E02048743038
:104EA00000E0204807F0CEFF208BDAE71D482830CD
:104EB0000DE01C4830300AE01A48383007E0194845
:104EC000403004E01748483001E01648503007F001
:104ED000B9FF608BC5E7134878302CE0114880306B
:104EE00029E01048883026E0A8E0000080842E41A8
:104EF000300000206E1F002000002041535C55F65A
:104F00005D11AC3F0000F03FD0126341454E5400AC
:104F10006261636B757000007265636F7665720025
:104F2000182A0008842E0008E34804E0E24808300C
:104F300001E0E148103007F085FFA08B91E7DE48E3
:104F400038300DE0DC4840300AE0DB48483007E00C
:104F5000D948503004E0D848583001E0D648603095
:104F600007F070FFE08B7CE7D44807F06BFF208CE4
:104F7000FEF74AFBA5F8500073E7CF48883807F0E2
:104F800061FF608CFEF740FBA5F8520069E7CA4854
:104F9000383807F057FFA08CFEF736FBA5F8540011
:104FA0005FE7C548183007F04DFFE08CFEF72CFB9B
:104FB000A5F8560055E7C048683007F043FF208D3C
:104FC000FEF722FBA5F858004BE7BDA007F03AFF1B
:104FD000E88946E7BCA007F035FFA88941E7BCA0F7
:104FE00007F030FFE88B3CE7BBA007F02BFFA88B56
:104FF00037E7BBA007F026FFE88D32E718E011E0A5
:105000000BE005E0FFE7B8A007F01CFFA88D28E73C
:10501000B7A007F017FFE88F23E7B7A007F012FF4C
:10502000A88F1EE7B6A007F00DFFB5F84E0018E7F1
:10503000B5A007F007FFB5F84C0012E72E281BD2E9
:10504000DFE800F01A171717171717232323232356
:1050500023252525252525272727272727292929EA
:105060002929292B2D2F31333537393B3D3F4143FA
:1050700045470120FFF746FE0721A548FEF7BFFA86
:10508000002020710120A07170BD0220F2E70320F2
:10509000F0E70420EEE70520ECE70620EAE707202A
:1050A000E8E70820E6E70920E4E70A20E2E70B202A
:1050B000E0E70C20DEE70D20DCE70E20DAE70F202A
:1050C000D8E71020D6E71120D4E71220D2E713202A
:1050D000D0E71420CEE72DE9F04105460C4601202B
:1050E000FBF740FF8A4822462946643807F062F9F8
:1050F000874A4CF20236643A00255078117801272D
:1051000000EB0120811B834C4FF48073B04274D0BC
:105110001ADC4CF20316A0EB0601B0426ED005DC9F
:1051200011F580705AD0FF2831D168E0FF297BD07B
:1051300099422CD106210020FDF7DBFD38B3A57183
:105140002771FDF7FDFF22E040F20116A1F20110E8
:10515000B1426AD00EDC012968D0994217D150794A
:10516000117900EB012002287ED006287CD00A2885
:105170007AD00CE0FF2878D0984208D10621002090
:10518000FDF7B7FD18B1A5712771FEF70FFA20786A
:105190000C26401F3F2869D2DFE800F0F5F4F3F257
:1051A000F1686868F0EFEEEDECEBEAE9E8E768E655
:1051B000E5E4E3E2E1E0DFDE68DDDCDBDAD9D8D785
:1051C000D6D568D4D3D2D1D0CFCECDCC68CBCAC9B6
:1051D000C8C7C6C5C4C3C2C1C0BFBE00507911791B
:1051E00010EB012067D10621FDF783FD0028CED00A
:1051F000A5712771FDF792FDC9E73CE017E05079F2
:10520000117900EB0120022803D0062801D00A28DA
:10521000BDD106210020FDF76CFD0028B7D0A57197
:105220002771FDF7A8FDB2E70CE0B8E038E00621F1
:105230000020FDF75EFD0028A9D0A5712771FDF7BC
:10524000C4FEA4E75079117900EB0120022803D0B5
:10525000062801D00A289AD106210020FDF749FD31
:10526000002894D0A57102E08EE0A3E0C3E027718E
:10527000FDF7D1FE8BE75079117900EB0120022870
:1052800003D0062801D00A2881D106210020FDF78D
:1052900030FD0028B0D0A5712771FDF777FF76E7C4
:1052A00006210020FDF725FD0028A5D0A571277156
:1052B000FEF702F86BE711E1142F0008482A0008F6
:1052C0004331434E543D000043314F46533D0000AF
:1052D0004332434E543D000043324F46533D00009D
:1052E0004333434E543D000043334F46533D00008B
:1052F0004334434E543D000043344F46533D000079
:105300004335434E543D000043354F46533D000066
:10531000C81F00203000002099E193E18DE187E172
:1053200081E13CE162E163E134E12EE128E122E147
:105330001CE116E10BE110E111E103E1FDE0F7E012
:10534000F1E0EBE0E5E0DAE0DFE0E0E0D2E0CCE065
:10535000C6E0BEE0B8E0B2E0A7E0ACE0ADE09FE0C0
:1053600099E093E08DE087E081E076E07BE07CE00F
:105370006EE068E062E05CE036E030E06CE14DE178
:1053800047E141E13BE135E106210020FDF7B1FCB9
:10539000002884D0A5712771FDF7B4FFF7E6062138
:1053A0000020FDF7A6FC002884D0A5712771FEF728
:1053B00042F8ECE65079117900EB0120022803D085
:1053C000062801D00A28E9D106210020FDF791FC2A
:1053D0000028E3D0A5712771FEF753F8D7E6FEF752
:1053E0001DF9E082012003E0FEF718F9E0820220B7
:1053F000FFF70FFD2670A07800286FD06178FE4877
:105400002A296CD2DFE801F06BF1F0EFEEEDECEB66
:10541000EAE9E8E7E6E5E4E3E2E1E0DFDEDDDCDB64
:10542000DAD9D8D7D6D5D46B6B6B6B6B6B6BD3D209
:105430006BD1FEF7F3F8E0820320D9E7FEF7EEF830
:10544000E0820420D4E7FEF7E9F8E0820520CFE708
:10545000FEF7E4F8E0820620CAE70020FEF79FFA94
:1054600020841F20C4E72420C2E72520C0E7FEF7E0
:10547000DCF820830720BBE7FEF7D7F8208308205D
:10548000B6E7FEF7D2F820830920B1E7FEF7CDF8A2
:1054900020830A20ACE7FEF7C8F820830B20A7E79B
:1054A000FEF7C3F820830C20A2E70120FEF777FA6D
:1054B000608420209CE726209AE7272098E7FEF7C3
:1054C000BBF860830D2093E7FEF7B6F860830E20EB
:1054D0008EE7FEF7B1F860830F2089E733E12DE115
:1054E000FEF7AAF86083102082E7FEF7A5F8608334
:1054F00011207DE7FEF7A0F86083122078E70220F4
:10550000FEF74DFAA084212072E7282070E72920B9
:105510006EE7FEF798F8A083132069E7FEF793F88B
:10552000A083142064E7FEF78EF8A08315205FE7C0
:10553000FEF789F8A08316205AE7FEF784F8A083C7
:10554000172055E7FEF77FF8A083182050E70320C7
:10555000FEF725FAE08422204AE72A2048E72B209C
:1055600046E7FEF777F8E083192041E7FEF772F887
:10557000E0831A203CE7FEF76DF8E0831B2037E755
:10558000FEF768F8E0831C2032E7FEF763F8E0835B
:105590001D202DE7FEF75EF8E0831E2028E704209B
:1055A000FEF7FDF92085232022E7C0E0BCE0B8E04B
:1055B000B3E0AEE0A9E0A4E09FE09AE096E092E0DC
:1055C0008EE08AE086E082E07EE07AE076E072E0DB
:1055D0006EE06AE066E062E05EE05AE056E052E0CB
:1055E0004EE04AE046E042E03EE03AE02C20FFE6B2
:1055F0002D20FDE6FEF73DFAFEF7D3F9FAE6FEF7B9
:10560000C3FBFEF7E4FAF5E6FEF7C8FCFEF769FC1B
:10561000F0E6FEF715FEFEF780FDEBE6FEF72BFF4A
:10562000FEF7CCFEE6E6FEF7F7FFFEF7E4FFE1E665
:10563000FFF7BCF8FFF7A9F8DCE6FFF754F9FFF72E
:1056400041F9D7E6FFF7E4F9FFF7D1F9D2E6FFF722
:1056500091FAFFF77EFACDE65A216748FDF74CF93B
:10566000C8E6E18A018069E0E18A418066E0E18A7A
:10567000818063E0E18AC18060E0E18A01815DE0D0
:10568000E18A41815AE0218B018257E0218B4182DE
:1056900054E0218B818251E0218BC1824EE0218B2D
:1056A00001834BE0218B418348E0618B018445E01D
:1056B000618B418442E0618B81843FE0618BC184D6
:1056C0003CE0618B018539E0618B418536E0A18B3F
:1056D000018633E0A18B418630E0A18B81862DE0ED
:1056E000A18BC1862AE0A18B018727E0A18B41878E
:1056F00024E0E18BA0F8401020E0E18BA0F84210FC
:105700001CE0E18BA0F8441018E0E18BA0F84610F3
:1057100014E0E18BA0F8481010E0E18BA0F84A10EB
:105720000CE0FFF7B3FA09E0FFF7BDFA06E05A22F2
:105730003149B020FFF7A5FA1F206070FFF7C3FAC8
:105740002571A771A570BDE8F0817CB5044680790C
:10575000082819D1062104F108000D460646FCF779
:105760009DFFA17BB1EB102F03D1E27BC1B291422F
:105770000BD0E18921A349BACDE9000140F6A3226B
:1057800023A1042002F072FC7CBD29463046BDE80E
:105790007C40A0E48068002800D0004770472DE9D5
:1057A000F04120481F21012441700C21017000218B
:1057B0008170C170017141718171C1710172417259
:1057C0008172C1720C4A5A21B020FBF71FF918B13F
:1057D0005A21094806F007FEFEF7AAF8124E134DAB
:1057E000AFF2990704EBC40005EB8010C0E98C67A9
:1057F0002046FBF722FC1BE06E1F00206D697466DB
:1058000020637263206661696C2025782C257800FE
:10581000536F757263655C4150505C6D6F64627567
:10582000732E630030000020EB260008F0120020E9
:10583000641CE4B2022CD5D985E7000010B5012024
:1058400000F073FBBDE81040002000F06EBB1F4964
:10585000086070471D49091F086070471B49843163
:10586000086070471A4A118821F460710143118061
:105870007047174A118821F07F010143118070475A
:10588000134A08B52C3A10440090016008BD104935
:1058900008B52C3908440090008808BD0B489C309E
:1058A0000068C0B270470A480830018841F0010121
:1058B000018070470548A0300068C0B270470448B6
:1058C0000830018841F002010180704704860D42D2
:1058D0002C6C0040374900200860091D0860091D34
:1058E0000860091D08603349334814310860704767
:1058F00030B5304A8379016853B313688B43136022
:10590000111D0B680468A3430B60017911440B68F7
:10591000046823430B60274B083319680468A143CC
:1059200019601C1D21680568A9432160417910296F
:1059300005D011440A68006802430A6030BD196846
:10594000026811431960216800680143216030BD7D
:105950000079104402688A43026030BD0021016072
:1059600001710C22427181717047124910310A682D
:1059700002430A60704701460E4A00201432126842
:105980000A4200D0012070470A491431086070476C
:10599000084A014600201268064B0A4014331B686F
:1059A0000B4202D0002A00D0012070470149143177
:1059B0000860704700040140FFFF0F008E4910B5DA
:1059C000884206D10121042000F09DFA0021042024
:1059D0003BE08A49884206D10121082000F093FA71
:1059E0000021082031E08649884206D1012110209B
:1059F00000F089FA0021102027E08249884206D170
:105A00000121202000F07FFA002120201DE07E49A6
:105A1000884206D10121402000F075FA0021402083
:105A200013E07A49884206D10121802000F06BFA08
:105A30000021802009E0764988420AD1841501219D
:105A4000204600F060FA00212046BDE8104000F03A
:105A50005ABA10BD10B50121084600F054FA0021D1
:105A6000BDE81040012000F04EBAF0B5CC7800221D
:105A700004F00F03E40601D58C7823430C784FF033
:105A80000F0C4FF0010EDCB105680E880EFA02F41F
:105A90002640A64210D196000CFA06F725EA070721
:105AA00003FA06F5CE783D43282E02D0482E02D0C8
:105AB00002E0446100E00461521C082AE5D305605D
:105AC0000A88FF2A1CD94468002202F108060EFA4F
:105AD00006F50E882E40AE420ED196000CFA06F75F
